{
  "contracts/PaperBook.sol": {
    "PaperBook": {
      "abi": [
        {
          "inputs": [],
          "stateMutability": "nonpayable",
          "type": "constructor"
        },
        {
          "inputs": [
            {
              "internalType": "address",
              "name": "sender",
              "type": "address"
            },
            {
              "internalType": "uint256",
              "name": "balance",
              "type": "uint256"
            },
            {
              "internalType": "uint256",
              "name": "needed",
              "type": "uint256"
            },
            {
              "internalType": "uint256",
              "name": "tokenId",
              "type": "uint256"
            }
          ],
          "name": "ERC1155InsufficientBalance",
          "type": "error"
        },
        {
          "inputs": [
            {
              "internalType": "address",
              "name": "approver",
              "type": "address"
            }
          ],
          "name": "ERC1155InvalidApprover",
          "type": "error"
        },
        {
          "inputs": [
            {
              "internalType": "uint256",
              "name": "idsLength",
              "type": "uint256"
            },
            {
              "internalType": "uint256",
              "name": "valuesLength",
              "type": "uint256"
            }
          ],
          "name": "ERC1155InvalidArrayLength",
          "type": "error"
        },
        {
          "inputs": [
            {
              "internalType": "address",
              "name": "operator",
              "type": "address"
            }
          ],
          "name": "ERC1155InvalidOperator",
          "type": "error"
        },
        {
          "inputs": [
            {
              "internalType": "address",
              "name": "receiver",
              "type": "address"
            }
          ],
          "name": "ERC1155InvalidReceiver",
          "type": "error"
        },
        {
          "inputs": [
            {
              "internalType": "address",
              "name": "sender",
              "type": "address"
            }
          ],
          "name": "ERC1155InvalidSender",
          "type": "error"
        },
        {
          "inputs": [
            {
              "internalType": "address",
              "name": "operator",
              "type": "address"
            },
            {
              "internalType": "address",
              "name": "owner",
              "type": "address"
            }
          ],
          "name": "ERC1155MissingApprovalForAll",
          "type": "error"
        },
        {
          "anonymous": false,
          "inputs": [
            {
              "indexed": true,
              "internalType": "address",
              "name": "account",
              "type": "address"
            },
            {
              "indexed": true,
              "internalType": "address",
              "name": "operator",
              "type": "address"
            },
            {
              "indexed": false,
              "internalType": "bool",
              "name": "approved",
              "type": "bool"
            }
          ],
          "name": "ApprovalForAll",
          "type": "event"
        },
        {
          "anonymous": false,
          "inputs": [
            {
              "indexed": true,
              "internalType": "address",
              "name": "operator",
              "type": "address"
            },
            {
              "indexed": true,
              "internalType": "address",
              "name": "from",
              "type": "address"
            },
            {
              "indexed": true,
              "internalType": "address",
              "name": "to",
              "type": "address"
            },
            {
              "indexed": false,
              "internalType": "uint256[]",
              "name": "ids",
              "type": "uint256[]"
            },
            {
              "indexed": false,
              "internalType": "uint256[]",
              "name": "values",
              "type": "uint256[]"
            }
          ],
          "name": "TransferBatch",
          "type": "event"
        },
        {
          "anonymous": false,
          "inputs": [
            {
              "indexed": true,
              "internalType": "address",
              "name": "operator",
              "type": "address"
            },
            {
              "indexed": true,
              "internalType": "address",
              "name": "from",
              "type": "address"
            },
            {
              "indexed": true,
              "internalType": "address",
              "name": "to",
              "type": "address"
            },
            {
              "indexed": false,
              "internalType": "uint256",
              "name": "id",
              "type": "uint256"
            },
            {
              "indexed": false,
              "internalType": "uint256",
              "name": "value",
              "type": "uint256"
            }
          ],
          "name": "TransferSingle",
          "type": "event"
        },
        {
          "anonymous": false,
          "inputs": [
            {
              "indexed": false,
              "internalType": "string",
              "name": "value",
              "type": "string"
            },
            {
              "indexed": true,
              "internalType": "uint256",
              "name": "id",
              "type": "uint256"
            }
          ],
          "name": "URI",
          "type": "event"
        },
        {
          "inputs": [
            {
              "internalType": "address",
              "name": "account",
              "type": "address"
            },
            {
              "internalType": "uint256",
              "name": "id",
              "type": "uint256"
            }
          ],
          "name": "balanceOf",
          "outputs": [
            {
              "internalType": "uint256",
              "name": "",
              "type": "uint256"
            }
          ],
          "stateMutability": "view",
          "type": "function"
        },
        {
          "inputs": [
            {
              "internalType": "address[]",
              "name": "accounts",
              "type": "address[]"
            },
            {
              "internalType": "uint256[]",
              "name": "ids",
              "type": "uint256[]"
            }
          ],
          "name": "balanceOfBatch",
          "outputs": [
            {
              "internalType": "uint256[]",
              "name": "",
              "type": "uint256[]"
            }
          ],
          "stateMutability": "view",
          "type": "function"
        },
        {
          "inputs": [
            {
              "internalType": "uint256",
              "name": "id",
              "type": "uint256"
            }
          ],
          "name": "exists",
          "outputs": [
            {
              "internalType": "bool",
              "name": "",
              "type": "bool"
            }
          ],
          "stateMutability": "view",
          "type": "function"
        },
        {
          "inputs": [
            {
              "internalType": "address",
              "name": "account",
              "type": "address"
            },
            {
              "internalType": "address",
              "name": "operator",
              "type": "address"
            }
          ],
          "name": "isApprovedForAll",
          "outputs": [
            {
              "internalType": "bool",
              "name": "",
              "type": "bool"
            }
          ],
          "stateMutability": "view",
          "type": "function"
        },
        {
          "inputs": [
            {
              "internalType": "uint256",
              "name": "id",
              "type": "uint256"
            }
          ],
          "name": "isbn",
          "outputs": [
            {
              "internalType": "string",
              "name": "",
              "type": "string"
            }
          ],
          "stateMutability": "view",
          "type": "function"
        },
        {
          "inputs": [
            {
              "internalType": "string",
              "name": "isbn13",
              "type": "string"
            }
          ],
          "name": "mint",
          "outputs": [],
          "stateMutability": "nonpayable",
          "type": "function"
        },
        {
          "inputs": [
            {
              "internalType": "address",
              "name": "from",
              "type": "address"
            },
            {
              "internalType": "address",
              "name": "to",
              "type": "address"
            },
            {
              "internalType": "uint256[]",
              "name": "ids",
              "type": "uint256[]"
            },
            {
              "internalType": "uint256[]",
              "name": "values",
              "type": "uint256[]"
            },
            {
              "internalType": "bytes",
              "name": "data",
              "type": "bytes"
            }
          ],
          "name": "safeBatchTransferFrom",
          "outputs": [],
          "stateMutability": "nonpayable",
          "type": "function"
        },
        {
          "inputs": [
            {
              "internalType": "address",
              "name": "from",
              "type": "address"
            },
            {
              "internalType": "address",
              "name": "to",
              "type": "address"
            },
            {
              "internalType": "uint256",
              "name": "id",
              "type": "uint256"
            },
            {
              "internalType": "uint256",
              "name": "value",
              "type": "uint256"
            },
            {
              "internalType": "bytes",
              "name": "data",
              "type": "bytes"
            }
          ],
          "name": "safeTransferFrom",
          "outputs": [],
          "stateMutability": "nonpayable",
          "type": "function"
        },
        {
          "inputs": [
            {
              "internalType": "address",
              "name": "operator",
              "type": "address"
            },
            {
              "internalType": "bool",
              "name": "approved",
              "type": "bool"
            }
          ],
          "name": "setApprovalForAll",
          "outputs": [],
          "stateMutability": "nonpayable",
          "type": "function"
        },
        {
          "inputs": [
            {
              "internalType": "bytes4",
              "name": "interfaceId",
              "type": "bytes4"
            }
          ],
          "name": "supportsInterface",
          "outputs": [
            {
              "internalType": "bool",
              "name": "",
              "type": "bool"
            }
          ],
          "stateMutability": "view",
          "type": "function"
        },
        {
          "inputs": [
            {
              "internalType": "uint256",
              "name": "",
              "type": "uint256"
            }
          ],
          "name": "uri",
          "outputs": [
            {
              "internalType": "string",
              "name": "",
              "type": "string"
            }
          ],
          "stateMutability": "view",
          "type": "function"
        }
      ],
      "devdoc": {
        "errors": {
          "ERC1155InsufficientBalance(address,uint256,uint256,uint256)": [
            {
              "details": "Indicates an error related to the current `balance` of a `sender`. Used in transfers.",
              "params": {
                "balance": "Current balance for the interacting account.",
                "needed": "Minimum amount required to perform a transfer.",
                "sender": "Address whose tokens are being transferred.",
                "tokenId": "Identifier number of a token."
              }
            }
          ],
          "ERC1155InvalidApprover(address)": [
            {
              "details": "Indicates a failure with the `approver` of a token to be approved. Used in approvals.",
              "params": {
                "approver": "Address initiating an approval operation."
              }
            }
          ],
          "ERC1155InvalidArrayLength(uint256,uint256)": [
            {
              "details": "Indicates an array length mismatch between ids and values in a safeBatchTransferFrom operation. Used in batch transfers.",
              "params": {
                "idsLength": "Length of the array of token identifiers",
                "valuesLength": "Length of the array of token amounts"
              }
            }
          ],
          "ERC1155InvalidOperator(address)": [
            {
              "details": "Indicates a failure with the `operator` to be approved. Used in approvals.",
              "params": {
                "operator": "Address that may be allowed to operate on tokens without being their owner."
              }
            }
          ],
          "ERC1155InvalidReceiver(address)": [
            {
              "details": "Indicates a failure with the token `receiver`. Used in transfers.",
              "params": {
                "receiver": "Address to which tokens are being transferred."
              }
            }
          ],
          "ERC1155InvalidSender(address)": [
            {
              "details": "Indicates a failure with the token `sender`. Used in transfers.",
              "params": {
                "sender": "Address whose tokens are being transferred."
              }
            }
          ],
          "ERC1155MissingApprovalForAll(address,address)": [
            {
              "details": "Indicates a failure with the `operator`’s approval. Used in transfers.",
              "params": {
                "operator": "Address that may be allowed to operate on tokens without being their owner.",
                "owner": "Address of the current owner of a token."
              }
            }
          ]
        },
        "events": {
          "ApprovalForAll(address,address,bool)": {
            "details": "Emitted when `account` grants or revokes permission to `operator` to transfer their tokens, according to `approved`."
          },
          "TransferBatch(address,address,address,uint256[],uint256[])": {
            "details": "Equivalent to multiple {TransferSingle} events, where `operator`, `from` and `to` are the same for all transfers."
          },
          "TransferSingle(address,address,address,uint256,uint256)": {
            "details": "Emitted when `value` amount of tokens of type `id` are transferred from `from` to `to` by `operator`."
          },
          "URI(string,uint256)": {
            "details": "Emitted when the URI for token type `id` changes to `value`, if it is a non-programmatic URI. If an {URI} event was emitted for `id`, the standard https://eips.ethereum.org/EIPS/eip-1155#metadata-extensions[guarantees] that `value` will equal the value returned by {IERC1155MetadataURI-uri}."
          }
        },
        "kind": "dev",
        "methods": {
          "balanceOf(address,uint256)": {
            "details": "See {IERC1155-balanceOf}."
          },
          "balanceOfBatch(address[],uint256[])": {
            "details": "See {IERC1155-balanceOfBatch}. Requirements: - `accounts` and `ids` must have the same length."
          },
          "isApprovedForAll(address,address)": {
            "details": "See {IERC1155-isApprovedForAll}."
          },
          "safeBatchTransferFrom(address,address,uint256[],uint256[],bytes)": {
            "details": "See {IERC1155-safeBatchTransferFrom}."
          },
          "safeTransferFrom(address,address,uint256,uint256,bytes)": {
            "details": "See {IERC1155-safeTransferFrom}."
          },
          "setApprovalForAll(address,bool)": {
            "details": "See {IERC1155-setApprovalForAll}."
          },
          "supportsInterface(bytes4)": {
            "details": "See {IERC165-supportsInterface}."
          },
          "uri(uint256)": {
            "details": "See {IERC1155MetadataURI-uri}. This implementation returns the same URI for *all* token types. It relies on the token type ID substitution mechanism https://eips.ethereum.org/EIPS/eip-1155#metadata[defined in the EIP]. Clients calling this function must replace the `\\{id\\}` substring with the actual token type ID."
          }
        },
        "version": 1
      },
      "evm": {
        "bytecode": {
          "linkReferences": {},
          "object": "608060405260006003553480156200001657600080fd5b506040518060400160405280600681526020017f6e6f2d75726900000000000000000000000000000000000000000000000000008152506200005e816200006560201b60201c565b50620003db565b8060029081620000769190620002f4565b5050565b600081519050919050565b7f4e487b7100000000000000000000000000000000000000000000000000000000600052604160045260246000fd5b7f4e487b7100000000000000000000000000000000000000000000000000000000600052602260045260246000fd5b60006002820490506001821680620000fc57607f821691505b602082108103620001125762000111620000b4565b5b50919050565b60008190508160005260206000209050919050565b60006020601f8301049050919050565b600082821b905092915050565b6000600883026200017c7fffffffffffffffffffffffffffffffffffffffffffffffffffffffffffffffff826200013d565b6200018886836200013d565b95508019841693508086168417925050509392505050565b6000819050919050565b6000819050919050565b6000620001d5620001cf620001c984620001a0565b620001aa565b620001a0565b9050919050565b6000819050919050565b620001f183620001b4565b620002096200020082620001dc565b8484546200014a565b825550505050565b600090565b6200022062000211565b6200022d818484620001e6565b505050565b5b8181101562000255576200024960008262000216565b60018101905062000233565b5050565b601f821115620002a4576200026e8162000118565b62000279846200012d565b8101602085101562000289578190505b620002a162000298856200012d565b83018262000232565b50505b505050565b600082821c905092915050565b6000620002c960001984600802620002a9565b1980831691505092915050565b6000620002e48383620002b6565b9150826002028217905092915050565b620002ff826200007a565b67ffffffffffffffff8111156200031b576200031a62000085565b5b620003278254620000e3565b6200033482828562000259565b600060209050601f8311600181146200036c576000841562000357578287015190505b620003638582620002d6565b865550620003d3565b601f1984166200037c8662000118565b60005b82811015620003a6578489015182556001820191506020850194506020810190506200037f565b86831015620003c65784890151620003c2601f891682620002b6565b8355505b6001600288020188555050505b505050505050565b61252d80620003eb6000396000f3fe608060405234801561001057600080fd5b50600436106100a85760003560e01c80634f558e79116100715780634f558e7914610189578063a22cb465146101b9578063d85d3d27146101d5578063dde6747e146101f1578063e985e9c514610221578063f242432a14610251576100a8565b8062fdd58e146100ad57806301ffc9a7146100dd5780630e89341c1461010d5780632eb2c2d61461013d5780634e1273f414610159575b600080fd5b6100c760048036038101906100c291906115d6565b61026d565b6040516100d49190611625565b60405180910390f35b6100f760048036038101906100f29190611698565b6102c7565b60405161010491906116e0565b60405180910390f35b610127600480360381019061012291906116fb565b6103a9565b60405161013491906117b8565b60405180910390f35b610157600480360381019061015291906119d7565b61043d565b005b610173600480360381019061016e9190611b69565b6104e5565b6040516101809190611c9f565b60405180910390f35b6101a3600480360381019061019e91906116fb565b6105f4565b6040516101b091906116e0565b60405180910390f35b6101d360048036038101906101ce9190611ced565b61061e565b005b6101ef60048036038101906101ea9190611dce565b610634565b005b61020b600480360381019061020691906116fb565b6106af565b60405161021891906117b8565b60405180910390f35b61023b60048036038101906102369190611e17565b610754565b60405161024891906116e0565b60405180910390f35b61026b60048036038101906102669190611e57565b6107e8565b005b600080600083815260200190815260200160002060008473ffffffffffffffffffffffffffffffffffffffff1673ffffffffffffffffffffffffffffffffffffffff16815260200190815260200160002054905092915050565b60007fd9b67a26000000000000000000000000000000000000000000000000000000007bffffffffffffffffffffffffffffffffffffffffffffffffffffffff1916827bffffffffffffffffffffffffffffffffffffffffffffffffffffffff1916148061039257507f0e89341c000000000000000000000000000000000000000000000000000000007bffffffffffffffffffffffffffffffffffffffffffffffffffffffff1916827bffffffffffffffffffffffffffffffffffffffffffffffffffffffff1916145b806103a257506103a182610890565b5b9050919050565b6060600280546103b890611f1d565b80601f01602080910402602001604051908101604052809291908181526020018280546103e490611f1d565b80156104315780601f1061040657610100808354040283529160200191610431565b820191906000526020600020905b81548152906001019060200180831161041457829003601f168201915b50505050509050919050565b60006104476108fa565b90508073ffffffffffffffffffffffffffffffffffffffff168673ffffffffffffffffffffffffffffffffffffffff161415801561048c575061048a8682610754565b155b156104d05780866040517fe237d9220000000000000000000000000000000000000000000000000000000081526004016104c7929190611f5d565b60405180910390fd5b6104dd8686868686610902565b505050505050565b6060815183511461053157815183516040517f5b059991000000000000000000000000000000000000000000000000000000008152600401610528929190611f86565b60405180910390fd5b6000835167ffffffffffffffff81111561054e5761054d6117df565b5b60405190808252806020026020018201604052801561057c5781602001602082028036833780820191505090505b50905060005b84518110156105e9576105b96105a182876109fa90919063ffffffff16565b6105b48387610a0e90919063ffffffff16565b61026d565b8282815181106105cc576105cb611faf565b5b602002602001018181525050806105e29061200d565b9050610582565b508091505092915050565b60006004600083815260200190815260200160002060009054906101000a900460ff169050919050565b6106306106296108fa565b8383610a22565b5050565b8060056000600354815260200190815260200160002090816106569190612201565b50600160046000600354815260200190815260200160002060006101000a81548160ff02191690831515021790555061069433600354600184610b92565b600360008154809291906106a79061200d565b919050555050565b60606005600083815260200190815260200160002080546106cf90611f1d565b80601f01602080910402602001604051908101604052809291908181526020018280546106fb90611f1d565b80156107485780601f1061071d57610100808354040283529160200191610748565b820191906000526020600020905b81548152906001019060200180831161072b57829003601f168201915b50505050509050919050565b6000600160008473ffffffffffffffffffffffffffffffffffffffff1673ffffffffffffffffffffffffffffffffffffffff16815260200190815260200160002060008373ffffffffffffffffffffffffffffffffffffffff1673ffffffffffffffffffffffffffffffffffffffff16815260200190815260200160002060009054906101000a900460ff16905092915050565b60006107f26108fa565b90508073ffffffffffffffffffffffffffffffffffffffff168673ffffffffffffffffffffffffffffffffffffffff161415801561083757506108358682610754565b155b1561087b5780866040517fe237d922000000000000000000000000000000000000000000000000000000008152600401610872929190611f5d565b60405180910390fd5b6108888686868686610c2b565b505050505050565b60007f01ffc9a7000000000000000000000000000000000000000000000000000000007bffffffffffffffffffffffffffffffffffffffffffffffffffffffff1916827bffffffffffffffffffffffffffffffffffffffffffffffffffffffff1916149050919050565b600033905090565b600073ffffffffffffffffffffffffffffffffffffffff168473ffffffffffffffffffffffffffffffffffffffff16036109745760006040517f57f447ce00000000000000000000000000000000000000000000000000000000815260040161096b91906122d3565b60405180910390fd5b600073ffffffffffffffffffffffffffffffffffffffff168573ffffffffffffffffffffffffffffffffffffffff16036109e65760006040517f01a835140000000000000000000000000000000000000000000000000000000081526004016109dd91906122d3565b60405180910390fd5b6109f38585858585610d36565b5050505050565b600060208202602084010151905092915050565b600060208202602084010151905092915050565b600073ffffffffffffffffffffffffffffffffffffffff168273ffffffffffffffffffffffffffffffffffffffff1603610a945760006040517fced3e100000000000000000000000000000000000000000000000000000000008152600401610a8b91906122d3565b60405180910390fd5b80600160008573ffffffffffffffffffffffffffffffffffffffff1673ffffffffffffffffffffffffffffffffffffffff16815260200190815260200160002060008473ffffffffffffffffffffffffffffffffffffffff1673ffffffffffffffffffffffffffffffffffffffff16815260200190815260200160002060006101000a81548160ff0219169083151502179055508173ffffffffffffffffffffffffffffffffffffffff168373ffffffffffffffffffffffffffffffffffffffff167f17307eab39ab6107e8899845ad3d59bd9653f200f220920489ca2b5937696c3183604051610b8591906116e0565b60405180910390a3505050565b600073ffffffffffffffffffffffffffffffffffffffff168473ffffffffffffffffffffffffffffffffffffffff1603610c045760006040517f57f447ce000000000000000000000000000000000000000000000000000000008152600401610bfb91906122d3565b60405180910390fd5b600080610c118585610de8565b91509150610c23600087848487610d36565b505050505050565b600073ffffffffffffffffffffffffffffffffffffffff168473ffffffffffffffffffffffffffffffffffffffff1603610c9d5760006040517f57f447ce000000000000000000000000000000000000000000000000000000008152600401610c9491906122d3565b60405180910390fd5b600073ffffffffffffffffffffffffffffffffffffffff168573ffffffffffffffffffffffffffffffffffffffff1603610d0f5760006040517f01a83514000000000000000000000000000000000000000000000000000000008152600401610d0691906122d3565b60405180910390fd5b600080610d1c8585610de8565b91509150610d2d8787848487610d36565b50505050505050565b610d4285858585610e18565b600073ffffffffffffffffffffffffffffffffffffffff168473ffffffffffffffffffffffffffffffffffffffff1614610de1576000610d806108fa565b90506001845103610dd0576000610da1600086610a0e90919063ffffffff16565b90506000610db9600086610a0e90919063ffffffff16565b9050610dc98389898585896111c6565b5050610ddf565b610dde81878787878761137a565b5b505b5050505050565b60608060405191506001825283602083015260408201905060018152826020820152604081016040529250929050565b8051825114610e6257815181516040517f5b059991000000000000000000000000000000000000000000000000000000008152600401610e59929190611f86565b60405180910390fd5b6000610e6c6108fa565b905060005b8351811015611081576000610e8f8286610a0e90919063ffffffff16565b90506000610ea68386610a0e90919063ffffffff16565b9050600073ffffffffffffffffffffffffffffffffffffffff168873ffffffffffffffffffffffffffffffffffffffff1614610fd357600080600084815260200190815260200160002060008a73ffffffffffffffffffffffffffffffffffffffff1673ffffffffffffffffffffffffffffffffffffffff16815260200190815260200160002054905081811015610f7b57888183856040517f03dee4c5000000000000000000000000000000000000000000000000000000008152600401610f7294939291906122ee565b60405180910390fd5b81810360008085815260200190815260200160002060008b73ffffffffffffffffffffffffffffffffffffffff1673ffffffffffffffffffffffffffffffffffffffff16815260200190815260200160002081905550505b600073ffffffffffffffffffffffffffffffffffffffff168773ffffffffffffffffffffffffffffffffffffffff161461106e578060008084815260200190815260200160002060008973ffffffffffffffffffffffffffffffffffffffff1673ffffffffffffffffffffffffffffffffffffffff16815260200190815260200160002060008282546110669190612333565b925050819055505b50508061107a9061200d565b9050610e71565b5060018351036111405760006110a1600085610a0e90919063ffffffff16565b905060006110b9600085610a0e90919063ffffffff16565b90508573ffffffffffffffffffffffffffffffffffffffff168773ffffffffffffffffffffffffffffffffffffffff168473ffffffffffffffffffffffffffffffffffffffff167fc3d58168c5ae7397731d063d5bbf3d657854427343f4c083240f7aacaa2d0f628585604051611131929190611f86565b60405180910390a450506111bf565b8373ffffffffffffffffffffffffffffffffffffffff168573ffffffffffffffffffffffffffffffffffffffff168273ffffffffffffffffffffffffffffffffffffffff167f4a39dc06d4c0dbc64b70af90fd698a233a518aa5d07e595d983b8c0526c8f7fb86866040516111b6929190612367565b60405180910390a45b5050505050565b60008473ffffffffffffffffffffffffffffffffffffffff163b1115611372578373ffffffffffffffffffffffffffffffffffffffff1663f23a6e6187878686866040518663ffffffff1660e01b81526004016112279594939291906123f3565b6020604051808303816000875af192505050801561126357506040513d601f19601f820116820180604052508101906112609190612462565b60015b6112e7573d8060008114611293576040519150601f19603f3d011682016040523d82523d6000602084013e611298565b606091505b5060008151036112df57846040517f57f447ce0000000000000000000000000000000000000000000000000000000081526004016112d691906122d3565b60405180910390fd5b805181602001fd5b63f23a6e6160e01b7bffffffffffffffffffffffffffffffffffffffffffffffffffffffff1916817bffffffffffffffffffffffffffffffffffffffffffffffffffffffff19161461137057846040517f57f447ce00000000000000000000000000000000000000000000000000000000815260040161136791906122d3565b60405180910390fd5b505b505050505050565b60008473ffffffffffffffffffffffffffffffffffffffff163b1115611526578373ffffffffffffffffffffffffffffffffffffffff1663bc197c8187878686866040518663ffffffff1660e01b81526004016113db95949392919061248f565b6020604051808303816000875af192505050801561141757506040513d601f19601f820116820180604052508101906114149190612462565b60015b61149b573d8060008114611447576040519150601f19603f3d011682016040523d82523d6000602084013e61144c565b606091505b50600081510361149357846040517f57f447ce00000000000000000000000000000000000000000000000000000000815260040161148a91906122d3565b60405180910390fd5b805181602001fd5b63bc197c8160e01b7bffffffffffffffffffffffffffffffffffffffffffffffffffffffff1916817bffffffffffffffffffffffffffffffffffffffffffffffffffffffff19161461152457846040517f57f447ce00000000000000000000000000000000000000000000000000000000815260040161151b91906122d3565b60405180910390fd5b505b505050505050565b6000604051905090565b600080fd5b600080fd5b600073ffffffffffffffffffffffffffffffffffffffff82169050919050565b600061156d82611542565b9050919050565b61157d81611562565b811461158857600080fd5b50565b60008135905061159a81611574565b92915050565b6000819050919050565b6115b3816115a0565b81146115be57600080fd5b50565b6000813590506115d0816115aa565b92915050565b600080604083850312156115ed576115ec611538565b5b60006115fb8582860161158b565b925050602061160c858286016115c1565b9150509250929050565b61161f816115a0565b82525050565b600060208201905061163a6000830184611616565b92915050565b60007fffffffff0000000000000000000000000000000000000000000000000000000082169050919050565b61167581611640565b811461168057600080fd5b50565b6000813590506116928161166c565b92915050565b6000602082840312156116ae576116ad611538565b5b60006116bc84828501611683565b91505092915050565b60008115159050919050565b6116da816116c5565b82525050565b60006020820190506116f560008301846116d1565b92915050565b60006020828403121561171157611710611538565b5b600061171f848285016115c1565b91505092915050565b600081519050919050565b600082825260208201905092915050565b60005b83811015611762578082015181840152602081019050611747565b60008484015250505050565b6000601f19601f8301169050919050565b600061178a82611728565b6117948185611733565b93506117a4818560208601611744565b6117ad8161176e565b840191505092915050565b600060208201905081810360008301526117d2818461177f565b905092915050565b600080fd5b7f4e487b7100000000000000000000000000000000000000000000000000000000600052604160045260246000fd5b6118178261176e565b810181811067ffffffffffffffff82111715611836576118356117df565b5b80604052505050565b600061184961152e565b9050611855828261180e565b919050565b600067ffffffffffffffff821115611875576118746117df565b5b602082029050602081019050919050565b600080fd5b600061189e6118998461185a565b61183f565b905080838252602082019050602084028301858111156118c1576118c0611886565b5b835b818110156118ea57806118d688826115c1565b8452602084019350506020810190506118c3565b5050509392505050565b600082601f830112611909576119086117da565b5b813561191984826020860161188b565b91505092915050565b600080fd5b600067ffffffffffffffff821115611942576119416117df565b5b61194b8261176e565b9050602081019050919050565b82818337600083830152505050565b600061197a61197584611927565b61183f565b90508281526020810184848401111561199657611995611922565b5b6119a1848285611958565b509392505050565b600082601f8301126119be576119bd6117da565b5b81356119ce848260208601611967565b91505092915050565b600080600080600060a086880312156119f3576119f2611538565b5b6000611a018882890161158b565b9550506020611a128882890161158b565b945050604086013567ffffffffffffffff811115611a3357611a3261153d565b5b611a3f888289016118f4565b935050606086013567ffffffffffffffff811115611a6057611a5f61153d565b5b611a6c888289016118f4565b925050608086013567ffffffffffffffff811115611a8d57611a8c61153d565b5b611a99888289016119a9565b9150509295509295909350565b600067ffffffffffffffff821115611ac157611ac06117df565b5b602082029050602081019050919050565b6000611ae5611ae084611aa6565b61183f565b90508083825260208201905060208402830185811115611b0857611b07611886565b5b835b81811015611b315780611b1d888261158b565b845260208401935050602081019050611b0a565b5050509392505050565b600082601f830112611b5057611b4f6117da565b5b8135611b60848260208601611ad2565b91505092915050565b60008060408385031215611b8057611b7f611538565b5b600083013567ffffffffffffffff811115611b9e57611b9d61153d565b5b611baa85828601611b3b565b925050602083013567ffffffffffffffff811115611bcb57611bca61153d565b5b611bd7858286016118f4565b9150509250929050565b600081519050919050565b600082825260208201905092915050565b6000819050602082019050919050565b611c16816115a0565b82525050565b6000611c288383611c0d565b60208301905092915050565b6000602082019050919050565b6000611c4c82611be1565b611c568185611bec565b9350611c6183611bfd565b8060005b83811015611c92578151611c798882611c1c565b9750611c8483611c34565b925050600181019050611c65565b5085935050505092915050565b60006020820190508181036000830152611cb98184611c41565b905092915050565b611cca816116c5565b8114611cd557600080fd5b50565b600081359050611ce781611cc1565b92915050565b60008060408385031215611d0457611d03611538565b5b6000611d128582860161158b565b9250506020611d2385828601611cd8565b9150509250929050565b600067ffffffffffffffff821115611d4857611d476117df565b5b611d518261176e565b9050602081019050919050565b6000611d71611d6c84611d2d565b61183f565b905082815260208101848484011115611d8d57611d8c611922565b5b611d98848285611958565b509392505050565b600082601f830112611db557611db46117da565b5b8135611dc5848260208601611d5e565b91505092915050565b600060208284031215611de457611de3611538565b5b600082013567ffffffffffffffff811115611e0257611e0161153d565b5b611e0e84828501611da0565b91505092915050565b60008060408385031215611e2e57611e2d611538565b5b6000611e3c8582860161158b565b9250506020611e4d8582860161158b565b9150509250929050565b600080600080600060a08688031215611e7357611e72611538565b5b6000611e818882890161158b565b9550506020611e928882890161158b565b9450506040611ea3888289016115c1565b9350506060611eb4888289016115c1565b925050608086013567ffffffffffffffff811115611ed557611ed461153d565b5b611ee1888289016119a9565b9150509295509295909350565b7f4e487b7100000000000000000000000000000000000000000000000000000000600052602260045260246000fd5b60006002820490506001821680611f3557607f821691505b602082108103611f4857611f47611eee565b5b50919050565b611f5781611562565b82525050565b6000604082019050611f726000830185611f4e565b611f7f6020830184611f4e565b9392505050565b6000604082019050611f9b6000830185611616565b611fa86020830184611616565b9392505050565b7f4e487b7100000000000000000000000000000000000000000000000000000000600052603260045260246000fd5b7f4e487b7100000000000000000000000000000000000000000000000000000000600052601160045260246000fd5b6000612018826115a0565b91507fffffffffffffffffffffffffffffffffffffffffffffffffffffffffffffffff820361204a57612049611fde565b5b600182019050919050565b60008190508160005260206000209050919050565b60006020601f8301049050919050565b600082821b905092915050565b6000600883026120b77fffffffffffffffffffffffffffffffffffffffffffffffffffffffffffffffff8261207a565b6120c1868361207a565b95508019841693508086168417925050509392505050565b6000819050919050565b60006120fe6120f96120f4846115a0565b6120d9565b6115a0565b9050919050565b6000819050919050565b612118836120e3565b61212c61212482612105565b848454612087565b825550505050565b600090565b612141612134565b61214c81848461210f565b505050565b5b8181101561217057612165600082612139565b600181019050612152565b5050565b601f8211156121b55761218681612055565b61218f8461206a565b8101602085101561219e578190505b6121b26121aa8561206a565b830182612151565b50505b505050565b600082821c905092915050565b60006121d8600019846008026121ba565b1980831691505092915050565b60006121f183836121c7565b9150826002028217905092915050565b61220a82611728565b67ffffffffffffffff811115612223576122226117df565b5b61222d8254611f1d565b612238828285612174565b600060209050601f83116001811461226b5760008415612259578287015190505b61226385826121e5565b8655506122cb565b601f19841661227986612055565b60005b828110156122a15784890151825560018201915060208501945060208101905061227c565b868310156122be57848901516122ba601f8916826121c7565b8355505b6001600288020188555050505b505050505050565b60006020820190506122e86000830184611f4e565b92915050565b60006080820190506123036000830187611f4e565b6123106020830186611616565b61231d6040830185611616565b61232a6060830184611616565b95945050505050565b600061233e826115a0565b9150612349836115a0565b925082820190508082111561236157612360611fde565b5b92915050565b600060408201905081810360008301526123818185611c41565b905081810360208301526123958184611c41565b90509392505050565b600081519050919050565b600082825260208201905092915050565b60006123c58261239e565b6123cf81856123a9565b93506123df818560208601611744565b6123e88161176e565b840191505092915050565b600060a0820190506124086000830188611f4e565b6124156020830187611f4e565b6124226040830186611616565b61242f6060830185611616565b818103608083015261244181846123ba565b90509695505050505050565b60008151905061245c8161166c565b92915050565b60006020828403121561247857612477611538565b5b60006124868482850161244d565b91505092915050565b600060a0820190506124a46000830188611f4e565b6124b16020830187611f4e565b81810360408301526124c38186611c41565b905081810360608301526124d78185611c41565b905081810360808301526124eb81846123ba565b9050969550505050505056fea2646970667358221220aa00175ccfe6c2bf8fb959f15addb84602e990d2ee303bce135ef1faca916f9364736f6c63430008140033",
          "opcodes": "PUSH1 0x80 PUSH1 0x40 MSTORE PUSH1 0x0 PUSH1 0x3 SSTORE CALLVALUE DUP1 ISZERO PUSH3 0x16 JUMPI PUSH1 0x0 DUP1 REVERT JUMPDEST POP PUSH1 0x40 MLOAD DUP1 PUSH1 0x40 ADD PUSH1 0x40 MSTORE DUP1 PUSH1 0x6 DUP2 MSTORE PUSH1 0x20 ADD PUSH32 0x6E6F2D7572690000000000000000000000000000000000000000000000000000 DUP2 MSTORE POP PUSH3 0x5E DUP2 PUSH3 0x65 PUSH1 0x20 SHL PUSH1 0x20 SHR JUMP JUMPDEST POP PUSH3 0x3DB JUMP JUMPDEST DUP1 PUSH1 0x2 SWAP1 DUP2 PUSH3 0x76 SWAP2 SWAP1 PUSH3 0x2F4 JUMP JUMPDEST POP POP JUMP JUMPDEST PUSH1 0x0 DUP2 MLOAD SWAP1 POP SWAP2 SWAP1 POP JUMP JUMPDEST PUSH32 0x4E487B7100000000000000000000000000000000000000000000000000000000 PUSH1 0x0 MSTORE PUSH1 0x41 PUSH1 0x4 MSTORE PUSH1 0x24 PUSH1 0x0 REVERT JUMPDEST PUSH32 0x4E487B7100000000000000000000000000000000000000000000000000000000 PUSH1 0x0 MSTORE PUSH1 0x22 PUSH1 0x4 MSTORE PUSH1 0x24 PUSH1 0x0 REVERT JUMPDEST PUSH1 0x0 PUSH1 0x2 DUP3 DIV SWAP1 POP PUSH1 0x1 DUP3 AND DUP1 PUSH3 0xFC JUMPI PUSH1 0x7F DUP3 AND SWAP2 POP JUMPDEST PUSH1 0x20 DUP3 LT DUP2 SUB PUSH3 0x112 JUMPI PUSH3 0x111 PUSH3 0xB4 JUMP JUMPDEST JUMPDEST POP SWAP2 SWAP1 POP JUMP JUMPDEST PUSH1 0x0 DUP2 SWAP1 POP DUP2 PUSH1 0x0 MSTORE PUSH1 0x20 PUSH1 0x0 KECCAK256 SWAP1 POP SWAP2 SWAP1 POP JUMP JUMPDEST PUSH1 0x0 PUSH1 0x20 PUSH1 0x1F DUP4 ADD DIV SWAP1 POP SWAP2 SWAP1 POP JUMP JUMPDEST PUSH1 0x0 DUP3 DUP3 SHL SWAP1 POP SWAP3 SWAP2 POP POP JUMP JUMPDEST PUSH1 0x0 PUSH1 0x8 DUP4 MUL PUSH3 0x17C PUSH32 0xFFFFFFFFFFFFFFFFFFFFFFFFFFFFFFFFFFFFFFFFFFFFFFFFFFFFFFFFFFFFFFFF DUP3 PUSH3 0x13D JUMP JUMPDEST PUSH3 0x188 DUP7 DUP4 PUSH3 0x13D JUMP JUMPDEST SWAP6 POP DUP1 NOT DUP5 AND SWAP4 POP DUP1 DUP7 AND DUP5 OR SWAP3 POP POP POP SWAP4 SWAP3 POP POP POP JUMP JUMPDEST PUSH1 0x0 DUP2 SWAP1 POP SWAP2 SWAP1 POP JUMP JUMPDEST PUSH1 0x0 DUP2 SWAP1 POP SWAP2 SWAP1 POP JUMP JUMPDEST PUSH1 0x0 PUSH3 0x1D5 PUSH3 0x1CF PUSH3 0x1C9 DUP5 PUSH3 0x1A0 JUMP JUMPDEST PUSH3 0x1AA JUMP JUMPDEST PUSH3 0x1A0 JUMP JUMPDEST SWAP1 POP SWAP2 SWAP1 POP JUMP JUMPDEST PUSH1 0x0 DUP2 SWAP1 POP SWAP2 SWAP1 POP JUMP JUMPDEST PUSH3 0x1F1 DUP4 PUSH3 0x1B4 JUMP JUMPDEST PUSH3 0x209 PUSH3 0x200 DUP3 PUSH3 0x1DC JUMP JUMPDEST DUP5 DUP5 SLOAD PUSH3 0x14A JUMP JUMPDEST DUP3 SSTORE POP POP POP POP JUMP JUMPDEST PUSH1 0x0 SWAP1 JUMP JUMPDEST PUSH3 0x220 PUSH3 0x211 JUMP JUMPDEST PUSH3 0x22D DUP2 DUP5 DUP5 PUSH3 0x1E6 JUMP JUMPDEST POP POP POP JUMP JUMPDEST JUMPDEST DUP2 DUP2 LT ISZERO PUSH3 0x255 JUMPI PUSH3 0x249 PUSH1 0x0 DUP3 PUSH3 0x216 JUMP JUMPDEST PUSH1 0x1 DUP2 ADD SWAP1 POP PUSH3 0x233 JUMP JUMPDEST POP POP JUMP JUMPDEST PUSH1 0x1F DUP3 GT ISZERO PUSH3 0x2A4 JUMPI PUSH3 0x26E DUP2 PUSH3 0x118 JUMP JUMPDEST PUSH3 0x279 DUP5 PUSH3 0x12D JUMP JUMPDEST DUP2 ADD PUSH1 0x20 DUP6 LT ISZERO PUSH3 0x289 JUMPI DUP2 SWAP1 POP JUMPDEST PUSH3 0x2A1 PUSH3 0x298 DUP6 PUSH3 0x12D JUMP JUMPDEST DUP4 ADD DUP3 PUSH3 0x232 JUMP JUMPDEST POP POP JUMPDEST POP POP POP JUMP JUMPDEST PUSH1 0x0 DUP3 DUP3 SHR SWAP1 POP SWAP3 SWAP2 POP POP JUMP JUMPDEST PUSH1 0x0 PUSH3 0x2C9 PUSH1 0x0 NOT DUP5 PUSH1 0x8 MUL PUSH3 0x2A9 JUMP JUMPDEST NOT DUP1 DUP4 AND SWAP2 POP POP SWAP3 SWAP2 POP POP JUMP JUMPDEST PUSH1 0x0 PUSH3 0x2E4 DUP4 DUP4 PUSH3 0x2B6 JUMP JUMPDEST SWAP2 POP DUP3 PUSH1 0x2 MUL DUP3 OR SWAP1 POP SWAP3 SWAP2 POP POP JUMP JUMPDEST PUSH3 0x2FF DUP3 PUSH3 0x7A JUMP JUMPDEST PUSH8 0xFFFFFFFFFFFFFFFF DUP2 GT ISZERO PUSH3 0x31B JUMPI PUSH3 0x31A PUSH3 0x85 JUMP JUMPDEST JUMPDEST PUSH3 0x327 DUP3 SLOAD PUSH3 0xE3 JUMP JUMPDEST PUSH3 0x334 DUP3 DUP3 DUP6 PUSH3 0x259 JUMP JUMPDEST PUSH1 0x0 PUSH1 0x20 SWAP1 POP PUSH1 0x1F DUP4 GT PUSH1 0x1 DUP2 EQ PUSH3 0x36C JUMPI PUSH1 0x0 DUP5 ISZERO PUSH3 0x357 JUMPI DUP3 DUP8 ADD MLOAD SWAP1 POP JUMPDEST PUSH3 0x363 DUP6 DUP3 PUSH3 0x2D6 JUMP JUMPDEST DUP7 SSTORE POP PUSH3 0x3D3 JUMP JUMPDEST PUSH1 0x1F NOT DUP5 AND PUSH3 0x37C DUP7 PUSH3 0x118 JUMP JUMPDEST PUSH1 0x0 JUMPDEST DUP3 DUP2 LT ISZERO PUSH3 0x3A6 JUMPI DUP5 DUP10 ADD MLOAD DUP3 SSTORE PUSH1 0x1 DUP3 ADD SWAP2 POP PUSH1 0x20 DUP6 ADD SWAP5 POP PUSH1 0x20 DUP2 ADD SWAP1 POP PUSH3 0x37F JUMP JUMPDEST DUP7 DUP4 LT ISZERO PUSH3 0x3C6 JUMPI DUP5 DUP10 ADD MLOAD PUSH3 0x3C2 PUSH1 0x1F DUP10 AND DUP3 PUSH3 0x2B6 JUMP JUMPDEST DUP4 SSTORE POP JUMPDEST PUSH1 0x1 PUSH1 0x2 DUP9 MUL ADD DUP9 SSTORE POP POP POP JUMPDEST POP POP POP POP POP POP JUMP JUMPDEST PUSH2 0x252D DUP1 PUSH3 0x3EB PUSH1 0x0 CODECOPY PUSH1 0x0 RETURN INVALID PUSH1 0x80 PUSH1 0x40 MSTORE CALLVALUE DUP1 ISZERO PUSH2 0x10 JUMPI PUSH1 0x0 DUP1 REVERT JUMPDEST POP PUSH1 0x4 CALLDATASIZE LT PUSH2 0xA8 JUMPI PUSH1 0x0 CALLDATALOAD PUSH1 0xE0 SHR DUP1 PUSH4 0x4F558E79 GT PUSH2 0x71 JUMPI DUP1 PUSH4 0x4F558E79 EQ PUSH2 0x189 JUMPI DUP1 PUSH4 0xA22CB465 EQ PUSH2 0x1B9 JUMPI DUP1 PUSH4 0xD85D3D27 EQ PUSH2 0x1D5 JUMPI DUP1 PUSH4 0xDDE6747E EQ PUSH2 0x1F1 JUMPI DUP1 PUSH4 0xE985E9C5 EQ PUSH2 0x221 JUMPI DUP1 PUSH4 0xF242432A EQ PUSH2 0x251 JUMPI PUSH2 0xA8 JUMP JUMPDEST DUP1 PUSH3 0xFDD58E EQ PUSH2 0xAD JUMPI DUP1 PUSH4 0x1FFC9A7 EQ PUSH2 0xDD JUMPI DUP1 PUSH4 0xE89341C EQ PUSH2 0x10D JUMPI DUP1 PUSH4 0x2EB2C2D6 EQ PUSH2 0x13D JUMPI DUP1 PUSH4 0x4E1273F4 EQ PUSH2 0x159 JUMPI JUMPDEST PUSH1 0x0 DUP1 REVERT JUMPDEST PUSH2 0xC7 PUSH1 0x4 DUP1 CALLDATASIZE SUB DUP2 ADD SWAP1 PUSH2 0xC2 SWAP2 SWAP1 PUSH2 0x15D6 JUMP JUMPDEST PUSH2 0x26D JUMP JUMPDEST PUSH1 0x40 MLOAD PUSH2 0xD4 SWAP2 SWAP1 PUSH2 0x1625 JUMP JUMPDEST PUSH1 0x40 MLOAD DUP1 SWAP2 SUB SWAP1 RETURN JUMPDEST PUSH2 0xF7 PUSH1 0x4 DUP1 CALLDATASIZE SUB DUP2 ADD SWAP1 PUSH2 0xF2 SWAP2 SWAP1 PUSH2 0x1698 JUMP JUMPDEST PUSH2 0x2C7 JUMP JUMPDEST PUSH1 0x40 MLOAD PUSH2 0x104 SWAP2 SWAP1 PUSH2 0x16E0 JUMP JUMPDEST PUSH1 0x40 MLOAD DUP1 SWAP2 SUB SWAP1 RETURN JUMPDEST PUSH2 0x127 PUSH1 0x4 DUP1 CALLDATASIZE SUB DUP2 ADD SWAP1 PUSH2 0x122 SWAP2 SWAP1 PUSH2 0x16FB JUMP JUMPDEST PUSH2 0x3A9 JUMP JUMPDEST PUSH1 0x40 MLOAD PUSH2 0x134 SWAP2 SWAP1 PUSH2 0x17B8 JUMP JUMPDEST PUSH1 0x40 MLOAD DUP1 SWAP2 SUB SWAP1 RETURN JUMPDEST PUSH2 0x157 PUSH1 0x4 DUP1 CALLDATASIZE SUB DUP2 ADD SWAP1 PUSH2 0x152 SWAP2 SWAP1 PUSH2 0x19D7 JUMP JUMPDEST PUSH2 0x43D JUMP JUMPDEST STOP JUMPDEST PUSH2 0x173 PUSH1 0x4 DUP1 CALLDATASIZE SUB DUP2 ADD SWAP1 PUSH2 0x16E SWAP2 SWAP1 PUSH2 0x1B69 JUMP JUMPDEST PUSH2 0x4E5 JUMP JUMPDEST PUSH1 0x40 MLOAD PUSH2 0x180 SWAP2 SWAP1 PUSH2 0x1C9F JUMP JUMPDEST PUSH1 0x40 MLOAD DUP1 SWAP2 SUB SWAP1 RETURN JUMPDEST PUSH2 0x1A3 PUSH1 0x4 DUP1 CALLDATASIZE SUB DUP2 ADD SWAP1 PUSH2 0x19E SWAP2 SWAP1 PUSH2 0x16FB JUMP JUMPDEST PUSH2 0x5F4 JUMP JUMPDEST PUSH1 0x40 MLOAD PUSH2 0x1B0 SWAP2 SWAP1 PUSH2 0x16E0 JUMP JUMPDEST PUSH1 0x40 MLOAD DUP1 SWAP2 SUB SWAP1 RETURN JUMPDEST PUSH2 0x1D3 PUSH1 0x4 DUP1 CALLDATASIZE SUB DUP2 ADD SWAP1 PUSH2 0x1CE SWAP2 SWAP1 PUSH2 0x1CED JUMP JUMPDEST PUSH2 0x61E JUMP JUMPDEST STOP JUMPDEST PUSH2 0x1EF PUSH1 0x4 DUP1 CALLDATASIZE SUB DUP2 ADD SWAP1 PUSH2 0x1EA SWAP2 SWAP1 PUSH2 0x1DCE JUMP JUMPDEST PUSH2 0x634 JUMP JUMPDEST STOP JUMPDEST PUSH2 0x20B PUSH1 0x4 DUP1 CALLDATASIZE SUB DUP2 ADD SWAP1 PUSH2 0x206 SWAP2 SWAP1 PUSH2 0x16FB JUMP JUMPDEST PUSH2 0x6AF JUMP JUMPDEST PUSH1 0x40 MLOAD PUSH2 0x218 SWAP2 SWAP1 PUSH2 0x17B8 JUMP JUMPDEST PUSH1 0x40 MLOAD DUP1 SWAP2 SUB SWAP1 RETURN JUMPDEST PUSH2 0x23B PUSH1 0x4 DUP1 CALLDATASIZE SUB DUP2 ADD SWAP1 PUSH2 0x236 SWAP2 SWAP1 PUSH2 0x1E17 JUMP JUMPDEST PUSH2 0x754 JUMP JUMPDEST PUSH1 0x40 MLOAD PUSH2 0x248 SWAP2 SWAP1 PUSH2 0x16E0 JUMP JUMPDEST PUSH1 0x40 MLOAD DUP1 SWAP2 SUB SWAP1 RETURN JUMPDEST PUSH2 0x26B PUSH1 0x4 DUP1 CALLDATASIZE SUB DUP2 ADD SWAP1 PUSH2 0x266 SWAP2 SWAP1 PUSH2 0x1E57 JUMP JUMPDEST PUSH2 0x7E8 JUMP JUMPDEST STOP JUMPDEST PUSH1 0x0 DUP1 PUSH1 0x0 DUP4 DUP2 MSTORE PUSH1 0x20 ADD SWAP1 DUP2 MSTORE PUSH1 0x20 ADD PUSH1 0x0 KECCAK256 PUSH1 0x0 DUP5 PUSH20 0xFFFFFFFFFFFFFFFFFFFFFFFFFFFFFFFFFFFFFFFF AND PUSH20 0xFFFFFFFFFFFFFFFFFFFFFFFFFFFFFFFFFFFFFFFF AND DUP2 MSTORE PUSH1 0x20 ADD SWAP1 DUP2 MSTORE PUSH1 0x20 ADD PUSH1 0x0 KECCAK256 SLOAD SWAP1 POP SWAP3 SWAP2 POP POP JUMP JUMPDEST PUSH1 0x0 PUSH32 0xD9B67A2600000000000000000000000000000000000000000000000000000000 PUSH28 0xFFFFFFFFFFFFFFFFFFFFFFFFFFFFFFFFFFFFFFFFFFFFFFFFFFFFFFFF NOT AND DUP3 PUSH28 0xFFFFFFFFFFFFFFFFFFFFFFFFFFFFFFFFFFFFFFFFFFFFFFFFFFFFFFFF NOT AND EQ DUP1 PUSH2 0x392 JUMPI POP PUSH32 0xE89341C00000000000000000000000000000000000000000000000000000000 PUSH28 0xFFFFFFFFFFFFFFFFFFFFFFFFFFFFFFFFFFFFFFFFFFFFFFFFFFFFFFFF NOT AND DUP3 PUSH28 0xFFFFFFFFFFFFFFFFFFFFFFFFFFFFFFFFFFFFFFFFFFFFFFFFFFFFFFFF NOT AND EQ JUMPDEST DUP1 PUSH2 0x3A2 JUMPI POP PUSH2 0x3A1 DUP3 PUSH2 0x890 JUMP JUMPDEST JUMPDEST SWAP1 POP SWAP2 SWAP1 POP JUMP JUMPDEST PUSH1 0x60 PUSH1 0x2 DUP1 SLOAD PUSH2 0x3B8 SWAP1 PUSH2 0x1F1D JUMP JUMPDEST DUP1 PUSH1 0x1F ADD PUSH1 0x20 DUP1 SWAP2 DIV MUL PUSH1 0x20 ADD PUSH1 0x40 MLOAD SWAP1 DUP2 ADD PUSH1 0x40 MSTORE DUP1 SWAP3 SWAP2 SWAP1 DUP2 DUP2 MSTORE PUSH1 0x20 ADD DUP3 DUP1 SLOAD PUSH2 0x3E4 SWAP1 PUSH2 0x1F1D JUMP JUMPDEST DUP1 ISZERO PUSH2 0x431 JUMPI DUP1 PUSH1 0x1F LT PUSH2 0x406 JUMPI PUSH2 0x100 DUP1 DUP4 SLOAD DIV MUL DUP4 MSTORE SWAP2 PUSH1 0x20 ADD SWAP2 PUSH2 0x431 JUMP JUMPDEST DUP3 ADD SWAP2 SWAP1 PUSH1 0x0 MSTORE PUSH1 0x20 PUSH1 0x0 KECCAK256 SWAP1 JUMPDEST DUP2 SLOAD DUP2 MSTORE SWAP1 PUSH1 0x1 ADD SWAP1 PUSH1 0x20 ADD DUP1 DUP4 GT PUSH2 0x414 JUMPI DUP3 SWAP1 SUB PUSH1 0x1F AND DUP3 ADD SWAP2 JUMPDEST POP POP POP POP POP SWAP1 POP SWAP2 SWAP1 POP JUMP JUMPDEST PUSH1 0x0 PUSH2 0x447 PUSH2 0x8FA JUMP JUMPDEST SWAP1 POP DUP1 PUSH20 0xFFFFFFFFFFFFFFFFFFFFFFFFFFFFFFFFFFFFFFFF AND DUP7 PUSH20 0xFFFFFFFFFFFFFFFFFFFFFFFFFFFFFFFFFFFFFFFF AND EQ ISZERO DUP1 ISZERO PUSH2 0x48C JUMPI POP PUSH2 0x48A DUP7 DUP3 PUSH2 0x754 JUMP JUMPDEST ISZERO JUMPDEST ISZERO PUSH2 0x4D0 JUMPI DUP1 DUP7 PUSH1 0x40 MLOAD PUSH32 0xE237D92200000000000000000000000000000000000000000000000000000000 DUP2 MSTORE PUSH1 0x4 ADD PUSH2 0x4C7 SWAP3 SWAP2 SWAP1 PUSH2 0x1F5D JUMP JUMPDEST PUSH1 0x40 MLOAD DUP1 SWAP2 SUB SWAP1 REVERT JUMPDEST PUSH2 0x4DD DUP7 DUP7 DUP7 DUP7 DUP7 PUSH2 0x902 JUMP JUMPDEST POP POP POP POP POP POP JUMP JUMPDEST PUSH1 0x60 DUP2 MLOAD DUP4 MLOAD EQ PUSH2 0x531 JUMPI DUP2 MLOAD DUP4 MLOAD PUSH1 0x40 MLOAD PUSH32 0x5B05999100000000000000000000000000000000000000000000000000000000 DUP2 MSTORE PUSH1 0x4 ADD PUSH2 0x528 SWAP3 SWAP2 SWAP1 PUSH2 0x1F86 JUMP JUMPDEST PUSH1 0x40 MLOAD DUP1 SWAP2 SUB SWAP1 REVERT JUMPDEST PUSH1 0x0 DUP4 MLOAD PUSH8 0xFFFFFFFFFFFFFFFF DUP2 GT ISZERO PUSH2 0x54E JUMPI PUSH2 0x54D PUSH2 0x17DF JUMP JUMPDEST JUMPDEST PUSH1 0x40 MLOAD SWAP1 DUP1 DUP3 MSTORE DUP1 PUSH1 0x20 MUL PUSH1 0x20 ADD DUP3 ADD PUSH1 0x40 MSTORE DUP1 ISZERO PUSH2 0x57C JUMPI DUP2 PUSH1 0x20 ADD PUSH1 0x20 DUP3 MUL DUP1 CALLDATASIZE DUP4 CALLDATACOPY DUP1 DUP3 ADD SWAP2 POP POP SWAP1 POP JUMPDEST POP SWAP1 POP PUSH1 0x0 JUMPDEST DUP5 MLOAD DUP2 LT ISZERO PUSH2 0x5E9 JUMPI PUSH2 0x5B9 PUSH2 0x5A1 DUP3 DUP8 PUSH2 0x9FA SWAP1 SWAP2 SWAP1 PUSH4 0xFFFFFFFF AND JUMP JUMPDEST PUSH2 0x5B4 DUP4 DUP8 PUSH2 0xA0E SWAP1 SWAP2 SWAP1 PUSH4 0xFFFFFFFF AND JUMP JUMPDEST PUSH2 0x26D JUMP JUMPDEST DUP3 DUP3 DUP2 MLOAD DUP2 LT PUSH2 0x5CC JUMPI PUSH2 0x5CB PUSH2 0x1FAF JUMP JUMPDEST JUMPDEST PUSH1 0x20 MUL PUSH1 0x20 ADD ADD DUP2 DUP2 MSTORE POP POP DUP1 PUSH2 0x5E2 SWAP1 PUSH2 0x200D JUMP JUMPDEST SWAP1 POP PUSH2 0x582 JUMP JUMPDEST POP DUP1 SWAP2 POP POP SWAP3 SWAP2 POP POP JUMP JUMPDEST PUSH1 0x0 PUSH1 0x4 PUSH1 0x0 DUP4 DUP2 MSTORE PUSH1 0x20 ADD SWAP1 DUP2 MSTORE PUSH1 0x20 ADD PUSH1 0x0 KECCAK256 PUSH1 0x0 SWAP1 SLOAD SWAP1 PUSH2 0x100 EXP SWAP1 DIV PUSH1 0xFF AND SWAP1 POP SWAP2 SWAP1 POP JUMP JUMPDEST PUSH2 0x630 PUSH2 0x629 PUSH2 0x8FA JUMP JUMPDEST DUP4 DUP4 PUSH2 0xA22 JUMP JUMPDEST POP POP JUMP JUMPDEST DUP1 PUSH1 0x5 PUSH1 0x0 PUSH1 0x3 SLOAD DUP2 MSTORE PUSH1 0x20 ADD SWAP1 DUP2 MSTORE PUSH1 0x20 ADD PUSH1 0x0 KECCAK256 SWAP1 DUP2 PUSH2 0x656 SWAP2 SWAP1 PUSH2 0x2201 JUMP JUMPDEST POP PUSH1 0x1 PUSH1 0x4 PUSH1 0x0 PUSH1 0x3 SLOAD DUP2 MSTORE PUSH1 0x20 ADD SWAP1 DUP2 MSTORE PUSH1 0x20 ADD PUSH1 0x0 KECCAK256 PUSH1 0x0 PUSH2 0x100 EXP DUP2 SLOAD DUP2 PUSH1 0xFF MUL NOT AND SWAP1 DUP4 ISZERO ISZERO MUL OR SWAP1 SSTORE POP PUSH2 0x694 CALLER PUSH1 0x3 SLOAD PUSH1 0x1 DUP5 PUSH2 0xB92 JUMP JUMPDEST PUSH1 0x3 PUSH1 0x0 DUP2 SLOAD DUP1 SWAP3 SWAP2 SWAP1 PUSH2 0x6A7 SWAP1 PUSH2 0x200D JUMP JUMPDEST SWAP2 SWAP1 POP SSTORE POP POP JUMP JUMPDEST PUSH1 0x60 PUSH1 0x5 PUSH1 0x0 DUP4 DUP2 MSTORE PUSH1 0x20 ADD SWAP1 DUP2 MSTORE PUSH1 0x20 ADD PUSH1 0x0 KECCAK256 DUP1 SLOAD PUSH2 0x6CF SWAP1 PUSH2 0x1F1D JUMP JUMPDEST DUP1 PUSH1 0x1F ADD PUSH1 0x20 DUP1 SWAP2 DIV MUL PUSH1 0x20 ADD PUSH1 0x40 MLOAD SWAP1 DUP2 ADD PUSH1 0x40 MSTORE DUP1 SWAP3 SWAP2 SWAP1 DUP2 DUP2 MSTORE PUSH1 0x20 ADD DUP3 DUP1 SLOAD PUSH2 0x6FB SWAP1 PUSH2 0x1F1D JUMP JUMPDEST DUP1 ISZERO PUSH2 0x748 JUMPI DUP1 PUSH1 0x1F LT PUSH2 0x71D JUMPI PUSH2 0x100 DUP1 DUP4 SLOAD DIV MUL DUP4 MSTORE SWAP2 PUSH1 0x20 ADD SWAP2 PUSH2 0x748 JUMP JUMPDEST DUP3 ADD SWAP2 SWAP1 PUSH1 0x0 MSTORE PUSH1 0x20 PUSH1 0x0 KECCAK256 SWAP1 JUMPDEST DUP2 SLOAD DUP2 MSTORE SWAP1 PUSH1 0x1 ADD SWAP1 PUSH1 0x20 ADD DUP1 DUP4 GT PUSH2 0x72B JUMPI DUP3 SWAP1 SUB PUSH1 0x1F AND DUP3 ADD SWAP2 JUMPDEST POP POP POP POP POP SWAP1 POP SWAP2 SWAP1 POP JUMP JUMPDEST PUSH1 0x0 PUSH1 0x1 PUSH1 0x0 DUP5 PUSH20 0xFFFFFFFFFFFFFFFFFFFFFFFFFFFFFFFFFFFFFFFF AND PUSH20 0xFFFFFFFFFFFFFFFFFFFFFFFFFFFFFFFFFFFFFFFF AND DUP2 MSTORE PUSH1 0x20 ADD SWAP1 DUP2 MSTORE PUSH1 0x20 ADD PUSH1 0x0 KECCAK256 PUSH1 0x0 DUP4 PUSH20 0xFFFFFFFFFFFFFFFFFFFFFFFFFFFFFFFFFFFFFFFF AND PUSH20 0xFFFFFFFFFFFFFFFFFFFFFFFFFFFFFFFFFFFFFFFF AND DUP2 MSTORE PUSH1 0x20 ADD SWAP1 DUP2 MSTORE PUSH1 0x20 ADD PUSH1 0x0 KECCAK256 PUSH1 0x0 SWAP1 SLOAD SWAP1 PUSH2 0x100 EXP SWAP1 DIV PUSH1 0xFF AND SWAP1 POP SWAP3 SWAP2 POP POP JUMP JUMPDEST PUSH1 0x0 PUSH2 0x7F2 PUSH2 0x8FA JUMP JUMPDEST SWAP1 POP DUP1 PUSH20 0xFFFFFFFFFFFFFFFFFFFFFFFFFFFFFFFFFFFFFFFF AND DUP7 PUSH20 0xFFFFFFFFFFFFFFFFFFFFFFFFFFFFFFFFFFFFFFFF AND EQ ISZERO DUP1 ISZERO PUSH2 0x837 JUMPI POP PUSH2 0x835 DUP7 DUP3 PUSH2 0x754 JUMP JUMPDEST ISZERO JUMPDEST ISZERO PUSH2 0x87B JUMPI DUP1 DUP7 PUSH1 0x40 MLOAD PUSH32 0xE237D92200000000000000000000000000000000000000000000000000000000 DUP2 MSTORE PUSH1 0x4 ADD PUSH2 0x872 SWAP3 SWAP2 SWAP1 PUSH2 0x1F5D JUMP JUMPDEST PUSH1 0x40 MLOAD DUP1 SWAP2 SUB SWAP1 REVERT JUMPDEST PUSH2 0x888 DUP7 DUP7 DUP7 DUP7 DUP7 PUSH2 0xC2B JUMP JUMPDEST POP POP POP POP POP POP JUMP JUMPDEST PUSH1 0x0 PUSH32 0x1FFC9A700000000000000000000000000000000000000000000000000000000 PUSH28 0xFFFFFFFFFFFFFFFFFFFFFFFFFFFFFFFFFFFFFFFFFFFFFFFFFFFFFFFF NOT AND DUP3 PUSH28 0xFFFFFFFFFFFFFFFFFFFFFFFFFFFFFFFFFFFFFFFFFFFFFFFFFFFFFFFF NOT AND EQ SWAP1 POP SWAP2 SWAP1 POP JUMP JUMPDEST PUSH1 0x0 CALLER SWAP1 POP SWAP1 JUMP JUMPDEST PUSH1 0x0 PUSH20 0xFFFFFFFFFFFFFFFFFFFFFFFFFFFFFFFFFFFFFFFF AND DUP5 PUSH20 0xFFFFFFFFFFFFFFFFFFFFFFFFFFFFFFFFFFFFFFFF AND SUB PUSH2 0x974 JUMPI PUSH1 0x0 PUSH1 0x40 MLOAD PUSH32 0x57F447CE00000000000000000000000000000000000000000000000000000000 DUP2 MSTORE PUSH1 0x4 ADD PUSH2 0x96B SWAP2 SWAP1 PUSH2 0x22D3 JUMP JUMPDEST PUSH1 0x40 MLOAD DUP1 SWAP2 SUB SWAP1 REVERT JUMPDEST PUSH1 0x0 PUSH20 0xFFFFFFFFFFFFFFFFFFFFFFFFFFFFFFFFFFFFFFFF AND DUP6 PUSH20 0xFFFFFFFFFFFFFFFFFFFFFFFFFFFFFFFFFFFFFFFF AND SUB PUSH2 0x9E6 JUMPI PUSH1 0x0 PUSH1 0x40 MLOAD PUSH32 0x1A8351400000000000000000000000000000000000000000000000000000000 DUP2 MSTORE PUSH1 0x4 ADD PUSH2 0x9DD SWAP2 SWAP1 PUSH2 0x22D3 JUMP JUMPDEST PUSH1 0x40 MLOAD DUP1 SWAP2 SUB SWAP1 REVERT JUMPDEST PUSH2 0x9F3 DUP6 DUP6 DUP6 DUP6 DUP6 PUSH2 0xD36 JUMP JUMPDEST POP POP POP POP POP JUMP JUMPDEST PUSH1 0x0 PUSH1 0x20 DUP3 MUL PUSH1 0x20 DUP5 ADD ADD MLOAD SWAP1 POP SWAP3 SWAP2 POP POP JUMP JUMPDEST PUSH1 0x0 PUSH1 0x20 DUP3 MUL PUSH1 0x20 DUP5 ADD ADD MLOAD SWAP1 POP SWAP3 SWAP2 POP POP JUMP JUMPDEST PUSH1 0x0 PUSH20 0xFFFFFFFFFFFFFFFFFFFFFFFFFFFFFFFFFFFFFFFF AND DUP3 PUSH20 0xFFFFFFFFFFFFFFFFFFFFFFFFFFFFFFFFFFFFFFFF AND SUB PUSH2 0xA94 JUMPI PUSH1 0x0 PUSH1 0x40 MLOAD PUSH32 0xCED3E10000000000000000000000000000000000000000000000000000000000 DUP2 MSTORE PUSH1 0x4 ADD PUSH2 0xA8B SWAP2 SWAP1 PUSH2 0x22D3 JUMP JUMPDEST PUSH1 0x40 MLOAD DUP1 SWAP2 SUB SWAP1 REVERT JUMPDEST DUP1 PUSH1 0x1 PUSH1 0x0 DUP6 PUSH20 0xFFFFFFFFFFFFFFFFFFFFFFFFFFFFFFFFFFFFFFFF AND PUSH20 0xFFFFFFFFFFFFFFFFFFFFFFFFFFFFFFFFFFFFFFFF AND DUP2 MSTORE PUSH1 0x20 ADD SWAP1 DUP2 MSTORE PUSH1 0x20 ADD PUSH1 0x0 KECCAK256 PUSH1 0x0 DUP5 PUSH20 0xFFFFFFFFFFFFFFFFFFFFFFFFFFFFFFFFFFFFFFFF AND PUSH20 0xFFFFFFFFFFFFFFFFFFFFFFFFFFFFFFFFFFFFFFFF AND DUP2 MSTORE PUSH1 0x20 ADD SWAP1 DUP2 MSTORE PUSH1 0x20 ADD PUSH1 0x0 KECCAK256 PUSH1 0x0 PUSH2 0x100 EXP DUP2 SLOAD DUP2 PUSH1 0xFF MUL NOT AND SWAP1 DUP4 ISZERO ISZERO MUL OR SWAP1 SSTORE POP DUP2 PUSH20 0xFFFFFFFFFFFFFFFFFFFFFFFFFFFFFFFFFFFFFFFF AND DUP4 PUSH20 0xFFFFFFFFFFFFFFFFFFFFFFFFFFFFFFFFFFFFFFFF AND PUSH32 0x17307EAB39AB6107E8899845AD3D59BD9653F200F220920489CA2B5937696C31 DUP4 PUSH1 0x40 MLOAD PUSH2 0xB85 SWAP2 SWAP1 PUSH2 0x16E0 JUMP JUMPDEST PUSH1 0x40 MLOAD DUP1 SWAP2 SUB SWAP1 LOG3 POP POP POP JUMP JUMPDEST PUSH1 0x0 PUSH20 0xFFFFFFFFFFFFFFFFFFFFFFFFFFFFFFFFFFFFFFFF AND DUP5 PUSH20 0xFFFFFFFFFFFFFFFFFFFFFFFFFFFFFFFFFFFFFFFF AND SUB PUSH2 0xC04 JUMPI PUSH1 0x0 PUSH1 0x40 MLOAD PUSH32 0x57F447CE00000000000000000000000000000000000000000000000000000000 DUP2 MSTORE PUSH1 0x4 ADD PUSH2 0xBFB SWAP2 SWAP1 PUSH2 0x22D3 JUMP JUMPDEST PUSH1 0x40 MLOAD DUP1 SWAP2 SUB SWAP1 REVERT JUMPDEST PUSH1 0x0 DUP1 PUSH2 0xC11 DUP6 DUP6 PUSH2 0xDE8 JUMP JUMPDEST SWAP2 POP SWAP2 POP PUSH2 0xC23 PUSH1 0x0 DUP8 DUP5 DUP5 DUP8 PUSH2 0xD36 JUMP JUMPDEST POP POP POP POP POP POP JUMP JUMPDEST PUSH1 0x0 PUSH20 0xFFFFFFFFFFFFFFFFFFFFFFFFFFFFFFFFFFFFFFFF AND DUP5 PUSH20 0xFFFFFFFFFFFFFFFFFFFFFFFFFFFFFFFFFFFFFFFF AND SUB PUSH2 0xC9D JUMPI PUSH1 0x0 PUSH1 0x40 MLOAD PUSH32 0x57F447CE00000000000000000000000000000000000000000000000000000000 DUP2 MSTORE PUSH1 0x4 ADD PUSH2 0xC94 SWAP2 SWAP1 PUSH2 0x22D3 JUMP JUMPDEST PUSH1 0x40 MLOAD DUP1 SWAP2 SUB SWAP1 REVERT JUMPDEST PUSH1 0x0 PUSH20 0xFFFFFFFFFFFFFFFFFFFFFFFFFFFFFFFFFFFFFFFF AND DUP6 PUSH20 0xFFFFFFFFFFFFFFFFFFFFFFFFFFFFFFFFFFFFFFFF AND SUB PUSH2 0xD0F JUMPI PUSH1 0x0 PUSH1 0x40 MLOAD PUSH32 0x1A8351400000000000000000000000000000000000000000000000000000000 DUP2 MSTORE PUSH1 0x4 ADD PUSH2 0xD06 SWAP2 SWAP1 PUSH2 0x22D3 JUMP JUMPDEST PUSH1 0x40 MLOAD DUP1 SWAP2 SUB SWAP1 REVERT JUMPDEST PUSH1 0x0 DUP1 PUSH2 0xD1C DUP6 DUP6 PUSH2 0xDE8 JUMP JUMPDEST SWAP2 POP SWAP2 POP PUSH2 0xD2D DUP8 DUP8 DUP5 DUP5 DUP8 PUSH2 0xD36 JUMP JUMPDEST POP POP POP POP POP POP POP JUMP JUMPDEST PUSH2 0xD42 DUP6 DUP6 DUP6 DUP6 PUSH2 0xE18 JUMP JUMPDEST PUSH1 0x0 PUSH20 0xFFFFFFFFFFFFFFFFFFFFFFFFFFFFFFFFFFFFFFFF AND DUP5 PUSH20 0xFFFFFFFFFFFFFFFFFFFFFFFFFFFFFFFFFFFFFFFF AND EQ PUSH2 0xDE1 JUMPI PUSH1 0x0 PUSH2 0xD80 PUSH2 0x8FA JUMP JUMPDEST SWAP1 POP PUSH1 0x1 DUP5 MLOAD SUB PUSH2 0xDD0 JUMPI PUSH1 0x0 PUSH2 0xDA1 PUSH1 0x0 DUP7 PUSH2 0xA0E SWAP1 SWAP2 SWAP1 PUSH4 0xFFFFFFFF AND JUMP JUMPDEST SWAP1 POP PUSH1 0x0 PUSH2 0xDB9 PUSH1 0x0 DUP7 PUSH2 0xA0E SWAP1 SWAP2 SWAP1 PUSH4 0xFFFFFFFF AND JUMP JUMPDEST SWAP1 POP PUSH2 0xDC9 DUP4 DUP10 DUP10 DUP6 DUP6 DUP10 PUSH2 0x11C6 JUMP JUMPDEST POP POP PUSH2 0xDDF JUMP JUMPDEST PUSH2 0xDDE DUP2 DUP8 DUP8 DUP8 DUP8 DUP8 PUSH2 0x137A JUMP JUMPDEST JUMPDEST POP JUMPDEST POP POP POP POP POP JUMP JUMPDEST PUSH1 0x60 DUP1 PUSH1 0x40 MLOAD SWAP2 POP PUSH1 0x1 DUP3 MSTORE DUP4 PUSH1 0x20 DUP4 ADD MSTORE PUSH1 0x40 DUP3 ADD SWAP1 POP PUSH1 0x1 DUP2 MSTORE DUP3 PUSH1 0x20 DUP3 ADD MSTORE PUSH1 0x40 DUP2 ADD PUSH1 0x40 MSTORE SWAP3 POP SWAP3 SWAP1 POP JUMP JUMPDEST DUP1 MLOAD DUP3 MLOAD EQ PUSH2 0xE62 JUMPI DUP2 MLOAD DUP2 MLOAD PUSH1 0x40 MLOAD PUSH32 0x5B05999100000000000000000000000000000000000000000000000000000000 DUP2 MSTORE PUSH1 0x4 ADD PUSH2 0xE59 SWAP3 SWAP2 SWAP1 PUSH2 0x1F86 JUMP JUMPDEST PUSH1 0x40 MLOAD DUP1 SWAP2 SUB SWAP1 REVERT JUMPDEST PUSH1 0x0 PUSH2 0xE6C PUSH2 0x8FA JUMP JUMPDEST SWAP1 POP PUSH1 0x0 JUMPDEST DUP4 MLOAD DUP2 LT ISZERO PUSH2 0x1081 JUMPI PUSH1 0x0 PUSH2 0xE8F DUP3 DUP7 PUSH2 0xA0E SWAP1 SWAP2 SWAP1 PUSH4 0xFFFFFFFF AND JUMP JUMPDEST SWAP1 POP PUSH1 0x0 PUSH2 0xEA6 DUP4 DUP7 PUSH2 0xA0E SWAP1 SWAP2 SWAP1 PUSH4 0xFFFFFFFF AND JUMP JUMPDEST SWAP1 POP PUSH1 0x0 PUSH20 0xFFFFFFFFFFFFFFFFFFFFFFFFFFFFFFFFFFFFFFFF AND DUP9 PUSH20 0xFFFFFFFFFFFFFFFFFFFFFFFFFFFFFFFFFFFFFFFF AND EQ PUSH2 0xFD3 JUMPI PUSH1 0x0 DUP1 PUSH1 0x0 DUP5 DUP2 MSTORE PUSH1 0x20 ADD SWAP1 DUP2 MSTORE PUSH1 0x20 ADD PUSH1 0x0 KECCAK256 PUSH1 0x0 DUP11 PUSH20 0xFFFFFFFFFFFFFFFFFFFFFFFFFFFFFFFFFFFFFFFF AND PUSH20 0xFFFFFFFFFFFFFFFFFFFFFFFFFFFFFFFFFFFFFFFF AND DUP2 MSTORE PUSH1 0x20 ADD SWAP1 DUP2 MSTORE PUSH1 0x20 ADD PUSH1 0x0 KECCAK256 SLOAD SWAP1 POP DUP2 DUP2 LT ISZERO PUSH2 0xF7B JUMPI DUP9 DUP2 DUP4 DUP6 PUSH1 0x40 MLOAD PUSH32 0x3DEE4C500000000000000000000000000000000000000000000000000000000 DUP2 MSTORE PUSH1 0x4 ADD PUSH2 0xF72 SWAP5 SWAP4 SWAP3 SWAP2 SWAP1 PUSH2 0x22EE JUMP JUMPDEST PUSH1 0x40 MLOAD DUP1 SWAP2 SUB SWAP1 REVERT JUMPDEST DUP2 DUP2 SUB PUSH1 0x0 DUP1 DUP6 DUP2 MSTORE PUSH1 0x20 ADD SWAP1 DUP2 MSTORE PUSH1 0x20 ADD PUSH1 0x0 KECCAK256 PUSH1 0x0 DUP12 PUSH20 0xFFFFFFFFFFFFFFFFFFFFFFFFFFFFFFFFFFFFFFFF AND PUSH20 0xFFFFFFFFFFFFFFFFFFFFFFFFFFFFFFFFFFFFFFFF AND DUP2 MSTORE PUSH1 0x20 ADD SWAP1 DUP2 MSTORE PUSH1 0x20 ADD PUSH1 0x0 KECCAK256 DUP2 SWAP1 SSTORE POP POP JUMPDEST PUSH1 0x0 PUSH20 0xFFFFFFFFFFFFFFFFFFFFFFFFFFFFFFFFFFFFFFFF AND DUP8 PUSH20 0xFFFFFFFFFFFFFFFFFFFFFFFFFFFFFFFFFFFFFFFF AND EQ PUSH2 0x106E JUMPI DUP1 PUSH1 0x0 DUP1 DUP5 DUP2 MSTORE PUSH1 0x20 ADD SWAP1 DUP2 MSTORE PUSH1 0x20 ADD PUSH1 0x0 KECCAK256 PUSH1 0x0 DUP10 PUSH20 0xFFFFFFFFFFFFFFFFFFFFFFFFFFFFFFFFFFFFFFFF AND PUSH20 0xFFFFFFFFFFFFFFFFFFFFFFFFFFFFFFFFFFFFFFFF AND DUP2 MSTORE PUSH1 0x20 ADD SWAP1 DUP2 MSTORE PUSH1 0x20 ADD PUSH1 0x0 KECCAK256 PUSH1 0x0 DUP3 DUP3 SLOAD PUSH2 0x1066 SWAP2 SWAP1 PUSH2 0x2333 JUMP JUMPDEST SWAP3 POP POP DUP2 SWAP1 SSTORE POP JUMPDEST POP POP DUP1 PUSH2 0x107A SWAP1 PUSH2 0x200D JUMP JUMPDEST SWAP1 POP PUSH2 0xE71 JUMP JUMPDEST POP PUSH1 0x1 DUP4 MLOAD SUB PUSH2 0x1140 JUMPI PUSH1 0x0 PUSH2 0x10A1 PUSH1 0x0 DUP6 PUSH2 0xA0E SWAP1 SWAP2 SWAP1 PUSH4 0xFFFFFFFF AND JUMP JUMPDEST SWAP1 POP PUSH1 0x0 PUSH2 0x10B9 PUSH1 0x0 DUP6 PUSH2 0xA0E SWAP1 SWAP2 SWAP1 PUSH4 0xFFFFFFFF AND JUMP JUMPDEST SWAP1 POP DUP6 PUSH20 0xFFFFFFFFFFFFFFFFFFFFFFFFFFFFFFFFFFFFFFFF AND DUP8 PUSH20 0xFFFFFFFFFFFFFFFFFFFFFFFFFFFFFFFFFFFFFFFF AND DUP5 PUSH20 0xFFFFFFFFFFFFFFFFFFFFFFFFFFFFFFFFFFFFFFFF AND PUSH32 0xC3D58168C5AE7397731D063D5BBF3D657854427343F4C083240F7AACAA2D0F62 DUP6 DUP6 PUSH1 0x40 MLOAD PUSH2 0x1131 SWAP3 SWAP2 SWAP1 PUSH2 0x1F86 JUMP JUMPDEST PUSH1 0x40 MLOAD DUP1 SWAP2 SUB SWAP1 LOG4 POP POP PUSH2 0x11BF JUMP JUMPDEST DUP4 PUSH20 0xFFFFFFFFFFFFFFFFFFFFFFFFFFFFFFFFFFFFFFFF AND DUP6 PUSH20 0xFFFFFFFFFFFFFFFFFFFFFFFFFFFFFFFFFFFFFFFF AND DUP3 PUSH20 0xFFFFFFFFFFFFFFFFFFFFFFFFFFFFFFFFFFFFFFFF AND PUSH32 0x4A39DC06D4C0DBC64B70AF90FD698A233A518AA5D07E595D983B8C0526C8F7FB DUP7 DUP7 PUSH1 0x40 MLOAD PUSH2 0x11B6 SWAP3 SWAP2 SWAP1 PUSH2 0x2367 JUMP JUMPDEST PUSH1 0x40 MLOAD DUP1 SWAP2 SUB SWAP1 LOG4 JUMPDEST POP POP POP POP POP JUMP JUMPDEST PUSH1 0x0 DUP5 PUSH20 0xFFFFFFFFFFFFFFFFFFFFFFFFFFFFFFFFFFFFFFFF AND EXTCODESIZE GT ISZERO PUSH2 0x1372 JUMPI DUP4 PUSH20 0xFFFFFFFFFFFFFFFFFFFFFFFFFFFFFFFFFFFFFFFF AND PUSH4 0xF23A6E61 DUP8 DUP8 DUP7 DUP7 DUP7 PUSH1 0x40 MLOAD DUP7 PUSH4 0xFFFFFFFF AND PUSH1 0xE0 SHL DUP2 MSTORE PUSH1 0x4 ADD PUSH2 0x1227 SWAP6 SWAP5 SWAP4 SWAP3 SWAP2 SWAP1 PUSH2 0x23F3 JUMP JUMPDEST PUSH1 0x20 PUSH1 0x40 MLOAD DUP1 DUP4 SUB DUP2 PUSH1 0x0 DUP8 GAS CALL SWAP3 POP POP POP DUP1 ISZERO PUSH2 0x1263 JUMPI POP PUSH1 0x40 MLOAD RETURNDATASIZE PUSH1 0x1F NOT PUSH1 0x1F DUP3 ADD AND DUP3 ADD DUP1 PUSH1 0x40 MSTORE POP DUP2 ADD SWAP1 PUSH2 0x1260 SWAP2 SWAP1 PUSH2 0x2462 JUMP JUMPDEST PUSH1 0x1 JUMPDEST PUSH2 0x12E7 JUMPI RETURNDATASIZE DUP1 PUSH1 0x0 DUP2 EQ PUSH2 0x1293 JUMPI PUSH1 0x40 MLOAD SWAP2 POP PUSH1 0x1F NOT PUSH1 0x3F RETURNDATASIZE ADD AND DUP3 ADD PUSH1 0x40 MSTORE RETURNDATASIZE DUP3 MSTORE RETURNDATASIZE PUSH1 0x0 PUSH1 0x20 DUP5 ADD RETURNDATACOPY PUSH2 0x1298 JUMP JUMPDEST PUSH1 0x60 SWAP2 POP JUMPDEST POP PUSH1 0x0 DUP2 MLOAD SUB PUSH2 0x12DF JUMPI DUP5 PUSH1 0x40 MLOAD PUSH32 0x57F447CE00000000000000000000000000000000000000000000000000000000 DUP2 MSTORE PUSH1 0x4 ADD PUSH2 0x12D6 SWAP2 SWAP1 PUSH2 0x22D3 JUMP JUMPDEST PUSH1 0x40 MLOAD DUP1 SWAP2 SUB SWAP1 REVERT JUMPDEST DUP1 MLOAD DUP2 PUSH1 0x20 ADD REVERT JUMPDEST PUSH4 0xF23A6E61 PUSH1 0xE0 SHL PUSH28 0xFFFFFFFFFFFFFFFFFFFFFFFFFFFFFFFFFFFFFFFFFFFFFFFFFFFFFFFF NOT AND DUP2 PUSH28 0xFFFFFFFFFFFFFFFFFFFFFFFFFFFFFFFFFFFFFFFFFFFFFFFFFFFFFFFF NOT AND EQ PUSH2 0x1370 JUMPI DUP5 PUSH1 0x40 MLOAD PUSH32 0x57F447CE00000000000000000000000000000000000000000000000000000000 DUP2 MSTORE PUSH1 0x4 ADD PUSH2 0x1367 SWAP2 SWAP1 PUSH2 0x22D3 JUMP JUMPDEST PUSH1 0x40 MLOAD DUP1 SWAP2 SUB SWAP1 REVERT JUMPDEST POP JUMPDEST POP POP POP POP POP POP JUMP JUMPDEST PUSH1 0x0 DUP5 PUSH20 0xFFFFFFFFFFFFFFFFFFFFFFFFFFFFFFFFFFFFFFFF AND EXTCODESIZE GT ISZERO PUSH2 0x1526 JUMPI DUP4 PUSH20 0xFFFFFFFFFFFFFFFFFFFFFFFFFFFFFFFFFFFFFFFF AND PUSH4 0xBC197C81 DUP8 DUP8 DUP7 DUP7 DUP7 PUSH1 0x40 MLOAD DUP7 PUSH4 0xFFFFFFFF AND PUSH1 0xE0 SHL DUP2 MSTORE PUSH1 0x4 ADD PUSH2 0x13DB SWAP6 SWAP5 SWAP4 SWAP3 SWAP2 SWAP1 PUSH2 0x248F JUMP JUMPDEST PUSH1 0x20 PUSH1 0x40 MLOAD DUP1 DUP4 SUB DUP2 PUSH1 0x0 DUP8 GAS CALL SWAP3 POP POP POP DUP1 ISZERO PUSH2 0x1417 JUMPI POP PUSH1 0x40 MLOAD RETURNDATASIZE PUSH1 0x1F NOT PUSH1 0x1F DUP3 ADD AND DUP3 ADD DUP1 PUSH1 0x40 MSTORE POP DUP2 ADD SWAP1 PUSH2 0x1414 SWAP2 SWAP1 PUSH2 0x2462 JUMP JUMPDEST PUSH1 0x1 JUMPDEST PUSH2 0x149B JUMPI RETURNDATASIZE DUP1 PUSH1 0x0 DUP2 EQ PUSH2 0x1447 JUMPI PUSH1 0x40 MLOAD SWAP2 POP PUSH1 0x1F NOT PUSH1 0x3F RETURNDATASIZE ADD AND DUP3 ADD PUSH1 0x40 MSTORE RETURNDATASIZE DUP3 MSTORE RETURNDATASIZE PUSH1 0x0 PUSH1 0x20 DUP5 ADD RETURNDATACOPY PUSH2 0x144C JUMP JUMPDEST PUSH1 0x60 SWAP2 POP JUMPDEST POP PUSH1 0x0 DUP2 MLOAD SUB PUSH2 0x1493 JUMPI DUP5 PUSH1 0x40 MLOAD PUSH32 0x57F447CE00000000000000000000000000000000000000000000000000000000 DUP2 MSTORE PUSH1 0x4 ADD PUSH2 0x148A SWAP2 SWAP1 PUSH2 0x22D3 JUMP JUMPDEST PUSH1 0x40 MLOAD DUP1 SWAP2 SUB SWAP1 REVERT JUMPDEST DUP1 MLOAD DUP2 PUSH1 0x20 ADD REVERT JUMPDEST PUSH4 0xBC197C81 PUSH1 0xE0 SHL PUSH28 0xFFFFFFFFFFFFFFFFFFFFFFFFFFFFFFFFFFFFFFFFFFFFFFFFFFFFFFFF NOT AND DUP2 PUSH28 0xFFFFFFFFFFFFFFFFFFFFFFFFFFFFFFFFFFFFFFFFFFFFFFFFFFFFFFFF NOT AND EQ PUSH2 0x1524 JUMPI DUP5 PUSH1 0x40 MLOAD PUSH32 0x57F447CE00000000000000000000000000000000000000000000000000000000 DUP2 MSTORE PUSH1 0x4 ADD PUSH2 0x151B SWAP2 SWAP1 PUSH2 0x22D3 JUMP JUMPDEST PUSH1 0x40 MLOAD DUP1 SWAP2 SUB SWAP1 REVERT JUMPDEST POP JUMPDEST POP POP POP POP POP POP JUMP JUMPDEST PUSH1 0x0 PUSH1 0x40 MLOAD SWAP1 POP SWAP1 JUMP JUMPDEST PUSH1 0x0 DUP1 REVERT JUMPDEST PUSH1 0x0 DUP1 REVERT JUMPDEST PUSH1 0x0 PUSH20 0xFFFFFFFFFFFFFFFFFFFFFFFFFFFFFFFFFFFFFFFF DUP3 AND SWAP1 POP SWAP2 SWAP1 POP JUMP JUMPDEST PUSH1 0x0 PUSH2 0x156D DUP3 PUSH2 0x1542 JUMP JUMPDEST SWAP1 POP SWAP2 SWAP1 POP JUMP JUMPDEST PUSH2 0x157D DUP2 PUSH2 0x1562 JUMP JUMPDEST DUP2 EQ PUSH2 0x1588 JUMPI PUSH1 0x0 DUP1 REVERT JUMPDEST POP JUMP JUMPDEST PUSH1 0x0 DUP2 CALLDATALOAD SWAP1 POP PUSH2 0x159A DUP2 PUSH2 0x1574 JUMP JUMPDEST SWAP3 SWAP2 POP POP JUMP JUMPDEST PUSH1 0x0 DUP2 SWAP1 POP SWAP2 SWAP1 POP JUMP JUMPDEST PUSH2 0x15B3 DUP2 PUSH2 0x15A0 JUMP JUMPDEST DUP2 EQ PUSH2 0x15BE JUMPI PUSH1 0x0 DUP1 REVERT JUMPDEST POP JUMP JUMPDEST PUSH1 0x0 DUP2 CALLDATALOAD SWAP1 POP PUSH2 0x15D0 DUP2 PUSH2 0x15AA JUMP JUMPDEST SWAP3 SWAP2 POP POP JUMP JUMPDEST PUSH1 0x0 DUP1 PUSH1 0x40 DUP4 DUP6 SUB SLT ISZERO PUSH2 0x15ED JUMPI PUSH2 0x15EC PUSH2 0x1538 JUMP JUMPDEST JUMPDEST PUSH1 0x0 PUSH2 0x15FB DUP6 DUP3 DUP7 ADD PUSH2 0x158B JUMP JUMPDEST SWAP3 POP POP PUSH1 0x20 PUSH2 0x160C DUP6 DUP3 DUP7 ADD PUSH2 0x15C1 JUMP JUMPDEST SWAP2 POP POP SWAP3 POP SWAP3 SWAP1 POP JUMP JUMPDEST PUSH2 0x161F DUP2 PUSH2 0x15A0 JUMP JUMPDEST DUP3 MSTORE POP POP JUMP JUMPDEST PUSH1 0x0 PUSH1 0x20 DUP3 ADD SWAP1 POP PUSH2 0x163A PUSH1 0x0 DUP4 ADD DUP5 PUSH2 0x1616 JUMP JUMPDEST SWAP3 SWAP2 POP POP JUMP JUMPDEST PUSH1 0x0 PUSH32 0xFFFFFFFF00000000000000000000000000000000000000000000000000000000 DUP3 AND SWAP1 POP SWAP2 SWAP1 POP JUMP JUMPDEST PUSH2 0x1675 DUP2 PUSH2 0x1640 JUMP JUMPDEST DUP2 EQ PUSH2 0x1680 JUMPI PUSH1 0x0 DUP1 REVERT JUMPDEST POP JUMP JUMPDEST PUSH1 0x0 DUP2 CALLDATALOAD SWAP1 POP PUSH2 0x1692 DUP2 PUSH2 0x166C JUMP JUMPDEST SWAP3 SWAP2 POP POP JUMP JUMPDEST PUSH1 0x0 PUSH1 0x20 DUP3 DUP5 SUB SLT ISZERO PUSH2 0x16AE JUMPI PUSH2 0x16AD PUSH2 0x1538 JUMP JUMPDEST JUMPDEST PUSH1 0x0 PUSH2 0x16BC DUP5 DUP3 DUP6 ADD PUSH2 0x1683 JUMP JUMPDEST SWAP2 POP POP SWAP3 SWAP2 POP POP JUMP JUMPDEST PUSH1 0x0 DUP2 ISZERO ISZERO SWAP1 POP SWAP2 SWAP1 POP JUMP JUMPDEST PUSH2 0x16DA DUP2 PUSH2 0x16C5 JUMP JUMPDEST DUP3 MSTORE POP POP JUMP JUMPDEST PUSH1 0x0 PUSH1 0x20 DUP3 ADD SWAP1 POP PUSH2 0x16F5 PUSH1 0x0 DUP4 ADD DUP5 PUSH2 0x16D1 JUMP JUMPDEST SWAP3 SWAP2 POP POP JUMP JUMPDEST PUSH1 0x0 PUSH1 0x20 DUP3 DUP5 SUB SLT ISZERO PUSH2 0x1711 JUMPI PUSH2 0x1710 PUSH2 0x1538 JUMP JUMPDEST JUMPDEST PUSH1 0x0 PUSH2 0x171F DUP5 DUP3 DUP6 ADD PUSH2 0x15C1 JUMP JUMPDEST SWAP2 POP POP SWAP3 SWAP2 POP POP JUMP JUMPDEST PUSH1 0x0 DUP2 MLOAD SWAP1 POP SWAP2 SWAP1 POP JUMP JUMPDEST PUSH1 0x0 DUP3 DUP3 MSTORE PUSH1 0x20 DUP3 ADD SWAP1 POP SWAP3 SWAP2 POP POP JUMP JUMPDEST PUSH1 0x0 JUMPDEST DUP4 DUP2 LT ISZERO PUSH2 0x1762 JUMPI DUP1 DUP3 ADD MLOAD DUP2 DUP5 ADD MSTORE PUSH1 0x20 DUP2 ADD SWAP1 POP PUSH2 0x1747 JUMP JUMPDEST PUSH1 0x0 DUP5 DUP5 ADD MSTORE POP POP POP POP JUMP JUMPDEST PUSH1 0x0 PUSH1 0x1F NOT PUSH1 0x1F DUP4 ADD AND SWAP1 POP SWAP2 SWAP1 POP JUMP JUMPDEST PUSH1 0x0 PUSH2 0x178A DUP3 PUSH2 0x1728 JUMP JUMPDEST PUSH2 0x1794 DUP2 DUP6 PUSH2 0x1733 JUMP JUMPDEST SWAP4 POP PUSH2 0x17A4 DUP2 DUP6 PUSH1 0x20 DUP7 ADD PUSH2 0x1744 JUMP JUMPDEST PUSH2 0x17AD DUP2 PUSH2 0x176E JUMP JUMPDEST DUP5 ADD SWAP2 POP POP SWAP3 SWAP2 POP POP JUMP JUMPDEST PUSH1 0x0 PUSH1 0x20 DUP3 ADD SWAP1 POP DUP2 DUP2 SUB PUSH1 0x0 DUP4 ADD MSTORE PUSH2 0x17D2 DUP2 DUP5 PUSH2 0x177F JUMP JUMPDEST SWAP1 POP SWAP3 SWAP2 POP POP JUMP JUMPDEST PUSH1 0x0 DUP1 REVERT JUMPDEST PUSH32 0x4E487B7100000000000000000000000000000000000000000000000000000000 PUSH1 0x0 MSTORE PUSH1 0x41 PUSH1 0x4 MSTORE PUSH1 0x24 PUSH1 0x0 REVERT JUMPDEST PUSH2 0x1817 DUP3 PUSH2 0x176E JUMP JUMPDEST DUP2 ADD DUP2 DUP2 LT PUSH8 0xFFFFFFFFFFFFFFFF DUP3 GT OR ISZERO PUSH2 0x1836 JUMPI PUSH2 0x1835 PUSH2 0x17DF JUMP JUMPDEST JUMPDEST DUP1 PUSH1 0x40 MSTORE POP POP POP JUMP JUMPDEST PUSH1 0x0 PUSH2 0x1849 PUSH2 0x152E JUMP JUMPDEST SWAP1 POP PUSH2 0x1855 DUP3 DUP3 PUSH2 0x180E JUMP JUMPDEST SWAP2 SWAP1 POP JUMP JUMPDEST PUSH1 0x0 PUSH8 0xFFFFFFFFFFFFFFFF DUP3 GT ISZERO PUSH2 0x1875 JUMPI PUSH2 0x1874 PUSH2 0x17DF JUMP JUMPDEST JUMPDEST PUSH1 0x20 DUP3 MUL SWAP1 POP PUSH1 0x20 DUP2 ADD SWAP1 POP SWAP2 SWAP1 POP JUMP JUMPDEST PUSH1 0x0 DUP1 REVERT JUMPDEST PUSH1 0x0 PUSH2 0x189E PUSH2 0x1899 DUP5 PUSH2 0x185A JUMP JUMPDEST PUSH2 0x183F JUMP JUMPDEST SWAP1 POP DUP1 DUP4 DUP3 MSTORE PUSH1 0x20 DUP3 ADD SWAP1 POP PUSH1 0x20 DUP5 MUL DUP4 ADD DUP6 DUP2 GT ISZERO PUSH2 0x18C1 JUMPI PUSH2 0x18C0 PUSH2 0x1886 JUMP JUMPDEST JUMPDEST DUP4 JUMPDEST DUP2 DUP2 LT ISZERO PUSH2 0x18EA JUMPI DUP1 PUSH2 0x18D6 DUP9 DUP3 PUSH2 0x15C1 JUMP JUMPDEST DUP5 MSTORE PUSH1 0x20 DUP5 ADD SWAP4 POP POP PUSH1 0x20 DUP2 ADD SWAP1 POP PUSH2 0x18C3 JUMP JUMPDEST POP POP POP SWAP4 SWAP3 POP POP POP JUMP JUMPDEST PUSH1 0x0 DUP3 PUSH1 0x1F DUP4 ADD SLT PUSH2 0x1909 JUMPI PUSH2 0x1908 PUSH2 0x17DA JUMP JUMPDEST JUMPDEST DUP2 CALLDATALOAD PUSH2 0x1919 DUP5 DUP3 PUSH1 0x20 DUP7 ADD PUSH2 0x188B JUMP JUMPDEST SWAP2 POP POP SWAP3 SWAP2 POP POP JUMP JUMPDEST PUSH1 0x0 DUP1 REVERT JUMPDEST PUSH1 0x0 PUSH8 0xFFFFFFFFFFFFFFFF DUP3 GT ISZERO PUSH2 0x1942 JUMPI PUSH2 0x1941 PUSH2 0x17DF JUMP JUMPDEST JUMPDEST PUSH2 0x194B DUP3 PUSH2 0x176E JUMP JUMPDEST SWAP1 POP PUSH1 0x20 DUP2 ADD SWAP1 POP SWAP2 SWAP1 POP JUMP JUMPDEST DUP3 DUP2 DUP4 CALLDATACOPY PUSH1 0x0 DUP4 DUP4 ADD MSTORE POP POP POP JUMP JUMPDEST PUSH1 0x0 PUSH2 0x197A PUSH2 0x1975 DUP5 PUSH2 0x1927 JUMP JUMPDEST PUSH2 0x183F JUMP JUMPDEST SWAP1 POP DUP3 DUP2 MSTORE PUSH1 0x20 DUP2 ADD DUP5 DUP5 DUP5 ADD GT ISZERO PUSH2 0x1996 JUMPI PUSH2 0x1995 PUSH2 0x1922 JUMP JUMPDEST JUMPDEST PUSH2 0x19A1 DUP5 DUP3 DUP6 PUSH2 0x1958 JUMP JUMPDEST POP SWAP4 SWAP3 POP POP POP JUMP JUMPDEST PUSH1 0x0 DUP3 PUSH1 0x1F DUP4 ADD SLT PUSH2 0x19BE JUMPI PUSH2 0x19BD PUSH2 0x17DA JUMP JUMPDEST JUMPDEST DUP2 CALLDATALOAD PUSH2 0x19CE DUP5 DUP3 PUSH1 0x20 DUP7 ADD PUSH2 0x1967 JUMP JUMPDEST SWAP2 POP POP SWAP3 SWAP2 POP POP JUMP JUMPDEST PUSH1 0x0 DUP1 PUSH1 0x0 DUP1 PUSH1 0x0 PUSH1 0xA0 DUP7 DUP9 SUB SLT ISZERO PUSH2 0x19F3 JUMPI PUSH2 0x19F2 PUSH2 0x1538 JUMP JUMPDEST JUMPDEST PUSH1 0x0 PUSH2 0x1A01 DUP9 DUP3 DUP10 ADD PUSH2 0x158B JUMP JUMPDEST SWAP6 POP POP PUSH1 0x20 PUSH2 0x1A12 DUP9 DUP3 DUP10 ADD PUSH2 0x158B JUMP JUMPDEST SWAP5 POP POP PUSH1 0x40 DUP7 ADD CALLDATALOAD PUSH8 0xFFFFFFFFFFFFFFFF DUP2 GT ISZERO PUSH2 0x1A33 JUMPI PUSH2 0x1A32 PUSH2 0x153D JUMP JUMPDEST JUMPDEST PUSH2 0x1A3F DUP9 DUP3 DUP10 ADD PUSH2 0x18F4 JUMP JUMPDEST SWAP4 POP POP PUSH1 0x60 DUP7 ADD CALLDATALOAD PUSH8 0xFFFFFFFFFFFFFFFF DUP2 GT ISZERO PUSH2 0x1A60 JUMPI PUSH2 0x1A5F PUSH2 0x153D JUMP JUMPDEST JUMPDEST PUSH2 0x1A6C DUP9 DUP3 DUP10 ADD PUSH2 0x18F4 JUMP JUMPDEST SWAP3 POP POP PUSH1 0x80 DUP7 ADD CALLDATALOAD PUSH8 0xFFFFFFFFFFFFFFFF DUP2 GT ISZERO PUSH2 0x1A8D JUMPI PUSH2 0x1A8C PUSH2 0x153D JUMP JUMPDEST JUMPDEST PUSH2 0x1A99 DUP9 DUP3 DUP10 ADD PUSH2 0x19A9 JUMP JUMPDEST SWAP2 POP POP SWAP3 SWAP6 POP SWAP3 SWAP6 SWAP1 SWAP4 POP JUMP JUMPDEST PUSH1 0x0 PUSH8 0xFFFFFFFFFFFFFFFF DUP3 GT ISZERO PUSH2 0x1AC1 JUMPI PUSH2 0x1AC0 PUSH2 0x17DF JUMP JUMPDEST JUMPDEST PUSH1 0x20 DUP3 MUL SWAP1 POP PUSH1 0x20 DUP2 ADD SWAP1 POP SWAP2 SWAP1 POP JUMP JUMPDEST PUSH1 0x0 PUSH2 0x1AE5 PUSH2 0x1AE0 DUP5 PUSH2 0x1AA6 JUMP JUMPDEST PUSH2 0x183F JUMP JUMPDEST SWAP1 POP DUP1 DUP4 DUP3 MSTORE PUSH1 0x20 DUP3 ADD SWAP1 POP PUSH1 0x20 DUP5 MUL DUP4 ADD DUP6 DUP2 GT ISZERO PUSH2 0x1B08 JUMPI PUSH2 0x1B07 PUSH2 0x1886 JUMP JUMPDEST JUMPDEST DUP4 JUMPDEST DUP2 DUP2 LT ISZERO PUSH2 0x1B31 JUMPI DUP1 PUSH2 0x1B1D DUP9 DUP3 PUSH2 0x158B JUMP JUMPDEST DUP5 MSTORE PUSH1 0x20 DUP5 ADD SWAP4 POP POP PUSH1 0x20 DUP2 ADD SWAP1 POP PUSH2 0x1B0A JUMP JUMPDEST POP POP POP SWAP4 SWAP3 POP POP POP JUMP JUMPDEST PUSH1 0x0 DUP3 PUSH1 0x1F DUP4 ADD SLT PUSH2 0x1B50 JUMPI PUSH2 0x1B4F PUSH2 0x17DA JUMP JUMPDEST JUMPDEST DUP2 CALLDATALOAD PUSH2 0x1B60 DUP5 DUP3 PUSH1 0x20 DUP7 ADD PUSH2 0x1AD2 JUMP JUMPDEST SWAP2 POP POP SWAP3 SWAP2 POP POP JUMP JUMPDEST PUSH1 0x0 DUP1 PUSH1 0x40 DUP4 DUP6 SUB SLT ISZERO PUSH2 0x1B80 JUMPI PUSH2 0x1B7F PUSH2 0x1538 JUMP JUMPDEST JUMPDEST PUSH1 0x0 DUP4 ADD CALLDATALOAD PUSH8 0xFFFFFFFFFFFFFFFF DUP2 GT ISZERO PUSH2 0x1B9E JUMPI PUSH2 0x1B9D PUSH2 0x153D JUMP JUMPDEST JUMPDEST PUSH2 0x1BAA DUP6 DUP3 DUP7 ADD PUSH2 0x1B3B JUMP JUMPDEST SWAP3 POP POP PUSH1 0x20 DUP4 ADD CALLDATALOAD PUSH8 0xFFFFFFFFFFFFFFFF DUP2 GT ISZERO PUSH2 0x1BCB JUMPI PUSH2 0x1BCA PUSH2 0x153D JUMP JUMPDEST JUMPDEST PUSH2 0x1BD7 DUP6 DUP3 DUP7 ADD PUSH2 0x18F4 JUMP JUMPDEST SWAP2 POP POP SWAP3 POP SWAP3 SWAP1 POP JUMP JUMPDEST PUSH1 0x0 DUP2 MLOAD SWAP1 POP SWAP2 SWAP1 POP JUMP JUMPDEST PUSH1 0x0 DUP3 DUP3 MSTORE PUSH1 0x20 DUP3 ADD SWAP1 POP SWAP3 SWAP2 POP POP JUMP JUMPDEST PUSH1 0x0 DUP2 SWAP1 POP PUSH1 0x20 DUP3 ADD SWAP1 POP SWAP2 SWAP1 POP JUMP JUMPDEST PUSH2 0x1C16 DUP2 PUSH2 0x15A0 JUMP JUMPDEST DUP3 MSTORE POP POP JUMP JUMPDEST PUSH1 0x0 PUSH2 0x1C28 DUP4 DUP4 PUSH2 0x1C0D JUMP JUMPDEST PUSH1 0x20 DUP4 ADD SWAP1 POP SWAP3 SWAP2 POP POP JUMP JUMPDEST PUSH1 0x0 PUSH1 0x20 DUP3 ADD SWAP1 POP SWAP2 SWAP1 POP JUMP JUMPDEST PUSH1 0x0 PUSH2 0x1C4C DUP3 PUSH2 0x1BE1 JUMP JUMPDEST PUSH2 0x1C56 DUP2 DUP6 PUSH2 0x1BEC JUMP JUMPDEST SWAP4 POP PUSH2 0x1C61 DUP4 PUSH2 0x1BFD JUMP JUMPDEST DUP1 PUSH1 0x0 JUMPDEST DUP4 DUP2 LT ISZERO PUSH2 0x1C92 JUMPI DUP2 MLOAD PUSH2 0x1C79 DUP9 DUP3 PUSH2 0x1C1C JUMP JUMPDEST SWAP8 POP PUSH2 0x1C84 DUP4 PUSH2 0x1C34 JUMP JUMPDEST SWAP3 POP POP PUSH1 0x1 DUP2 ADD SWAP1 POP PUSH2 0x1C65 JUMP JUMPDEST POP DUP6 SWAP4 POP POP POP POP SWAP3 SWAP2 POP POP JUMP JUMPDEST PUSH1 0x0 PUSH1 0x20 DUP3 ADD SWAP1 POP DUP2 DUP2 SUB PUSH1 0x0 DUP4 ADD MSTORE PUSH2 0x1CB9 DUP2 DUP5 PUSH2 0x1C41 JUMP JUMPDEST SWAP1 POP SWAP3 SWAP2 POP POP JUMP JUMPDEST PUSH2 0x1CCA DUP2 PUSH2 0x16C5 JUMP JUMPDEST DUP2 EQ PUSH2 0x1CD5 JUMPI PUSH1 0x0 DUP1 REVERT JUMPDEST POP JUMP JUMPDEST PUSH1 0x0 DUP2 CALLDATALOAD SWAP1 POP PUSH2 0x1CE7 DUP2 PUSH2 0x1CC1 JUMP JUMPDEST SWAP3 SWAP2 POP POP JUMP JUMPDEST PUSH1 0x0 DUP1 PUSH1 0x40 DUP4 DUP6 SUB SLT ISZERO PUSH2 0x1D04 JUMPI PUSH2 0x1D03 PUSH2 0x1538 JUMP JUMPDEST JUMPDEST PUSH1 0x0 PUSH2 0x1D12 DUP6 DUP3 DUP7 ADD PUSH2 0x158B JUMP JUMPDEST SWAP3 POP POP PUSH1 0x20 PUSH2 0x1D23 DUP6 DUP3 DUP7 ADD PUSH2 0x1CD8 JUMP JUMPDEST SWAP2 POP POP SWAP3 POP SWAP3 SWAP1 POP JUMP JUMPDEST PUSH1 0x0 PUSH8 0xFFFFFFFFFFFFFFFF DUP3 GT ISZERO PUSH2 0x1D48 JUMPI PUSH2 0x1D47 PUSH2 0x17DF JUMP JUMPDEST JUMPDEST PUSH2 0x1D51 DUP3 PUSH2 0x176E JUMP JUMPDEST SWAP1 POP PUSH1 0x20 DUP2 ADD SWAP1 POP SWAP2 SWAP1 POP JUMP JUMPDEST PUSH1 0x0 PUSH2 0x1D71 PUSH2 0x1D6C DUP5 PUSH2 0x1D2D JUMP JUMPDEST PUSH2 0x183F JUMP JUMPDEST SWAP1 POP DUP3 DUP2 MSTORE PUSH1 0x20 DUP2 ADD DUP5 DUP5 DUP5 ADD GT ISZERO PUSH2 0x1D8D JUMPI PUSH2 0x1D8C PUSH2 0x1922 JUMP JUMPDEST JUMPDEST PUSH2 0x1D98 DUP5 DUP3 DUP6 PUSH2 0x1958 JUMP JUMPDEST POP SWAP4 SWAP3 POP POP POP JUMP JUMPDEST PUSH1 0x0 DUP3 PUSH1 0x1F DUP4 ADD SLT PUSH2 0x1DB5 JUMPI PUSH2 0x1DB4 PUSH2 0x17DA JUMP JUMPDEST JUMPDEST DUP2 CALLDATALOAD PUSH2 0x1DC5 DUP5 DUP3 PUSH1 0x20 DUP7 ADD PUSH2 0x1D5E JUMP JUMPDEST SWAP2 POP POP SWAP3 SWAP2 POP POP JUMP JUMPDEST PUSH1 0x0 PUSH1 0x20 DUP3 DUP5 SUB SLT ISZERO PUSH2 0x1DE4 JUMPI PUSH2 0x1DE3 PUSH2 0x1538 JUMP JUMPDEST JUMPDEST PUSH1 0x0 DUP3 ADD CALLDATALOAD PUSH8 0xFFFFFFFFFFFFFFFF DUP2 GT ISZERO PUSH2 0x1E02 JUMPI PUSH2 0x1E01 PUSH2 0x153D JUMP JUMPDEST JUMPDEST PUSH2 0x1E0E DUP5 DUP3 DUP6 ADD PUSH2 0x1DA0 JUMP JUMPDEST SWAP2 POP POP SWAP3 SWAP2 POP POP JUMP JUMPDEST PUSH1 0x0 DUP1 PUSH1 0x40 DUP4 DUP6 SUB SLT ISZERO PUSH2 0x1E2E JUMPI PUSH2 0x1E2D PUSH2 0x1538 JUMP JUMPDEST JUMPDEST PUSH1 0x0 PUSH2 0x1E3C DUP6 DUP3 DUP7 ADD PUSH2 0x158B JUMP JUMPDEST SWAP3 POP POP PUSH1 0x20 PUSH2 0x1E4D DUP6 DUP3 DUP7 ADD PUSH2 0x158B JUMP JUMPDEST SWAP2 POP POP SWAP3 POP SWAP3 SWAP1 POP JUMP JUMPDEST PUSH1 0x0 DUP1 PUSH1 0x0 DUP1 PUSH1 0x0 PUSH1 0xA0 DUP7 DUP9 SUB SLT ISZERO PUSH2 0x1E73 JUMPI PUSH2 0x1E72 PUSH2 0x1538 JUMP JUMPDEST JUMPDEST PUSH1 0x0 PUSH2 0x1E81 DUP9 DUP3 DUP10 ADD PUSH2 0x158B JUMP JUMPDEST SWAP6 POP POP PUSH1 0x20 PUSH2 0x1E92 DUP9 DUP3 DUP10 ADD PUSH2 0x158B JUMP JUMPDEST SWAP5 POP POP PUSH1 0x40 PUSH2 0x1EA3 DUP9 DUP3 DUP10 ADD PUSH2 0x15C1 JUMP JUMPDEST SWAP4 POP POP PUSH1 0x60 PUSH2 0x1EB4 DUP9 DUP3 DUP10 ADD PUSH2 0x15C1 JUMP JUMPDEST SWAP3 POP POP PUSH1 0x80 DUP7 ADD CALLDATALOAD PUSH8 0xFFFFFFFFFFFFFFFF DUP2 GT ISZERO PUSH2 0x1ED5 JUMPI PUSH2 0x1ED4 PUSH2 0x153D JUMP JUMPDEST JUMPDEST PUSH2 0x1EE1 DUP9 DUP3 DUP10 ADD PUSH2 0x19A9 JUMP JUMPDEST SWAP2 POP POP SWAP3 SWAP6 POP SWAP3 SWAP6 SWAP1 SWAP4 POP JUMP JUMPDEST PUSH32 0x4E487B7100000000000000000000000000000000000000000000000000000000 PUSH1 0x0 MSTORE PUSH1 0x22 PUSH1 0x4 MSTORE PUSH1 0x24 PUSH1 0x0 REVERT JUMPDEST PUSH1 0x0 PUSH1 0x2 DUP3 DIV SWAP1 POP PUSH1 0x1 DUP3 AND DUP1 PUSH2 0x1F35 JUMPI PUSH1 0x7F DUP3 AND SWAP2 POP JUMPDEST PUSH1 0x20 DUP3 LT DUP2 SUB PUSH2 0x1F48 JUMPI PUSH2 0x1F47 PUSH2 0x1EEE JUMP JUMPDEST JUMPDEST POP SWAP2 SWAP1 POP JUMP JUMPDEST PUSH2 0x1F57 DUP2 PUSH2 0x1562 JUMP JUMPDEST DUP3 MSTORE POP POP JUMP JUMPDEST PUSH1 0x0 PUSH1 0x40 DUP3 ADD SWAP1 POP PUSH2 0x1F72 PUSH1 0x0 DUP4 ADD DUP6 PUSH2 0x1F4E JUMP JUMPDEST PUSH2 0x1F7F PUSH1 0x20 DUP4 ADD DUP5 PUSH2 0x1F4E JUMP JUMPDEST SWAP4 SWAP3 POP POP POP JUMP JUMPDEST PUSH1 0x0 PUSH1 0x40 DUP3 ADD SWAP1 POP PUSH2 0x1F9B PUSH1 0x0 DUP4 ADD DUP6 PUSH2 0x1616 JUMP JUMPDEST PUSH2 0x1FA8 PUSH1 0x20 DUP4 ADD DUP5 PUSH2 0x1616 JUMP JUMPDEST SWAP4 SWAP3 POP POP POP JUMP JUMPDEST PUSH32 0x4E487B7100000000000000000000000000000000000000000000000000000000 PUSH1 0x0 MSTORE PUSH1 0x32 PUSH1 0x4 MSTORE PUSH1 0x24 PUSH1 0x0 REVERT JUMPDEST PUSH32 0x4E487B7100000000000000000000000000000000000000000000000000000000 PUSH1 0x0 MSTORE PUSH1 0x11 PUSH1 0x4 MSTORE PUSH1 0x24 PUSH1 0x0 REVERT JUMPDEST PUSH1 0x0 PUSH2 0x2018 DUP3 PUSH2 0x15A0 JUMP JUMPDEST SWAP2 POP PUSH32 0xFFFFFFFFFFFFFFFFFFFFFFFFFFFFFFFFFFFFFFFFFFFFFFFFFFFFFFFFFFFFFFFF DUP3 SUB PUSH2 0x204A JUMPI PUSH2 0x2049 PUSH2 0x1FDE JUMP JUMPDEST JUMPDEST PUSH1 0x1 DUP3 ADD SWAP1 POP SWAP2 SWAP1 POP JUMP JUMPDEST PUSH1 0x0 DUP2 SWAP1 POP DUP2 PUSH1 0x0 MSTORE PUSH1 0x20 PUSH1 0x0 KECCAK256 SWAP1 POP SWAP2 SWAP1 POP JUMP JUMPDEST PUSH1 0x0 PUSH1 0x20 PUSH1 0x1F DUP4 ADD DIV SWAP1 POP SWAP2 SWAP1 POP JUMP JUMPDEST PUSH1 0x0 DUP3 DUP3 SHL SWAP1 POP SWAP3 SWAP2 POP POP JUMP JUMPDEST PUSH1 0x0 PUSH1 0x8 DUP4 MUL PUSH2 0x20B7 PUSH32 0xFFFFFFFFFFFFFFFFFFFFFFFFFFFFFFFFFFFFFFFFFFFFFFFFFFFFFFFFFFFFFFFF DUP3 PUSH2 0x207A JUMP JUMPDEST PUSH2 0x20C1 DUP7 DUP4 PUSH2 0x207A JUMP JUMPDEST SWAP6 POP DUP1 NOT DUP5 AND SWAP4 POP DUP1 DUP7 AND DUP5 OR SWAP3 POP POP POP SWAP4 SWAP3 POP POP POP JUMP JUMPDEST PUSH1 0x0 DUP2 SWAP1 POP SWAP2 SWAP1 POP JUMP JUMPDEST PUSH1 0x0 PUSH2 0x20FE PUSH2 0x20F9 PUSH2 0x20F4 DUP5 PUSH2 0x15A0 JUMP JUMPDEST PUSH2 0x20D9 JUMP JUMPDEST PUSH2 0x15A0 JUMP JUMPDEST SWAP1 POP SWAP2 SWAP1 POP JUMP JUMPDEST PUSH1 0x0 DUP2 SWAP1 POP SWAP2 SWAP1 POP JUMP JUMPDEST PUSH2 0x2118 DUP4 PUSH2 0x20E3 JUMP JUMPDEST PUSH2 0x212C PUSH2 0x2124 DUP3 PUSH2 0x2105 JUMP JUMPDEST DUP5 DUP5 SLOAD PUSH2 0x2087 JUMP JUMPDEST DUP3 SSTORE POP POP POP POP JUMP JUMPDEST PUSH1 0x0 SWAP1 JUMP JUMPDEST PUSH2 0x2141 PUSH2 0x2134 JUMP JUMPDEST PUSH2 0x214C DUP2 DUP5 DUP5 PUSH2 0x210F JUMP JUMPDEST POP POP POP JUMP JUMPDEST JUMPDEST DUP2 DUP2 LT ISZERO PUSH2 0x2170 JUMPI PUSH2 0x2165 PUSH1 0x0 DUP3 PUSH2 0x2139 JUMP JUMPDEST PUSH1 0x1 DUP2 ADD SWAP1 POP PUSH2 0x2152 JUMP JUMPDEST POP POP JUMP JUMPDEST PUSH1 0x1F DUP3 GT ISZERO PUSH2 0x21B5 JUMPI PUSH2 0x2186 DUP2 PUSH2 0x2055 JUMP JUMPDEST PUSH2 0x218F DUP5 PUSH2 0x206A JUMP JUMPDEST DUP2 ADD PUSH1 0x20 DUP6 LT ISZERO PUSH2 0x219E JUMPI DUP2 SWAP1 POP JUMPDEST PUSH2 0x21B2 PUSH2 0x21AA DUP6 PUSH2 0x206A JUMP JUMPDEST DUP4 ADD DUP3 PUSH2 0x2151 JUMP JUMPDEST POP POP JUMPDEST POP POP POP JUMP JUMPDEST PUSH1 0x0 DUP3 DUP3 SHR SWAP1 POP SWAP3 SWAP2 POP POP JUMP JUMPDEST PUSH1 0x0 PUSH2 0x21D8 PUSH1 0x0 NOT DUP5 PUSH1 0x8 MUL PUSH2 0x21BA JUMP JUMPDEST NOT DUP1 DUP4 AND SWAP2 POP POP SWAP3 SWAP2 POP POP JUMP JUMPDEST PUSH1 0x0 PUSH2 0x21F1 DUP4 DUP4 PUSH2 0x21C7 JUMP JUMPDEST SWAP2 POP DUP3 PUSH1 0x2 MUL DUP3 OR SWAP1 POP SWAP3 SWAP2 POP POP JUMP JUMPDEST PUSH2 0x220A DUP3 PUSH2 0x1728 JUMP JUMPDEST PUSH8 0xFFFFFFFFFFFFFFFF DUP2 GT ISZERO PUSH2 0x2223 JUMPI PUSH2 0x2222 PUSH2 0x17DF JUMP JUMPDEST JUMPDEST PUSH2 0x222D DUP3 SLOAD PUSH2 0x1F1D JUMP JUMPDEST PUSH2 0x2238 DUP3 DUP3 DUP6 PUSH2 0x2174 JUMP JUMPDEST PUSH1 0x0 PUSH1 0x20 SWAP1 POP PUSH1 0x1F DUP4 GT PUSH1 0x1 DUP2 EQ PUSH2 0x226B JUMPI PUSH1 0x0 DUP5 ISZERO PUSH2 0x2259 JUMPI DUP3 DUP8 ADD MLOAD SWAP1 POP JUMPDEST PUSH2 0x2263 DUP6 DUP3 PUSH2 0x21E5 JUMP JUMPDEST DUP7 SSTORE POP PUSH2 0x22CB JUMP JUMPDEST PUSH1 0x1F NOT DUP5 AND PUSH2 0x2279 DUP7 PUSH2 0x2055 JUMP JUMPDEST PUSH1 0x0 JUMPDEST DUP3 DUP2 LT ISZERO PUSH2 0x22A1 JUMPI DUP5 DUP10 ADD MLOAD DUP3 SSTORE PUSH1 0x1 DUP3 ADD SWAP2 POP PUSH1 0x20 DUP6 ADD SWAP5 POP PUSH1 0x20 DUP2 ADD SWAP1 POP PUSH2 0x227C JUMP JUMPDEST DUP7 DUP4 LT ISZERO PUSH2 0x22BE JUMPI DUP5 DUP10 ADD MLOAD PUSH2 0x22BA PUSH1 0x1F DUP10 AND DUP3 PUSH2 0x21C7 JUMP JUMPDEST DUP4 SSTORE POP JUMPDEST PUSH1 0x1 PUSH1 0x2 DUP9 MUL ADD DUP9 SSTORE POP POP POP JUMPDEST POP POP POP POP POP POP JUMP JUMPDEST PUSH1 0x0 PUSH1 0x20 DUP3 ADD SWAP1 POP PUSH2 0x22E8 PUSH1 0x0 DUP4 ADD DUP5 PUSH2 0x1F4E JUMP JUMPDEST SWAP3 SWAP2 POP POP JUMP JUMPDEST PUSH1 0x0 PUSH1 0x80 DUP3 ADD SWAP1 POP PUSH2 0x2303 PUSH1 0x0 DUP4 ADD DUP8 PUSH2 0x1F4E JUMP JUMPDEST PUSH2 0x2310 PUSH1 0x20 DUP4 ADD DUP7 PUSH2 0x1616 JUMP JUMPDEST PUSH2 0x231D PUSH1 0x40 DUP4 ADD DUP6 PUSH2 0x1616 JUMP JUMPDEST PUSH2 0x232A PUSH1 0x60 DUP4 ADD DUP5 PUSH2 0x1616 JUMP JUMPDEST SWAP6 SWAP5 POP POP POP POP POP JUMP JUMPDEST PUSH1 0x0 PUSH2 0x233E DUP3 PUSH2 0x15A0 JUMP JUMPDEST SWAP2 POP PUSH2 0x2349 DUP4 PUSH2 0x15A0 JUMP JUMPDEST SWAP3 POP DUP3 DUP3 ADD SWAP1 POP DUP1 DUP3 GT ISZERO PUSH2 0x2361 JUMPI PUSH2 0x2360 PUSH2 0x1FDE JUMP JUMPDEST JUMPDEST SWAP3 SWAP2 POP POP JUMP JUMPDEST PUSH1 0x0 PUSH1 0x40 DUP3 ADD SWAP1 POP DUP2 DUP2 SUB PUSH1 0x0 DUP4 ADD MSTORE PUSH2 0x2381 DUP2 DUP6 PUSH2 0x1C41 JUMP JUMPDEST SWAP1 POP DUP2 DUP2 SUB PUSH1 0x20 DUP4 ADD MSTORE PUSH2 0x2395 DUP2 DUP5 PUSH2 0x1C41 JUMP JUMPDEST SWAP1 POP SWAP4 SWAP3 POP POP POP JUMP JUMPDEST PUSH1 0x0 DUP2 MLOAD SWAP1 POP SWAP2 SWAP1 POP JUMP JUMPDEST PUSH1 0x0 DUP3 DUP3 MSTORE PUSH1 0x20 DUP3 ADD SWAP1 POP SWAP3 SWAP2 POP POP JUMP JUMPDEST PUSH1 0x0 PUSH2 0x23C5 DUP3 PUSH2 0x239E JUMP JUMPDEST PUSH2 0x23CF DUP2 DUP6 PUSH2 0x23A9 JUMP JUMPDEST SWAP4 POP PUSH2 0x23DF DUP2 DUP6 PUSH1 0x20 DUP7 ADD PUSH2 0x1744 JUMP JUMPDEST PUSH2 0x23E8 DUP2 PUSH2 0x176E JUMP JUMPDEST DUP5 ADD SWAP2 POP POP SWAP3 SWAP2 POP POP JUMP JUMPDEST PUSH1 0x0 PUSH1 0xA0 DUP3 ADD SWAP1 POP PUSH2 0x2408 PUSH1 0x0 DUP4 ADD DUP9 PUSH2 0x1F4E JUMP JUMPDEST PUSH2 0x2415 PUSH1 0x20 DUP4 ADD DUP8 PUSH2 0x1F4E JUMP JUMPDEST PUSH2 0x2422 PUSH1 0x40 DUP4 ADD DUP7 PUSH2 0x1616 JUMP JUMPDEST PUSH2 0x242F PUSH1 0x60 DUP4 ADD DUP6 PUSH2 0x1616 JUMP JUMPDEST DUP2 DUP2 SUB PUSH1 0x80 DUP4 ADD MSTORE PUSH2 0x2441 DUP2 DUP5 PUSH2 0x23BA JUMP JUMPDEST SWAP1 POP SWAP7 SWAP6 POP POP POP POP POP POP JUMP JUMPDEST PUSH1 0x0 DUP2 MLOAD SWAP1 POP PUSH2 0x245C DUP2 PUSH2 0x166C JUMP JUMPDEST SWAP3 SWAP2 POP POP JUMP JUMPDEST PUSH1 0x0 PUSH1 0x20 DUP3 DUP5 SUB SLT ISZERO PUSH2 0x2478 JUMPI PUSH2 0x2477 PUSH2 0x1538 JUMP JUMPDEST JUMPDEST PUSH1 0x0 PUSH2 0x2486 DUP5 DUP3 DUP6 ADD PUSH2 0x244D JUMP JUMPDEST SWAP2 POP POP SWAP3 SWAP2 POP POP JUMP JUMPDEST PUSH1 0x0 PUSH1 0xA0 DUP3 ADD SWAP1 POP PUSH2 0x24A4 PUSH1 0x0 DUP4 ADD DUP9 PUSH2 0x1F4E JUMP JUMPDEST PUSH2 0x24B1 PUSH1 0x20 DUP4 ADD DUP8 PUSH2 0x1F4E JUMP JUMPDEST DUP2 DUP2 SUB PUSH1 0x40 DUP4 ADD MSTORE PUSH2 0x24C3 DUP2 DUP7 PUSH2 0x1C41 JUMP JUMPDEST SWAP1 POP DUP2 DUP2 SUB PUSH1 0x60 DUP4 ADD MSTORE PUSH2 0x24D7 DUP2 DUP6 PUSH2 0x1C41 JUMP JUMPDEST SWAP1 POP DUP2 DUP2 SUB PUSH1 0x80 DUP4 ADD MSTORE PUSH2 0x24EB DUP2 DUP5 PUSH2 0x23BA JUMP JUMPDEST SWAP1 POP SWAP7 SWAP6 POP POP POP POP POP POP JUMP INVALID LOG2 PUSH5 0x6970667358 0x22 SLT KECCAK256 0xAA STOP OR 0x5C 0xCF 0xE6 0xC2 0xBF DUP16 0xB9 MSIZE CALL GAS 0xDD 0xB8 CHAINID MUL 0xE9 SWAP1 0xD2 0xEE ADDRESS EXTCODESIZE 0xCE SGT 0x5E CALL STATICCALL 0xCA SWAP2 PUSH16 0x9364736F6C6343000814003300000000 "
        },
        "gasEstimates": {
          "creation": {
            "codeDepositCost": "1903400",
            "executionCost": "infinite",
            "totalCost": "infinite"
          },
          "external": {
            "balanceOf(address,uint256)": "infinite",
            "balanceOfBatch(address[],uint256[])": "infinite",
            "exists(uint256)": "2822",
            "isApprovedForAll(address,address)": "infinite",
            "isbn(uint256)": "infinite",
            "mint(string)": "infinite",
            "safeBatchTransferFrom(address,address,uint256[],uint256[],bytes)": "infinite",
            "safeTransferFrom(address,address,uint256,uint256,bytes)": "infinite",
            "setApprovalForAll(address,bool)": "infinite",
            "supportsInterface(bytes4)": "796",
            "uri(uint256)": "infinite"
          }
        },
        "methodIdentifiers": {
          "balanceOf(address,uint256)": "00fdd58e",
          "balanceOfBatch(address[],uint256[])": "4e1273f4",
          "exists(uint256)": "4f558e79",
          "isApprovedForAll(address,address)": "e985e9c5",
          "isbn(uint256)": "dde6747e",
          "mint(string)": "d85d3d27",
          "safeBatchTransferFrom(address,address,uint256[],uint256[],bytes)": "2eb2c2d6",
          "safeTransferFrom(address,address,uint256,uint256,bytes)": "f242432a",
          "setApprovalForAll(address,bool)": "a22cb465",
          "supportsInterface(bytes4)": "01ffc9a7",
          "uri(uint256)": "0e89341c"
        }
      },
      "storageLayout": {
        "storage": [
          {
            "astId": 178,
            "contract": "contracts/PaperBook.sol:PaperBook",
            "label": "_balances",
            "offset": 0,
            "slot": "0",
            "type": "t_mapping(t_uint256,t_mapping(t_address,t_uint256))"
          },
          {
            "astId": 184,
            "contract": "contracts/PaperBook.sol:PaperBook",
            "label": "_operatorApprovals",
            "offset": 0,
            "slot": "1",
            "type": "t_mapping(t_address,t_mapping(t_address,t_bool))"
          },
          {
            "astId": 186,
            "contract": "contracts/PaperBook.sol:PaperBook",
            "label": "_uri",
            "offset": 0,
            "slot": "2",
            "type": "t_string_storage"
          },
          {
            "astId": 2789,
            "contract": "contracts/PaperBook.sol:PaperBook",
            "label": "index",
            "offset": 0,
            "slot": "3",
            "type": "t_uint256"
          },
          {
            "astId": 2793,
            "contract": "contracts/PaperBook.sol:PaperBook",
            "label": "_exists",
            "offset": 0,
            "slot": "4",
            "type": "t_mapping(t_uint256,t_bool)"
          },
          {
            "astId": 2797,
            "contract": "contracts/PaperBook.sol:PaperBook",
            "label": "_isbn",
            "offset": 0,
            "slot": "5",
            "type": "t_mapping(t_uint256,t_string_storage)"
          }
        ],
        "types": {
          "t_address": {
            "encoding": "inplace",
            "label": "address",
            "numberOfBytes": "20"
          },
          "t_bool": {
            "encoding": "inplace",
            "label": "bool",
            "numberOfBytes": "1"
          },
          "t_mapping(t_address,t_bool)": {
            "encoding": "mapping",
            "key": "t_address",
            "label": "mapping(address => bool)",
            "numberOfBytes": "32",
            "value": "t_bool"
          },
          "t_mapping(t_address,t_mapping(t_address,t_bool))": {
            "encoding": "mapping",
            "key": "t_address",
            "label": "mapping(address => mapping(address => bool))",
            "numberOfBytes": "32",
            "value": "t_mapping(t_address,t_bool)"
          },
          "t_mapping(t_address,t_uint256)": {
            "encoding": "mapping",
            "key": "t_address",
            "label": "mapping(address => uint256)",
            "numberOfBytes": "32",
            "value": "t_uint256"
          },
          "t_mapping(t_uint256,t_bool)": {
            "encoding": "mapping",
            "key": "t_uint256",
            "label": "mapping(uint256 => bool)",
            "numberOfBytes": "32",
            "value": "t_bool"
          },
          "t_mapping(t_uint256,t_mapping(t_address,t_uint256))": {
            "encoding": "mapping",
            "key": "t_uint256",
            "label": "mapping(uint256 => mapping(address => uint256))",
            "numberOfBytes": "32",
            "value": "t_mapping(t_address,t_uint256)"
          },
          "t_mapping(t_uint256,t_string_storage)": {
            "encoding": "mapping",
            "key": "t_uint256",
            "label": "mapping(uint256 => string)",
            "numberOfBytes": "32",
            "value": "t_string_storage"
          },
          "t_string_storage": {
            "encoding": "bytes",
            "label": "string",
            "numberOfBytes": "32"
          },
          "t_uint256": {
            "encoding": "inplace",
            "label": "uint256",
            "numberOfBytes": "32"
          }
        }
      },
      "userdoc": {
        "kind": "user",
        "methods": {},
        "version": 1
      }
    }
  }
}