{
  "address": "0x31A5C48394001332a74F0422061F7CDe597494f7",
  "abi": [
    {
      "inputs": [
        {
          "internalType": "address",
          "name": "defaultAdmin",
          "type": "address"
        },
        {
          "internalType": "address",
          "name": "pauser",
          "type": "address"
        },
        {
          "internalType": "address",
          "name": "minter",
          "type": "address"
        }
      ],
      "stateMutability": "nonpayable",
      "type": "constructor"
    },
    {
      "inputs": [],
      "name": "AccessControlBadConfirmation",
      "type": "error"
    },
    {
      "inputs": [
        {
          "internalType": "address",
          "name": "account",
          "type": "address"
        },
        {
          "internalType": "bytes32",
          "name": "neededRole",
          "type": "bytes32"
        }
      ],
      "name": "AccessControlUnauthorizedAccount",
      "type": "error"
    },
    {
      "inputs": [
        {
          "internalType": "address",
          "name": "sender",
          "type": "address"
        },
        {
          "internalType": "uint256",
          "name": "balance",
          "type": "uint256"
        },
        {
          "internalType": "uint256",
          "name": "needed",
          "type": "uint256"
        },
        {
          "internalType": "uint256",
          "name": "tokenId",
          "type": "uint256"
        }
      ],
      "name": "ERC1155InsufficientBalance",
      "type": "error"
    },
    {
      "inputs": [
        {
          "internalType": "address",
          "name": "approver",
          "type": "address"
        }
      ],
      "name": "ERC1155InvalidApprover",
      "type": "error"
    },
    {
      "inputs": [
        {
          "internalType": "uint256",
          "name": "idsLength",
          "type": "uint256"
        },
        {
          "internalType": "uint256",
          "name": "valuesLength",
          "type": "uint256"
        }
      ],
      "name": "ERC1155InvalidArrayLength",
      "type": "error"
    },
    {
      "inputs": [
        {
          "internalType": "address",
          "name": "operator",
          "type": "address"
        }
      ],
      "name": "ERC1155InvalidOperator",
      "type": "error"
    },
    {
      "inputs": [
        {
          "internalType": "address",
          "name": "receiver",
          "type": "address"
        }
      ],
      "name": "ERC1155InvalidReceiver",
      "type": "error"
    },
    {
      "inputs": [
        {
          "internalType": "address",
          "name": "sender",
          "type": "address"
        }
      ],
      "name": "ERC1155InvalidSender",
      "type": "error"
    },
    {
      "inputs": [
        {
          "internalType": "address",
          "name": "operator",
          "type": "address"
        },
        {
          "internalType": "address",
          "name": "owner",
          "type": "address"
        }
      ],
      "name": "ERC1155MissingApprovalForAll",
      "type": "error"
    },
    {
      "inputs": [],
      "name": "EnforcedPause",
      "type": "error"
    },
    {
      "inputs": [],
      "name": "ExpectedPause",
      "type": "error"
    },
    {
      "anonymous": false,
      "inputs": [
        {
          "indexed": true,
          "internalType": "address",
          "name": "account",
          "type": "address"
        },
        {
          "indexed": true,
          "internalType": "address",
          "name": "operator",
          "type": "address"
        },
        {
          "indexed": false,
          "internalType": "bool",
          "name": "approved",
          "type": "bool"
        }
      ],
      "name": "ApprovalForAll",
      "type": "event"
    },
    {
      "anonymous": false,
      "inputs": [
        {
          "indexed": false,
          "internalType": "address",
          "name": "account",
          "type": "address"
        }
      ],
      "name": "Paused",
      "type": "event"
    },
    {
      "anonymous": false,
      "inputs": [
        {
          "indexed": true,
          "internalType": "bytes32",
          "name": "role",
          "type": "bytes32"
        },
        {
          "indexed": true,
          "internalType": "bytes32",
          "name": "previousAdminRole",
          "type": "bytes32"
        },
        {
          "indexed": true,
          "internalType": "bytes32",
          "name": "newAdminRole",
          "type": "bytes32"
        }
      ],
      "name": "RoleAdminChanged",
      "type": "event"
    },
    {
      "anonymous": false,
      "inputs": [
        {
          "indexed": true,
          "internalType": "bytes32",
          "name": "role",
          "type": "bytes32"
        },
        {
          "indexed": true,
          "internalType": "address",
          "name": "account",
          "type": "address"
        },
        {
          "indexed": true,
          "internalType": "address",
          "name": "sender",
          "type": "address"
        }
      ],
      "name": "RoleGranted",
      "type": "event"
    },
    {
      "anonymous": false,
      "inputs": [
        {
          "indexed": true,
          "internalType": "bytes32",
          "name": "role",
          "type": "bytes32"
        },
        {
          "indexed": true,
          "internalType": "address",
          "name": "account",
          "type": "address"
        },
        {
          "indexed": true,
          "internalType": "address",
          "name": "sender",
          "type": "address"
        }
      ],
      "name": "RoleRevoked",
      "type": "event"
    },
    {
      "anonymous": false,
      "inputs": [
        {
          "indexed": true,
          "internalType": "address",
          "name": "operator",
          "type": "address"
        },
        {
          "indexed": true,
          "internalType": "address",
          "name": "from",
          "type": "address"
        },
        {
          "indexed": true,
          "internalType": "address",
          "name": "to",
          "type": "address"
        },
        {
          "indexed": false,
          "internalType": "uint256[]",
          "name": "ids",
          "type": "uint256[]"
        },
        {
          "indexed": false,
          "internalType": "uint256[]",
          "name": "values",
          "type": "uint256[]"
        }
      ],
      "name": "TransferBatch",
      "type": "event"
    },
    {
      "anonymous": false,
      "inputs": [
        {
          "indexed": true,
          "internalType": "address",
          "name": "operator",
          "type": "address"
        },
        {
          "indexed": true,
          "internalType": "address",
          "name": "from",
          "type": "address"
        },
        {
          "indexed": true,
          "internalType": "address",
          "name": "to",
          "type": "address"
        },
        {
          "indexed": false,
          "internalType": "uint256",
          "name": "id",
          "type": "uint256"
        },
        {
          "indexed": false,
          "internalType": "uint256",
          "name": "value",
          "type": "uint256"
        }
      ],
      "name": "TransferSingle",
      "type": "event"
    },
    {
      "anonymous": false,
      "inputs": [
        {
          "indexed": false,
          "internalType": "string",
          "name": "value",
          "type": "string"
        },
        {
          "indexed": true,
          "internalType": "uint256",
          "name": "id",
          "type": "uint256"
        }
      ],
      "name": "URI",
      "type": "event"
    },
    {
      "anonymous": false,
      "inputs": [
        {
          "indexed": false,
          "internalType": "address",
          "name": "account",
          "type": "address"
        }
      ],
      "name": "Unpaused",
      "type": "event"
    },
    {
      "inputs": [],
      "name": "DEFAULT_ADMIN_ROLE",
      "outputs": [
        {
          "internalType": "bytes32",
          "name": "",
          "type": "bytes32"
        }
      ],
      "stateMutability": "view",
      "type": "function"
    },
    {
      "inputs": [],
      "name": "MINTER_ROLE",
      "outputs": [
        {
          "internalType": "bytes32",
          "name": "",
          "type": "bytes32"
        }
      ],
      "stateMutability": "view",
      "type": "function"
    },
    {
      "inputs": [],
      "name": "PAUSER_ROLE",
      "outputs": [
        {
          "internalType": "bytes32",
          "name": "",
          "type": "bytes32"
        }
      ],
      "stateMutability": "view",
      "type": "function"
    },
    {
      "inputs": [],
      "name": "URI_SETTER_ROLE",
      "outputs": [
        {
          "internalType": "bytes32",
          "name": "",
          "type": "bytes32"
        }
      ],
      "stateMutability": "view",
      "type": "function"
    },
    {
      "inputs": [
        {
          "internalType": "address",
          "name": "account",
          "type": "address"
        },
        {
          "internalType": "uint256",
          "name": "id",
          "type": "uint256"
        }
      ],
      "name": "balanceOf",
      "outputs": [
        {
          "internalType": "uint256",
          "name": "",
          "type": "uint256"
        }
      ],
      "stateMutability": "view",
      "type": "function"
    },
    {
      "inputs": [
        {
          "internalType": "address[]",
          "name": "accounts",
          "type": "address[]"
        },
        {
          "internalType": "uint256[]",
          "name": "ids",
          "type": "uint256[]"
        }
      ],
      "name": "balanceOfBatch",
      "outputs": [
        {
          "internalType": "uint256[]",
          "name": "",
          "type": "uint256[]"
        }
      ],
      "stateMutability": "view",
      "type": "function"
    },
    {
      "inputs": [
        {
          "internalType": "address",
          "name": "account",
          "type": "address"
        },
        {
          "internalType": "uint256",
          "name": "id",
          "type": "uint256"
        },
        {
          "internalType": "uint256",
          "name": "value",
          "type": "uint256"
        }
      ],
      "name": "burn",
      "outputs": [],
      "stateMutability": "nonpayable",
      "type": "function"
    },
    {
      "inputs": [
        {
          "internalType": "address",
          "name": "account",
          "type": "address"
        },
        {
          "internalType": "uint256[]",
          "name": "ids",
          "type": "uint256[]"
        },
        {
          "internalType": "uint256[]",
          "name": "values",
          "type": "uint256[]"
        }
      ],
      "name": "burnBatch",
      "outputs": [],
      "stateMutability": "nonpayable",
      "type": "function"
    },
    {
      "inputs": [
        {
          "internalType": "uint256",
          "name": "id",
          "type": "uint256"
        }
      ],
      "name": "exists",
      "outputs": [
        {
          "internalType": "bool",
          "name": "",
          "type": "bool"
        }
      ],
      "stateMutability": "view",
      "type": "function"
    },
    {
      "inputs": [
        {
          "internalType": "bytes32",
          "name": "role",
          "type": "bytes32"
        }
      ],
      "name": "getRoleAdmin",
      "outputs": [
        {
          "internalType": "bytes32",
          "name": "",
          "type": "bytes32"
        }
      ],
      "stateMutability": "view",
      "type": "function"
    },
    {
      "inputs": [
        {
          "internalType": "bytes32",
          "name": "role",
          "type": "bytes32"
        },
        {
          "internalType": "address",
          "name": "account",
          "type": "address"
        }
      ],
      "name": "grantRole",
      "outputs": [],
      "stateMutability": "nonpayable",
      "type": "function"
    },
    {
      "inputs": [
        {
          "internalType": "bytes32",
          "name": "role",
          "type": "bytes32"
        },
        {
          "internalType": "address",
          "name": "account",
          "type": "address"
        }
      ],
      "name": "hasRole",
      "outputs": [
        {
          "internalType": "bool",
          "name": "",
          "type": "bool"
        }
      ],
      "stateMutability": "view",
      "type": "function"
    },
    {
      "inputs": [
        {
          "internalType": "address",
          "name": "account",
          "type": "address"
        },
        {
          "internalType": "address",
          "name": "operator",
          "type": "address"
        }
      ],
      "name": "isApprovedForAll",
      "outputs": [
        {
          "internalType": "bool",
          "name": "",
          "type": "bool"
        }
      ],
      "stateMutability": "view",
      "type": "function"
    },
    {
      "inputs": [
        {
          "internalType": "address",
          "name": "account",
          "type": "address"
        },
        {
          "internalType": "uint256",
          "name": "id",
          "type": "uint256"
        },
        {
          "internalType": "uint256",
          "name": "amount",
          "type": "uint256"
        },
        {
          "internalType": "bytes",
          "name": "data",
          "type": "bytes"
        }
      ],
      "name": "mint",
      "outputs": [],
      "stateMutability": "nonpayable",
      "type": "function"
    },
    {
      "inputs": [
        {
          "internalType": "address",
          "name": "to",
          "type": "address"
        },
        {
          "internalType": "uint256[]",
          "name": "ids",
          "type": "uint256[]"
        },
        {
          "internalType": "uint256[]",
          "name": "amounts",
          "type": "uint256[]"
        },
        {
          "internalType": "bytes",
          "name": "data",
          "type": "bytes"
        }
      ],
      "name": "mintBatch",
      "outputs": [],
      "stateMutability": "nonpayable",
      "type": "function"
    },
    {
      "inputs": [],
      "name": "pause",
      "outputs": [],
      "stateMutability": "nonpayable",
      "type": "function"
    },
    {
      "inputs": [],
      "name": "paused",
      "outputs": [
        {
          "internalType": "bool",
          "name": "",
          "type": "bool"
        }
      ],
      "stateMutability": "view",
      "type": "function"
    },
    {
      "inputs": [
        {
          "internalType": "bytes32",
          "name": "role",
          "type": "bytes32"
        },
        {
          "internalType": "address",
          "name": "callerConfirmation",
          "type": "address"
        }
      ],
      "name": "renounceRole",
      "outputs": [],
      "stateMutability": "nonpayable",
      "type": "function"
    },
    {
      "inputs": [
        {
          "internalType": "bytes32",
          "name": "role",
          "type": "bytes32"
        },
        {
          "internalType": "address",
          "name": "account",
          "type": "address"
        }
      ],
      "name": "revokeRole",
      "outputs": [],
      "stateMutability": "nonpayable",
      "type": "function"
    },
    {
      "inputs": [
        {
          "internalType": "address",
          "name": "from",
          "type": "address"
        },
        {
          "internalType": "address",
          "name": "to",
          "type": "address"
        },
        {
          "internalType": "uint256[]",
          "name": "ids",
          "type": "uint256[]"
        },
        {
          "internalType": "uint256[]",
          "name": "values",
          "type": "uint256[]"
        },
        {
          "internalType": "bytes",
          "name": "data",
          "type": "bytes"
        }
      ],
      "name": "safeBatchTransferFrom",
      "outputs": [],
      "stateMutability": "nonpayable",
      "type": "function"
    },
    {
      "inputs": [
        {
          "internalType": "address",
          "name": "from",
          "type": "address"
        },
        {
          "internalType": "address",
          "name": "to",
          "type": "address"
        },
        {
          "internalType": "uint256",
          "name": "id",
          "type": "uint256"
        },
        {
          "internalType": "uint256",
          "name": "value",
          "type": "uint256"
        },
        {
          "internalType": "bytes",
          "name": "data",
          "type": "bytes"
        }
      ],
      "name": "safeTransferFrom",
      "outputs": [],
      "stateMutability": "nonpayable",
      "type": "function"
    },
    {
      "inputs": [
        {
          "internalType": "address",
          "name": "operator",
          "type": "address"
        },
        {
          "internalType": "bool",
          "name": "approved",
          "type": "bool"
        }
      ],
      "name": "setApprovalForAll",
      "outputs": [],
      "stateMutability": "nonpayable",
      "type": "function"
    },
    {
      "inputs": [
        {
          "internalType": "string",
          "name": "newuri",
          "type": "string"
        }
      ],
      "name": "setURI",
      "outputs": [],
      "stateMutability": "nonpayable",
      "type": "function"
    },
    {
      "inputs": [
        {
          "internalType": "bytes4",
          "name": "interfaceId",
          "type": "bytes4"
        }
      ],
      "name": "supportsInterface",
      "outputs": [
        {
          "internalType": "bool",
          "name": "",
          "type": "bool"
        }
      ],
      "stateMutability": "view",
      "type": "function"
    },
    {
      "inputs": [],
      "name": "totalSupply",
      "outputs": [
        {
          "internalType": "uint256",
          "name": "",
          "type": "uint256"
        }
      ],
      "stateMutability": "view",
      "type": "function"
    },
    {
      "inputs": [
        {
          "internalType": "uint256",
          "name": "id",
          "type": "uint256"
        }
      ],
      "name": "totalSupply",
      "outputs": [
        {
          "internalType": "uint256",
          "name": "",
          "type": "uint256"
        }
      ],
      "stateMutability": "view",
      "type": "function"
    },
    {
      "inputs": [],
      "name": "unpause",
      "outputs": [],
      "stateMutability": "nonpayable",
      "type": "function"
    },
    {
      "inputs": [
        {
          "internalType": "uint256",
          "name": "",
          "type": "uint256"
        }
      ],
      "name": "uri",
      "outputs": [
        {
          "internalType": "string",
          "name": "",
          "type": "string"
        }
      ],
      "stateMutability": "view",
      "type": "function"
    }
  ],
  "transactionHash": "0x5d6df2670eef7b577bcea0feca72e47ca3d51ac097bd7d2fa715e769884e56c9",
  "args": [
    "0xaEe80Af008ed6708B8161F8d0Ff0809eaa2b4c2a",
    "0xaEe80Af008ed6708B8161F8d0Ff0809eaa2b4c2a",
    "0xaEe80Af008ed6708B8161F8d0Ff0809eaa2b4c2a"
  ],
  "numDeployments": 1,
  "solcInputHash": "ea38ab3d17c7a1bd5663c03f291b1131",
  "bytecode": "0x60806040523480156200001157600080fd5b5060405162003d3438038062003d34833981810160405281019062000037919062000315565b6040518060400160405280600881526020017f746573742d7572690000000000000000000000000000000000000000000000008152506200007e816200011f60201b60201c565b506000600460006101000a81548160ff021916908315150217905550620000af6000801b846200013460201b60201c565b50620000e27f65d7a28e3265b37a6474929f336521b332c1681b933f6cb9f3376673440d862a836200013460201b60201c565b50620001157f9f2df0fed2c77648de5860a4cc508cd0818c85b8b8a1ab4ceeef8d981c8956a6826200013460201b60201c565b50505050620006d2565b8060029081620001309190620005eb565b5050565b60006200014883836200023860201b60201c565b6200022d5760016003600085815260200190815260200160002060000160008473ffffffffffffffffffffffffffffffffffffffff1673ffffffffffffffffffffffffffffffffffffffff16815260200190815260200160002060006101000a81548160ff021916908315150217905550620001c9620002a360201b60201c565b73ffffffffffffffffffffffffffffffffffffffff168273ffffffffffffffffffffffffffffffffffffffff16847f2f8788117e7eff1d82e926ec794901d17c78024a50270940304540a733656f0d60405160405180910390a46001905062000232565b600090505b92915050565b60006003600084815260200190815260200160002060000160008373ffffffffffffffffffffffffffffffffffffffff1673ffffffffffffffffffffffffffffffffffffffff16815260200190815260200160002060009054906101000a900460ff16905092915050565b600033905090565b600080fd5b600073ffffffffffffffffffffffffffffffffffffffff82169050919050565b6000620002dd82620002b0565b9050919050565b620002ef81620002d0565b8114620002fb57600080fd5b50565b6000815190506200030f81620002e4565b92915050565b600080600060608486031215620003315762000330620002ab565b5b60006200034186828701620002fe565b93505060206200035486828701620002fe565b92505060406200036786828701620002fe565b9150509250925092565b600081519050919050565b7f4e487b7100000000000000000000000000000000000000000000000000000000600052604160045260246000fd5b7f4e487b7100000000000000000000000000000000000000000000000000000000600052602260045260246000fd5b60006002820490506001821680620003f357607f821691505b602082108103620004095762000408620003ab565b5b50919050565b60008190508160005260206000209050919050565b60006020601f8301049050919050565b600082821b905092915050565b600060088302620004737fffffffffffffffffffffffffffffffffffffffffffffffffffffffffffffffff8262000434565b6200047f868362000434565b95508019841693508086168417925050509392505050565b6000819050919050565b6000819050919050565b6000620004cc620004c6620004c08462000497565b620004a1565b62000497565b9050919050565b6000819050919050565b620004e883620004ab565b62000500620004f782620004d3565b84845462000441565b825550505050565b600090565b6200051762000508565b62000524818484620004dd565b505050565b5b818110156200054c57620005406000826200050d565b6001810190506200052a565b5050565b601f8211156200059b5762000565816200040f565b620005708462000424565b8101602085101562000580578190505b620005986200058f8562000424565b83018262000529565b50505b505050565b600082821c905092915050565b6000620005c060001984600802620005a0565b1980831691505092915050565b6000620005db8383620005ad565b9150826002028217905092915050565b620005f68262000371565b67ffffffffffffffff8111156200061257620006116200037c565b5b6200061e8254620003da565b6200062b82828562000550565b600060209050601f8311600181146200066357600084156200064e578287015190505b6200065a8582620005cd565b865550620006ca565b601f19841662000673866200040f565b60005b828110156200069d5784890151825560018201915060208501945060208101905062000676565b86831015620006bd5784890151620006b9601f891682620005ad565b8355505b6001600288020188555050505b505050505050565b61365280620006e26000396000f3fe608060405234801561001057600080fd5b50600436106101c35760003560e01c80636b20c454116100f9578063bd85b03911610097578063e63ab1e911610071578063e63ab1e9146104ee578063e985e9c51461050c578063f242432a1461053c578063f5298aca14610558576101c3565b8063bd85b03914610484578063d5391393146104b4578063d547741f146104d2576101c3565b80638456cb59116100d35780638456cb591461041057806391d148541461041a578063a217fddf1461044a578063a22cb46514610468576101c3565b80636b20c454146103ba578063731133e9146103d65780637f345710146103f2576101c3565b80632eb2c2d6116101665780633f4ba83a116101405780633f4ba83a146103325780634e1273f41461033c5780634f558e791461036c5780635c975abb1461039c576101c3565b80632eb2c2d6146102de5780632f2ff15d146102fa57806336568abe14610316576101c3565b80630e89341c116101a25780630e89341c1461024457806318160ddd146102745780631f7fdffa14610292578063248a9ca3146102ae576101c3565b8062fdd58e146101c857806301ffc9a7146101f857806302fe530514610228575b600080fd5b6101e260048036038101906101dd91906123e9565b610574565b6040516101ef9190612438565b60405180910390f35b610212600480360381019061020d91906124ab565b6105ce565b60405161021f91906124f3565b60405180910390f35b610242600480360381019061023d9190612654565b6105e0565b005b61025e6004803603810190610259919061269d565b610617565b60405161026b9190612749565b60405180910390f35b61027c6106ab565b6040516102899190612438565b60405180910390f35b6102ac60048036038101906102a791906128d4565b6106b5565b005b6102c860048036038101906102c391906129c5565b6106f2565b6040516102d59190612a01565b60405180910390f35b6102f860048036038101906102f39190612a1c565b610712565b005b610314600480360381019061030f9190612aeb565b6107ba565b005b610330600480360381019061032b9190612aeb565b6107dc565b005b61033a610857565b005b61035660048036038101906103519190612bee565b61088c565b6040516103639190612d24565b60405180910390f35b6103866004803603810190610381919061269d565b61099b565b60405161039391906124f3565b60405180910390f35b6103a46109af565b6040516103b191906124f3565b60405180910390f35b6103d460048036038101906103cf9190612d46565b6109c6565b005b6103f060048036038101906103eb9190612dd1565b610a72565b005b6103fa610aaf565b6040516104079190612a01565b60405180910390f35b610418610ad3565b005b610434600480360381019061042f9190612aeb565b610b08565b60405161044191906124f3565b60405180910390f35b610452610b73565b60405161045f9190612a01565b60405180910390f35b610482600480360381019061047d9190612e80565b610b7a565b005b61049e6004803603810190610499919061269d565b610b90565b6040516104ab9190612438565b60405180910390f35b6104bc610bad565b6040516104c99190612a01565b60405180910390f35b6104ec60048036038101906104e79190612aeb565b610bd1565b005b6104f6610bf3565b6040516105039190612a01565b60405180910390f35b61052660048036038101906105219190612ec0565b610c17565b60405161053391906124f3565b60405180910390f35b61055660048036038101906105519190612f00565b610cab565b005b610572600480360381019061056d9190612f97565b610d53565b005b600080600083815260200190815260200160002060008473ffffffffffffffffffffffffffffffffffffffff1673ffffffffffffffffffffffffffffffffffffffff16815260200190815260200160002054905092915050565b60006105d982610dff565b9050919050565b7f7804d923f43a17d325d77e781528e0793b2edd9890ab45fc64efd7b4b427744c61060a81610e79565b61061382610e8d565b5050565b60606002805461062690613019565b80601f016020809104026020016040519081016040528092919081815260200182805461065290613019565b801561069f5780601f106106745761010080835404028352916020019161069f565b820191906000526020600020905b81548152906001019060200180831161068257829003601f168201915b50505050509050919050565b6000600654905090565b7f9f2df0fed2c77648de5860a4cc508cd0818c85b8b8a1ab4ceeef8d981c8956a66106df81610e79565b6106eb85858585610ea0565b5050505050565b600060036000838152602001908152602001600020600101549050919050565b600061071c610f26565b90508073ffffffffffffffffffffffffffffffffffffffff168673ffffffffffffffffffffffffffffffffffffffff1614158015610761575061075f8682610c17565b155b156107a55780866040517fe237d92200000000000000000000000000000000000000000000000000000000815260040161079c929190613059565b60405180910390fd5b6107b28686868686610f2e565b505050505050565b6107c3826106f2565b6107cc81610e79565b6107d68383611026565b50505050565b6107e4610f26565b73ffffffffffffffffffffffffffffffffffffffff168173ffffffffffffffffffffffffffffffffffffffff1614610848576040517f6697b23200000000000000000000000000000000000000000000000000000000815260040160405180910390fd5b6108528282611118565b505050565b7f65d7a28e3265b37a6474929f336521b332c1681b933f6cb9f3376673440d862a61088181610e79565b61088961120b565b50565b606081518351146108d857815183516040517f5b0599910000000000000000000000000000000000000000000000000000000081526004016108cf929190613082565b60405180910390fd5b6000835167ffffffffffffffff8111156108f5576108f4612529565b5b6040519080825280602002602001820160405280156109235781602001602082028036833780820191505090505b50905060005b845181101561099057610960610948828761126e90919063ffffffff16565b61095b838761128290919063ffffffff16565b610574565b828281518110610973576109726130ab565b5b6020026020010181815250508061098990613109565b9050610929565b508091505092915050565b6000806109a783610b90565b119050919050565b6000600460009054906101000a900460ff16905090565b6109ce610f26565b73ffffffffffffffffffffffffffffffffffffffff168373ffffffffffffffffffffffffffffffffffffffff1614158015610a175750610a1583610a10610f26565b610c17565b155b15610a6257610a24610f26565b836040517fe237d922000000000000000000000000000000000000000000000000000000008152600401610a59929190613059565b60405180910390fd5b610a6d838383611296565b505050565b7f9f2df0fed2c77648de5860a4cc508cd0818c85b8b8a1ab4ceeef8d981c8956a6610a9c81610e79565b610aa88585858561132a565b5050505050565b7f7804d923f43a17d325d77e781528e0793b2edd9890ab45fc64efd7b4b427744c81565b7f65d7a28e3265b37a6474929f336521b332c1681b933f6cb9f3376673440d862a610afd81610e79565b610b056113c3565b50565b60006003600084815260200190815260200160002060000160008373ffffffffffffffffffffffffffffffffffffffff1673ffffffffffffffffffffffffffffffffffffffff16815260200190815260200160002060009054906101000a900460ff16905092915050565b6000801b81565b610b8c610b85610f26565b8383611426565b5050565b600060056000838152602001908152602001600020549050919050565b7f9f2df0fed2c77648de5860a4cc508cd0818c85b8b8a1ab4ceeef8d981c8956a681565b610bda826106f2565b610be381610e79565b610bed8383611118565b50505050565b7f65d7a28e3265b37a6474929f336521b332c1681b933f6cb9f3376673440d862a81565b6000600160008473ffffffffffffffffffffffffffffffffffffffff1673ffffffffffffffffffffffffffffffffffffffff16815260200190815260200160002060008373ffffffffffffffffffffffffffffffffffffffff1673ffffffffffffffffffffffffffffffffffffffff16815260200190815260200160002060009054906101000a900460ff16905092915050565b6000610cb5610f26565b90508073ffffffffffffffffffffffffffffffffffffffff168673ffffffffffffffffffffffffffffffffffffffff1614158015610cfa5750610cf88682610c17565b155b15610d3e5780866040517fe237d922000000000000000000000000000000000000000000000000000000008152600401610d35929190613059565b60405180910390fd5b610d4b8686868686611596565b505050505050565b610d5b610f26565b73ffffffffffffffffffffffffffffffffffffffff168373ffffffffffffffffffffffffffffffffffffffff1614158015610da45750610da283610d9d610f26565b610c17565b155b15610def57610db1610f26565b836040517fe237d922000000000000000000000000000000000000000000000000000000008152600401610de6929190613059565b60405180910390fd5b610dfa8383836116a1565b505050565b60007f7965db0b000000000000000000000000000000000000000000000000000000007bffffffffffffffffffffffffffffffffffffffffffffffffffffffff1916827bffffffffffffffffffffffffffffffffffffffffffffffffffffffff19161480610e725750610e7182611748565b5b9050919050565b610e8a81610e85610f26565b61182a565b50565b8060029081610e9c91906132fd565b5050565b600073ffffffffffffffffffffffffffffffffffffffff168473ffffffffffffffffffffffffffffffffffffffff1603610f125760006040517f57f447ce000000000000000000000000000000000000000000000000000000008152600401610f0991906133cf565b60405180910390fd5b610f2060008585858561187b565b50505050565b600033905090565b600073ffffffffffffffffffffffffffffffffffffffff168473ffffffffffffffffffffffffffffffffffffffff1603610fa05760006040517f57f447ce000000000000000000000000000000000000000000000000000000008152600401610f9791906133cf565b60405180910390fd5b600073ffffffffffffffffffffffffffffffffffffffff168573ffffffffffffffffffffffffffffffffffffffff16036110125760006040517f01a8351400000000000000000000000000000000000000000000000000000000815260040161100991906133cf565b60405180910390fd5b61101f858585858561187b565b5050505050565b60006110328383610b08565b61110d5760016003600085815260200190815260200160002060000160008473ffffffffffffffffffffffffffffffffffffffff1673ffffffffffffffffffffffffffffffffffffffff16815260200190815260200160002060006101000a81548160ff0219169083151502179055506110aa610f26565b73ffffffffffffffffffffffffffffffffffffffff168273ffffffffffffffffffffffffffffffffffffffff16847f2f8788117e7eff1d82e926ec794901d17c78024a50270940304540a733656f0d60405160405180910390a460019050611112565b600090505b92915050565b60006111248383610b08565b156112005760006003600085815260200190815260200160002060000160008473ffffffffffffffffffffffffffffffffffffffff1673ffffffffffffffffffffffffffffffffffffffff16815260200190815260200160002060006101000a81548160ff02191690831515021790555061119d610f26565b73ffffffffffffffffffffffffffffffffffffffff168273ffffffffffffffffffffffffffffffffffffffff16847ff6391f5c32d9c69d2a47ea670b442974b53935d1edc7fd64eb21e047a839171b60405160405180910390a460019050611205565b600090505b92915050565b61121361192d565b6000600460006101000a81548160ff0219169083151502179055507f5db9ee0a495bf2e6ff9c91a7834c1ba4fdd244a5e8aa4e537bd38aeae4b073aa611257610f26565b60405161126491906133cf565b60405180910390a1565b600060208202602084010151905092915050565b600060208202602084010151905092915050565b600073ffffffffffffffffffffffffffffffffffffffff168373ffffffffffffffffffffffffffffffffffffffff16036113085760006040517f01a835140000000000000000000000000000000000000000000000000000000081526004016112ff91906133cf565b60405180910390fd5b61132583600084846040518060200160405280600081525061187b565b505050565b600073ffffffffffffffffffffffffffffffffffffffff168473ffffffffffffffffffffffffffffffffffffffff160361139c5760006040517f57f447ce00000000000000000000000000000000000000000000000000000000815260040161139391906133cf565b60405180910390fd5b6000806113a9858561196d565b915091506113bb60008784848761187b565b505050505050565b6113cb61199d565b6001600460006101000a81548160ff0219169083151502179055507f62e78cea01bee320cd4e420270b5ea74000d11b0c9f74754ebdbfc544b05a25861140f610f26565b60405161141c91906133cf565b60405180910390a1565b600073ffffffffffffffffffffffffffffffffffffffff168273ffffffffffffffffffffffffffffffffffffffff16036114985760006040517fced3e10000000000000000000000000000000000000000000000000000000000815260040161148f91906133cf565b60405180910390fd5b80600160008573ffffffffffffffffffffffffffffffffffffffff1673ffffffffffffffffffffffffffffffffffffffff16815260200190815260200160002060008473ffffffffffffffffffffffffffffffffffffffff1673ffffffffffffffffffffffffffffffffffffffff16815260200190815260200160002060006101000a81548160ff0219169083151502179055508173ffffffffffffffffffffffffffffffffffffffff168373ffffffffffffffffffffffffffffffffffffffff167f17307eab39ab6107e8899845ad3d59bd9653f200f220920489ca2b5937696c318360405161158991906124f3565b60405180910390a3505050565b600073ffffffffffffffffffffffffffffffffffffffff168473ffffffffffffffffffffffffffffffffffffffff16036116085760006040517f57f447ce0000000000000000000000000000000000000000000000000000000081526004016115ff91906133cf565b60405180910390fd5b600073ffffffffffffffffffffffffffffffffffffffff168573ffffffffffffffffffffffffffffffffffffffff160361167a5760006040517f01a8351400000000000000000000000000000000000000000000000000000000815260040161167191906133cf565b60405180910390fd5b600080611687858561196d565b91509150611698878784848761187b565b50505050505050565b600073ffffffffffffffffffffffffffffffffffffffff168373ffffffffffffffffffffffffffffffffffffffff16036117135760006040517f01a8351400000000000000000000000000000000000000000000000000000000815260040161170a91906133cf565b60405180910390fd5b600080611720848461196d565b9150915061174185600084846040518060200160405280600081525061187b565b5050505050565b60007fd9b67a26000000000000000000000000000000000000000000000000000000007bffffffffffffffffffffffffffffffffffffffffffffffffffffffff1916827bffffffffffffffffffffffffffffffffffffffffffffffffffffffff1916148061181357507f0e89341c000000000000000000000000000000000000000000000000000000007bffffffffffffffffffffffffffffffffffffffffffffffffffffffff1916827bffffffffffffffffffffffffffffffffffffffffffffffffffffffff1916145b806118235750611822826119de565b5b9050919050565b6118348282610b08565b6118775780826040517fe2517d3f00000000000000000000000000000000000000000000000000000000815260040161186e9291906133ea565b60405180910390fd5b5050565b61188785858585611a48565b600073ffffffffffffffffffffffffffffffffffffffff168473ffffffffffffffffffffffffffffffffffffffff16146119265760006118c5610f26565b905060018451036119155760006118e660008661128290919063ffffffff16565b905060006118fe60008661128290919063ffffffff16565b905061190e838989858589611a5a565b5050611924565b611923818787878787611c0e565b5b505b5050505050565b6119356109af565b61196b576040517f8dfc202b00000000000000000000000000000000000000000000000000000000815260040160405180910390fd5b565b60608060405191506001825283602083015260408201905060018152826020820152604081016040529250929050565b6119a56109af565b156119dc576040517fd93c066500000000000000000000000000000000000000000000000000000000815260040160405180910390fd5b565b60007f01ffc9a7000000000000000000000000000000000000000000000000000000007bffffffffffffffffffffffffffffffffffffffffffffffffffffffff1916827bffffffffffffffffffffffffffffffffffffffffffffffffffffffff1916149050919050565b611a5484848484611dc2565b50505050565b60008473ffffffffffffffffffffffffffffffffffffffff163b1115611c06578373ffffffffffffffffffffffffffffffffffffffff1663f23a6e6187878686866040518663ffffffff1660e01b8152600401611abb959493929190613468565b6020604051808303816000875af1925050508015611af757506040513d601f19601f82011682018060405250810190611af491906134d7565b60015b611b7b573d8060008114611b27576040519150601f19603f3d011682016040523d82523d6000602084013e611b2c565b606091505b506000815103611b7357846040517f57f447ce000000000000000000000000000000000000000000000000000000008152600401611b6a91906133cf565b60405180910390fd5b805181602001fd5b63f23a6e6160e01b7bffffffffffffffffffffffffffffffffffffffffffffffffffffffff1916817bffffffffffffffffffffffffffffffffffffffffffffffffffffffff191614611c0457846040517f57f447ce000000000000000000000000000000000000000000000000000000008152600401611bfb91906133cf565b60405180910390fd5b505b505050505050565b60008473ffffffffffffffffffffffffffffffffffffffff163b1115611dba578373ffffffffffffffffffffffffffffffffffffffff1663bc197c8187878686866040518663ffffffff1660e01b8152600401611c6f959493929190613504565b6020604051808303816000875af1925050508015611cab57506040513d601f19601f82011682018060405250810190611ca891906134d7565b60015b611d2f573d8060008114611cdb576040519150601f19603f3d011682016040523d82523d6000602084013e611ce0565b606091505b506000815103611d2757846040517f57f447ce000000000000000000000000000000000000000000000000000000008152600401611d1e91906133cf565b60405180910390fd5b805181602001fd5b63bc197c8160e01b7bffffffffffffffffffffffffffffffffffffffffffffffffffffffff1916817bffffffffffffffffffffffffffffffffffffffffffffffffffffffff191614611db857846040517f57f447ce000000000000000000000000000000000000000000000000000000008152600401611daf91906133cf565b60405180910390fd5b505b505050505050565b611dce84848484611f79565b600073ffffffffffffffffffffffffffffffffffffffff168473ffffffffffffffffffffffffffffffffffffffff1603611eae576000805b8351811015611e92576000838281518110611e2457611e236130ab565b5b602002602001015190508060056000878581518110611e4657611e456130ab565b5b602002602001015181526020019081526020016000206000828254611e6b919061356c565b925050819055508083611e7e919061356c565b92505080611e8b90613109565b9050611e06565b508060066000828254611ea5919061356c565b92505081905550505b600073ffffffffffffffffffffffffffffffffffffffff168373ffffffffffffffffffffffffffffffffffffffff1603611f73576000805b8351811015611f60576000838281518110611f0457611f036130ab565b5b602002602001015190508060056000878581518110611f2657611f256130ab565b5b602002602001015181526020019081526020016000206000828254039250508190555080830192505080611f5990613109565b9050611ee6565b5080600660008282540392505081905550505b50505050565b611f8161199d565b611f8d84848484611f93565b50505050565b8051825114611fdd57815181516040517f5b059991000000000000000000000000000000000000000000000000000000008152600401611fd4929190613082565b60405180910390fd5b6000611fe7610f26565b905060005b83518110156121fc57600061200a828661128290919063ffffffff16565b90506000612021838661128290919063ffffffff16565b9050600073ffffffffffffffffffffffffffffffffffffffff168873ffffffffffffffffffffffffffffffffffffffff161461214e57600080600084815260200190815260200160002060008a73ffffffffffffffffffffffffffffffffffffffff1673ffffffffffffffffffffffffffffffffffffffff168152602001908152602001600020549050818110156120f657888183856040517f03dee4c50000000000000000000000000000000000000000000000000000000081526004016120ed94939291906135a0565b60405180910390fd5b81810360008085815260200190815260200160002060008b73ffffffffffffffffffffffffffffffffffffffff1673ffffffffffffffffffffffffffffffffffffffff16815260200190815260200160002081905550505b600073ffffffffffffffffffffffffffffffffffffffff168773ffffffffffffffffffffffffffffffffffffffff16146121e9578060008084815260200190815260200160002060008973ffffffffffffffffffffffffffffffffffffffff1673ffffffffffffffffffffffffffffffffffffffff16815260200190815260200160002060008282546121e1919061356c565b925050819055505b5050806121f590613109565b9050611fec565b5060018351036122bb57600061221c60008561128290919063ffffffff16565b9050600061223460008561128290919063ffffffff16565b90508573ffffffffffffffffffffffffffffffffffffffff168773ffffffffffffffffffffffffffffffffffffffff168473ffffffffffffffffffffffffffffffffffffffff167fc3d58168c5ae7397731d063d5bbf3d657854427343f4c083240f7aacaa2d0f6285856040516122ac929190613082565b60405180910390a4505061233a565b8373ffffffffffffffffffffffffffffffffffffffff168573ffffffffffffffffffffffffffffffffffffffff168273ffffffffffffffffffffffffffffffffffffffff167f4a39dc06d4c0dbc64b70af90fd698a233a518aa5d07e595d983b8c0526c8f7fb86866040516123319291906135e5565b60405180910390a45b5050505050565b6000604051905090565b600080fd5b600080fd5b600073ffffffffffffffffffffffffffffffffffffffff82169050919050565b600061238082612355565b9050919050565b61239081612375565b811461239b57600080fd5b50565b6000813590506123ad81612387565b92915050565b6000819050919050565b6123c6816123b3565b81146123d157600080fd5b50565b6000813590506123e3816123bd565b92915050565b60008060408385031215612400576123ff61234b565b5b600061240e8582860161239e565b925050602061241f858286016123d4565b9150509250929050565b612432816123b3565b82525050565b600060208201905061244d6000830184612429565b92915050565b60007fffffffff0000000000000000000000000000000000000000000000000000000082169050919050565b61248881612453565b811461249357600080fd5b50565b6000813590506124a58161247f565b92915050565b6000602082840312156124c1576124c061234b565b5b60006124cf84828501612496565b91505092915050565b60008115159050919050565b6124ed816124d8565b82525050565b600060208201905061250860008301846124e4565b92915050565b600080fd5b600080fd5b6000601f19601f8301169050919050565b7f4e487b7100000000000000000000000000000000000000000000000000000000600052604160045260246000fd5b61256182612518565b810181811067ffffffffffffffff821117156125805761257f612529565b5b80604052505050565b6000612593612341565b905061259f8282612558565b919050565b600067ffffffffffffffff8211156125bf576125be612529565b5b6125c882612518565b9050602081019050919050565b82818337600083830152505050565b60006125f76125f2846125a4565b612589565b90508281526020810184848401111561261357612612612513565b5b61261e8482856125d5565b509392505050565b600082601f83011261263b5761263a61250e565b5b813561264b8482602086016125e4565b91505092915050565b60006020828403121561266a5761266961234b565b5b600082013567ffffffffffffffff81111561268857612687612350565b5b61269484828501612626565b91505092915050565b6000602082840312156126b3576126b261234b565b5b60006126c1848285016123d4565b91505092915050565b600081519050919050565b600082825260208201905092915050565b60005b838110156127045780820151818401526020810190506126e9565b60008484015250505050565b600061271b826126ca565b61272581856126d5565b93506127358185602086016126e6565b61273e81612518565b840191505092915050565b600060208201905081810360008301526127638184612710565b905092915050565b600067ffffffffffffffff82111561278657612785612529565b5b602082029050602081019050919050565b600080fd5b60006127af6127aa8461276b565b612589565b905080838252602082019050602084028301858111156127d2576127d1612797565b5b835b818110156127fb57806127e788826123d4565b8452602084019350506020810190506127d4565b5050509392505050565b600082601f83011261281a5761281961250e565b5b813561282a84826020860161279c565b91505092915050565b600067ffffffffffffffff82111561284e5761284d612529565b5b61285782612518565b9050602081019050919050565b600061287761287284612833565b612589565b90508281526020810184848401111561289357612892612513565b5b61289e8482856125d5565b509392505050565b600082601f8301126128bb576128ba61250e565b5b81356128cb848260208601612864565b91505092915050565b600080600080608085870312156128ee576128ed61234b565b5b60006128fc8782880161239e565b945050602085013567ffffffffffffffff81111561291d5761291c612350565b5b61292987828801612805565b935050604085013567ffffffffffffffff81111561294a57612949612350565b5b61295687828801612805565b925050606085013567ffffffffffffffff81111561297757612976612350565b5b612983878288016128a6565b91505092959194509250565b6000819050919050565b6129a28161298f565b81146129ad57600080fd5b50565b6000813590506129bf81612999565b92915050565b6000602082840312156129db576129da61234b565b5b60006129e9848285016129b0565b91505092915050565b6129fb8161298f565b82525050565b6000602082019050612a1660008301846129f2565b92915050565b600080600080600060a08688031215612a3857612a3761234b565b5b6000612a468882890161239e565b9550506020612a578882890161239e565b945050604086013567ffffffffffffffff811115612a7857612a77612350565b5b612a8488828901612805565b935050606086013567ffffffffffffffff811115612aa557612aa4612350565b5b612ab188828901612805565b925050608086013567ffffffffffffffff811115612ad257612ad1612350565b5b612ade888289016128a6565b9150509295509295909350565b60008060408385031215612b0257612b0161234b565b5b6000612b10858286016129b0565b9250506020612b218582860161239e565b9150509250929050565b600067ffffffffffffffff821115612b4657612b45612529565b5b602082029050602081019050919050565b6000612b6a612b6584612b2b565b612589565b90508083825260208201905060208402830185811115612b8d57612b8c612797565b5b835b81811015612bb65780612ba2888261239e565b845260208401935050602081019050612b8f565b5050509392505050565b600082601f830112612bd557612bd461250e565b5b8135612be5848260208601612b57565b91505092915050565b60008060408385031215612c0557612c0461234b565b5b600083013567ffffffffffffffff811115612c2357612c22612350565b5b612c2f85828601612bc0565b925050602083013567ffffffffffffffff811115612c5057612c4f612350565b5b612c5c85828601612805565b9150509250929050565b600081519050919050565b600082825260208201905092915050565b6000819050602082019050919050565b612c9b816123b3565b82525050565b6000612cad8383612c92565b60208301905092915050565b6000602082019050919050565b6000612cd182612c66565b612cdb8185612c71565b9350612ce683612c82565b8060005b83811015612d17578151612cfe8882612ca1565b9750612d0983612cb9565b925050600181019050612cea565b5085935050505092915050565b60006020820190508181036000830152612d3e8184612cc6565b905092915050565b600080600060608486031215612d5f57612d5e61234b565b5b6000612d6d8682870161239e565b935050602084013567ffffffffffffffff811115612d8e57612d8d612350565b5b612d9a86828701612805565b925050604084013567ffffffffffffffff811115612dbb57612dba612350565b5b612dc786828701612805565b9150509250925092565b60008060008060808587031215612deb57612dea61234b565b5b6000612df98782880161239e565b9450506020612e0a878288016123d4565b9350506040612e1b878288016123d4565b925050606085013567ffffffffffffffff811115612e3c57612e3b612350565b5b612e48878288016128a6565b91505092959194509250565b612e5d816124d8565b8114612e6857600080fd5b50565b600081359050612e7a81612e54565b92915050565b60008060408385031215612e9757612e9661234b565b5b6000612ea58582860161239e565b9250506020612eb685828601612e6b565b9150509250929050565b60008060408385031215612ed757612ed661234b565b5b6000612ee58582860161239e565b9250506020612ef68582860161239e565b9150509250929050565b600080600080600060a08688031215612f1c57612f1b61234b565b5b6000612f2a8882890161239e565b9550506020612f3b8882890161239e565b9450506040612f4c888289016123d4565b9350506060612f5d888289016123d4565b925050608086013567ffffffffffffffff811115612f7e57612f7d612350565b5b612f8a888289016128a6565b9150509295509295909350565b600080600060608486031215612fb057612faf61234b565b5b6000612fbe8682870161239e565b9350506020612fcf868287016123d4565b9250506040612fe0868287016123d4565b9150509250925092565b7f4e487b7100000000000000000000000000000000000000000000000000000000600052602260045260246000fd5b6000600282049050600182168061303157607f821691505b60208210810361304457613043612fea565b5b50919050565b61305381612375565b82525050565b600060408201905061306e600083018561304a565b61307b602083018461304a565b9392505050565b60006040820190506130976000830185612429565b6130a46020830184612429565b9392505050565b7f4e487b7100000000000000000000000000000000000000000000000000000000600052603260045260246000fd5b7f4e487b7100000000000000000000000000000000000000000000000000000000600052601160045260246000fd5b6000613114826123b3565b91507fffffffffffffffffffffffffffffffffffffffffffffffffffffffffffffffff8203613146576131456130da565b5b600182019050919050565b60008190508160005260206000209050919050565b60006020601f8301049050919050565b600082821b905092915050565b6000600883026131b37fffffffffffffffffffffffffffffffffffffffffffffffffffffffffffffffff82613176565b6131bd8683613176565b95508019841693508086168417925050509392505050565b6000819050919050565b60006131fa6131f56131f0846123b3565b6131d5565b6123b3565b9050919050565b6000819050919050565b613214836131df565b61322861322082613201565b848454613183565b825550505050565b600090565b61323d613230565b61324881848461320b565b505050565b5b8181101561326c57613261600082613235565b60018101905061324e565b5050565b601f8211156132b15761328281613151565b61328b84613166565b8101602085101561329a578190505b6132ae6132a685613166565b83018261324d565b50505b505050565b600082821c905092915050565b60006132d4600019846008026132b6565b1980831691505092915050565b60006132ed83836132c3565b9150826002028217905092915050565b613306826126ca565b67ffffffffffffffff81111561331f5761331e612529565b5b6133298254613019565b613334828285613270565b600060209050601f8311600181146133675760008415613355578287015190505b61335f85826132e1565b8655506133c7565b601f19841661337586613151565b60005b8281101561339d57848901518255600182019150602085019450602081019050613378565b868310156133ba57848901516133b6601f8916826132c3565b8355505b6001600288020188555050505b505050505050565b60006020820190506133e4600083018461304a565b92915050565b60006040820190506133ff600083018561304a565b61340c60208301846129f2565b9392505050565b600081519050919050565b600082825260208201905092915050565b600061343a82613413565b613444818561341e565b93506134548185602086016126e6565b61345d81612518565b840191505092915050565b600060a08201905061347d600083018861304a565b61348a602083018761304a565b6134976040830186612429565b6134a46060830185612429565b81810360808301526134b6818461342f565b90509695505050505050565b6000815190506134d18161247f565b92915050565b6000602082840312156134ed576134ec61234b565b5b60006134fb848285016134c2565b91505092915050565b600060a082019050613519600083018861304a565b613526602083018761304a565b81810360408301526135388186612cc6565b9050818103606083015261354c8185612cc6565b90508181036080830152613560818461342f565b90509695505050505050565b6000613577826123b3565b9150613582836123b3565b925082820190508082111561359a576135996130da565b5b92915050565b60006080820190506135b5600083018761304a565b6135c26020830186612429565b6135cf6040830185612429565b6135dc6060830184612429565b95945050505050565b600060408201905081810360008301526135ff8185612cc6565b905081810360208301526136138184612cc6565b9050939250505056fea26469706673582212209907d83e918709a8530ac707328bd53dc6a096b0a822635d094b2b87fae7b47d64736f6c63430008140033",
  "devdoc": {
    "custom:security-contact": "test",
    "errors": {
      "AccessControlBadConfirmation()": [
        {
          "details": "The caller of a function is not the expected one. NOTE: Don't confuse with {AccessControlUnauthorizedAccount}."
        }
      ],
      "AccessControlUnauthorizedAccount(address,bytes32)": [
        {
          "details": "The `account` is missing a role."
        }
      ],
      "ERC1155InsufficientBalance(address,uint256,uint256,uint256)": [
        {
          "details": "Indicates an error related to the current `balance` of a `sender`. Used in transfers.",
          "params": {
            "balance": "Current balance for the interacting account.",
            "needed": "Minimum amount required to perform a transfer.",
            "sender": "Address whose tokens are being transferred.",
            "tokenId": "Identifier number of a token."
          }
        }
      ],
      "ERC1155InvalidApprover(address)": [
        {
          "details": "Indicates a failure with the `approver` of a token to be approved. Used in approvals.",
          "params": {
            "approver": "Address initiating an approval operation."
          }
        }
      ],
      "ERC1155InvalidArrayLength(uint256,uint256)": [
        {
          "details": "Indicates an array length mismatch between ids and values in a safeBatchTransferFrom operation. Used in batch transfers.",
          "params": {
            "idsLength": "Length of the array of token identifiers",
            "valuesLength": "Length of the array of token amounts"
          }
        }
      ],
      "ERC1155InvalidOperator(address)": [
        {
          "details": "Indicates a failure with the `operator` to be approved. Used in approvals.",
          "params": {
            "operator": "Address that may be allowed to operate on tokens without being their owner."
          }
        }
      ],
      "ERC1155InvalidReceiver(address)": [
        {
          "details": "Indicates a failure with the token `receiver`. Used in transfers.",
          "params": {
            "receiver": "Address to which tokens are being transferred."
          }
        }
      ],
      "ERC1155InvalidSender(address)": [
        {
          "details": "Indicates a failure with the token `sender`. Used in transfers.",
          "params": {
            "sender": "Address whose tokens are being transferred."
          }
        }
      ],
      "ERC1155MissingApprovalForAll(address,address)": [
        {
          "details": "Indicates a failure with the `operator`s approval. Used in transfers.",
          "params": {
            "operator": "Address that may be allowed to operate on tokens without being their owner.",
            "owner": "Address of the current owner of a token."
          }
        }
      ],
      "EnforcedPause()": [
        {
          "details": "The operation failed because the contract is paused."
        }
      ],
      "ExpectedPause()": [
        {
          "details": "The operation failed because the contract is not paused."
        }
      ]
    },
    "events": {
      "ApprovalForAll(address,address,bool)": {
        "details": "Emitted when `account` grants or revokes permission to `operator` to transfer their tokens, according to `approved`."
      },
      "Paused(address)": {
        "details": "Emitted when the pause is triggered by `account`."
      },
      "RoleAdminChanged(bytes32,bytes32,bytes32)": {
        "details": "Emitted when `newAdminRole` is set as ``role``'s admin role, replacing `previousAdminRole` `DEFAULT_ADMIN_ROLE` is the starting admin for all roles, despite {RoleAdminChanged} not being emitted signaling this."
      },
      "RoleGranted(bytes32,address,address)": {
        "details": "Emitted when `account` is granted `role`. `sender` is the account that originated the contract call, an admin role bearer except when using {AccessControl-_setupRole}."
      },
      "RoleRevoked(bytes32,address,address)": {
        "details": "Emitted when `account` is revoked `role`. `sender` is the account that originated the contract call:   - if using `revokeRole`, it is the admin role bearer   - if using `renounceRole`, it is the role bearer (i.e. `account`)"
      },
      "TransferBatch(address,address,address,uint256[],uint256[])": {
        "details": "Equivalent to multiple {TransferSingle} events, where `operator`, `from` and `to` are the same for all transfers."
      },
      "TransferSingle(address,address,address,uint256,uint256)": {
        "details": "Emitted when `value` amount of tokens of type `id` are transferred from `from` to `to` by `operator`."
      },
      "URI(string,uint256)": {
        "details": "Emitted when the URI for token type `id` changes to `value`, if it is a non-programmatic URI. If an {URI} event was emitted for `id`, the standard https://eips.ethereum.org/EIPS/eip-1155#metadata-extensions[guarantees] that `value` will equal the value returned by {IERC1155MetadataURI-uri}."
      },
      "Unpaused(address)": {
        "details": "Emitted when the pause is lifted by `account`."
      }
    },
    "kind": "dev",
    "methods": {
      "balanceOf(address,uint256)": {
        "details": "See {IERC1155-balanceOf}."
      },
      "balanceOfBatch(address[],uint256[])": {
        "details": "See {IERC1155-balanceOfBatch}. Requirements: - `accounts` and `ids` must have the same length."
      },
      "exists(uint256)": {
        "details": "Indicates whether any token exist with a given id, or not."
      },
      "getRoleAdmin(bytes32)": {
        "details": "Returns the admin role that controls `role`. See {grantRole} and {revokeRole}. To change a role's admin, use {_setRoleAdmin}."
      },
      "grantRole(bytes32,address)": {
        "details": "Grants `role` to `account`. If `account` had not been already granted `role`, emits a {RoleGranted} event. Requirements: - the caller must have ``role``'s admin role. May emit a {RoleGranted} event."
      },
      "hasRole(bytes32,address)": {
        "details": "Returns `true` if `account` has been granted `role`."
      },
      "isApprovedForAll(address,address)": {
        "details": "See {IERC1155-isApprovedForAll}."
      },
      "paused()": {
        "details": "Returns true if the contract is paused, and false otherwise."
      },
      "renounceRole(bytes32,address)": {
        "details": "Revokes `role` from the calling account. Roles are often managed via {grantRole} and {revokeRole}: this function's purpose is to provide a mechanism for accounts to lose their privileges if they are compromised (such as when a trusted device is misplaced). If the calling account had been revoked `role`, emits a {RoleRevoked} event. Requirements: - the caller must be `callerConfirmation`. May emit a {RoleRevoked} event."
      },
      "revokeRole(bytes32,address)": {
        "details": "Revokes `role` from `account`. If `account` had been granted `role`, emits a {RoleRevoked} event. Requirements: - the caller must have ``role``'s admin role. May emit a {RoleRevoked} event."
      },
      "safeBatchTransferFrom(address,address,uint256[],uint256[],bytes)": {
        "details": "See {IERC1155-safeBatchTransferFrom}."
      },
      "safeTransferFrom(address,address,uint256,uint256,bytes)": {
        "details": "See {IERC1155-safeTransferFrom}."
      },
      "setApprovalForAll(address,bool)": {
        "details": "See {IERC1155-setApprovalForAll}."
      },
      "totalSupply()": {
        "details": "Total value of tokens."
      },
      "totalSupply(uint256)": {
        "details": "Total value of tokens in with a given id."
      },
      "uri(uint256)": {
        "details": "See {IERC1155MetadataURI-uri}. This implementation returns the same URI for *all* token types. It relies on the token type ID substitution mechanism https://eips.ethereum.org/EIPS/eip-1155#metadata[defined in the EIP]. Clients calling this function must replace the `\\{id\\}` substring with the actual token type ID."
      }
    },
    "version": 1
  },
  "userdoc": {
    "kind": "user",
    "methods": {},
    "version": 1
  },
  "storageLayout": {
    "storage": [
      {
        "astId": 557,
        "contract": "contracts/PaperBookNFT.sol:PaperBookNFT",
        "label": "_balances",
        "offset": 0,
        "slot": "0",
        "type": "t_mapping(t_uint256,t_mapping(t_address,t_uint256))"
      },
      {
        "astId": 563,
        "contract": "contracts/PaperBookNFT.sol:PaperBookNFT",
        "label": "_operatorApprovals",
        "offset": 0,
        "slot": "1",
        "type": "t_mapping(t_address,t_mapping(t_address,t_bool))"
      },
      {
        "astId": 565,
        "contract": "contracts/PaperBookNFT.sol:PaperBookNFT",
        "label": "_uri",
        "offset": 0,
        "slot": "2",
        "type": "t_string_storage"
      },
      {
        "astId": 26,
        "contract": "contracts/PaperBookNFT.sol:PaperBookNFT",
        "label": "_roles",
        "offset": 0,
        "slot": "3",
        "type": "t_mapping(t_bytes32,t_struct(RoleData)21_storage)"
      },
      {
        "astId": 2260,
        "contract": "contracts/PaperBookNFT.sol:PaperBookNFT",
        "label": "_paused",
        "offset": 0,
        "slot": "4",
        "type": "t_bool"
      },
      {
        "astId": 1861,
        "contract": "contracts/PaperBookNFT.sol:PaperBookNFT",
        "label": "_totalSupply",
        "offset": 0,
        "slot": "5",
        "type": "t_mapping(t_uint256,t_uint256)"
      },
      {
        "astId": 1863,
        "contract": "contracts/PaperBookNFT.sol:PaperBookNFT",
        "label": "_totalSupplyAll",
        "offset": 0,
        "slot": "6",
        "type": "t_uint256"
      }
    ],
    "types": {
      "t_address": {
        "encoding": "inplace",
        "label": "address",
        "numberOfBytes": "20"
      },
      "t_bool": {
        "encoding": "inplace",
        "label": "bool",
        "numberOfBytes": "1"
      },
      "t_bytes32": {
        "encoding": "inplace",
        "label": "bytes32",
        "numberOfBytes": "32"
      },
      "t_mapping(t_address,t_bool)": {
        "encoding": "mapping",
        "key": "t_address",
        "label": "mapping(address => bool)",
        "numberOfBytes": "32",
        "value": "t_bool"
      },
      "t_mapping(t_address,t_mapping(t_address,t_bool))": {
        "encoding": "mapping",
        "key": "t_address",
        "label": "mapping(address => mapping(address => bool))",
        "numberOfBytes": "32",
        "value": "t_mapping(t_address,t_bool)"
      },
      "t_mapping(t_address,t_uint256)": {
        "encoding": "mapping",
        "key": "t_address",
        "label": "mapping(address => uint256)",
        "numberOfBytes": "32",
        "value": "t_uint256"
      },
      "t_mapping(t_bytes32,t_struct(RoleData)21_storage)": {
        "encoding": "mapping",
        "key": "t_bytes32",
        "label": "mapping(bytes32 => struct AccessControl.RoleData)",
        "numberOfBytes": "32",
        "value": "t_struct(RoleData)21_storage"
      },
      "t_mapping(t_uint256,t_mapping(t_address,t_uint256))": {
        "encoding": "mapping",
        "key": "t_uint256",
        "label": "mapping(uint256 => mapping(address => uint256))",
        "numberOfBytes": "32",
        "value": "t_mapping(t_address,t_uint256)"
      },
      "t_mapping(t_uint256,t_uint256)": {
        "encoding": "mapping",
        "key": "t_uint256",
        "label": "mapping(uint256 => uint256)",
        "numberOfBytes": "32",
        "value": "t_uint256"
      },
      "t_string_storage": {
        "encoding": "bytes",
        "label": "string",
        "numberOfBytes": "32"
      },
      "t_struct(RoleData)21_storage": {
        "encoding": "inplace",
        "label": "struct AccessControl.RoleData",
        "members": [
          {
            "astId": 18,
            "contract": "contracts/PaperBookNFT.sol:PaperBookNFT",
            "label": "hasRole",
            "offset": 0,
            "slot": "0",
            "type": "t_mapping(t_address,t_bool)"
          },
          {
            "astId": 20,
            "contract": "contracts/PaperBookNFT.sol:PaperBookNFT",
            "label": "adminRole",
            "offset": 0,
            "slot": "1",
            "type": "t_bytes32"
          }
        ],
        "numberOfBytes": "64"
      },
      "t_uint256": {
        "encoding": "inplace",
        "label": "uint256",
        "numberOfBytes": "32"
      }
    }
  }
}