{
  "_format": "hh-sol-artifact-1",
  "contractName": "PaperBookBase",
  "sourceName": "contracts/PaperBookBase.sol",
  "abi": [
    {
      "inputs": [
        {
          "internalType": "address",
          "name": "initialOwner",
          "type": "address"
        },
        {
          "internalType": "string",
          "name": "uri",
          "type": "string"
        }
      ],
      "stateMutability": "nonpayable",
      "type": "constructor"
    },
    {
      "inputs": [
        {
          "internalType": "address",
          "name": "sender",
          "type": "address"
        },
        {
          "internalType": "uint256",
          "name": "balance",
          "type": "uint256"
        },
        {
          "internalType": "uint256",
          "name": "needed",
          "type": "uint256"
        },
        {
          "internalType": "uint256",
          "name": "tokenId",
          "type": "uint256"
        }
      ],
      "name": "ERC1155InsufficientBalance",
      "type": "error"
    },
    {
      "inputs": [
        {
          "internalType": "address",
          "name": "approver",
          "type": "address"
        }
      ],
      "name": "ERC1155InvalidApprover",
      "type": "error"
    },
    {
      "inputs": [
        {
          "internalType": "uint256",
          "name": "idsLength",
          "type": "uint256"
        },
        {
          "internalType": "uint256",
          "name": "valuesLength",
          "type": "uint256"
        }
      ],
      "name": "ERC1155InvalidArrayLength",
      "type": "error"
    },
    {
      "inputs": [
        {
          "internalType": "address",
          "name": "operator",
          "type": "address"
        }
      ],
      "name": "ERC1155InvalidOperator",
      "type": "error"
    },
    {
      "inputs": [
        {
          "internalType": "address",
          "name": "receiver",
          "type": "address"
        }
      ],
      "name": "ERC1155InvalidReceiver",
      "type": "error"
    },
    {
      "inputs": [
        {
          "internalType": "address",
          "name": "sender",
          "type": "address"
        }
      ],
      "name": "ERC1155InvalidSender",
      "type": "error"
    },
    {
      "inputs": [
        {
          "internalType": "address",
          "name": "operator",
          "type": "address"
        },
        {
          "internalType": "address",
          "name": "owner",
          "type": "address"
        }
      ],
      "name": "ERC1155MissingApprovalForAll",
      "type": "error"
    },
    {
      "inputs": [
        {
          "internalType": "address",
          "name": "owner",
          "type": "address"
        }
      ],
      "name": "OwnableInvalidOwner",
      "type": "error"
    },
    {
      "inputs": [
        {
          "internalType": "address",
          "name": "account",
          "type": "address"
        }
      ],
      "name": "OwnableUnauthorizedAccount",
      "type": "error"
    },
    {
      "anonymous": false,
      "inputs": [
        {
          "indexed": true,
          "internalType": "address",
          "name": "account",
          "type": "address"
        },
        {
          "indexed": true,
          "internalType": "address",
          "name": "operator",
          "type": "address"
        },
        {
          "indexed": false,
          "internalType": "bool",
          "name": "approved",
          "type": "bool"
        }
      ],
      "name": "ApprovalForAll",
      "type": "event"
    },
    {
      "anonymous": false,
      "inputs": [
        {
          "indexed": true,
          "internalType": "address",
          "name": "previousOwner",
          "type": "address"
        },
        {
          "indexed": true,
          "internalType": "address",
          "name": "newOwner",
          "type": "address"
        }
      ],
      "name": "OwnershipTransferred",
      "type": "event"
    },
    {
      "anonymous": false,
      "inputs": [
        {
          "indexed": true,
          "internalType": "address",
          "name": "operator",
          "type": "address"
        },
        {
          "indexed": true,
          "internalType": "address",
          "name": "from",
          "type": "address"
        },
        {
          "indexed": true,
          "internalType": "address",
          "name": "to",
          "type": "address"
        },
        {
          "indexed": false,
          "internalType": "uint256[]",
          "name": "ids",
          "type": "uint256[]"
        },
        {
          "indexed": false,
          "internalType": "uint256[]",
          "name": "values",
          "type": "uint256[]"
        }
      ],
      "name": "TransferBatch",
      "type": "event"
    },
    {
      "anonymous": false,
      "inputs": [
        {
          "indexed": true,
          "internalType": "address",
          "name": "operator",
          "type": "address"
        },
        {
          "indexed": true,
          "internalType": "address",
          "name": "from",
          "type": "address"
        },
        {
          "indexed": true,
          "internalType": "address",
          "name": "to",
          "type": "address"
        },
        {
          "indexed": false,
          "internalType": "uint256",
          "name": "id",
          "type": "uint256"
        },
        {
          "indexed": false,
          "internalType": "uint256",
          "name": "value",
          "type": "uint256"
        }
      ],
      "name": "TransferSingle",
      "type": "event"
    },
    {
      "anonymous": false,
      "inputs": [
        {
          "indexed": false,
          "internalType": "string",
          "name": "value",
          "type": "string"
        },
        {
          "indexed": true,
          "internalType": "uint256",
          "name": "id",
          "type": "uint256"
        }
      ],
      "name": "URI",
      "type": "event"
    },
    {
      "inputs": [
        {
          "internalType": "address",
          "name": "account",
          "type": "address"
        },
        {
          "internalType": "uint256",
          "name": "id",
          "type": "uint256"
        }
      ],
      "name": "balanceOf",
      "outputs": [
        {
          "internalType": "uint256",
          "name": "",
          "type": "uint256"
        }
      ],
      "stateMutability": "view",
      "type": "function"
    },
    {
      "inputs": [
        {
          "internalType": "address[]",
          "name": "accounts",
          "type": "address[]"
        },
        {
          "internalType": "uint256[]",
          "name": "ids",
          "type": "uint256[]"
        }
      ],
      "name": "balanceOfBatch",
      "outputs": [
        {
          "internalType": "uint256[]",
          "name": "",
          "type": "uint256[]"
        }
      ],
      "stateMutability": "view",
      "type": "function"
    },
    {
      "inputs": [
        {
          "internalType": "address",
          "name": "account",
          "type": "address"
        },
        {
          "internalType": "uint16",
          "name": "isbn13",
          "type": "uint16"
        }
      ],
      "name": "balanceOfIsbn",
      "outputs": [
        {
          "internalType": "uint256",
          "name": "",
          "type": "uint256"
        }
      ],
      "stateMutability": "view",
      "type": "function"
    },
    {
      "inputs": [
        {
          "internalType": "address",
          "name": "account",
          "type": "address"
        },
        {
          "internalType": "uint240",
          "name": "pageNumber",
          "type": "uint240"
        },
        {
          "internalType": "uint16",
          "name": "pageSize",
          "type": "uint16"
        }
      ],
      "name": "getBooks",
      "outputs": [
        {
          "internalType": "uint48[]",
          "name": "",
          "type": "uint48[]"
        }
      ],
      "stateMutability": "view",
      "type": "function"
    },
    {
      "inputs": [],
      "name": "getBooks",
      "outputs": [
        {
          "components": [
            {
              "internalType": "uint256",
              "name": "id",
              "type": "uint256"
            },
            {
              "internalType": "uint48",
              "name": "isbn13",
              "type": "uint48"
            },
            {
              "internalType": "string",
              "name": "cid",
              "type": "string"
            },
            {
              "internalType": "uint256",
              "name": "enrolledAt",
              "type": "uint256"
            },
            {
              "internalType": "address",
              "name": "enrolledBy",
              "type": "address"
            }
          ],
          "internalType": "struct PaperBookBase.PaperBook[]",
          "name": "",
          "type": "tuple[]"
        }
      ],
      "stateMutability": "view",
      "type": "function"
    },
    {
      "inputs": [
        {
          "internalType": "address",
          "name": "account",
          "type": "address"
        }
      ],
      "name": "getBooksCount",
      "outputs": [
        {
          "internalType": "uint256",
          "name": "",
          "type": "uint256"
        }
      ],
      "stateMutability": "view",
      "type": "function"
    },
    {
      "inputs": [
        {
          "internalType": "uint256",
          "name": "id",
          "type": "uint256"
        }
      ],
      "name": "getPaperBook",
      "outputs": [
        {
          "components": [
            {
              "internalType": "uint256",
              "name": "id",
              "type": "uint256"
            },
            {
              "internalType": "uint48",
              "name": "isbn13",
              "type": "uint48"
            },
            {
              "internalType": "string",
              "name": "cid",
              "type": "string"
            },
            {
              "internalType": "uint256",
              "name": "enrolledAt",
              "type": "uint256"
            },
            {
              "internalType": "address",
              "name": "enrolledBy",
              "type": "address"
            }
          ],
          "internalType": "struct PaperBookBase.PaperBook",
          "name": "",
          "type": "tuple"
        }
      ],
      "stateMutability": "view",
      "type": "function"
    },
    {
      "inputs": [
        {
          "internalType": "address",
          "name": "account",
          "type": "address"
        },
        {
          "internalType": "uint240",
          "name": "pageNumber",
          "type": "uint240"
        },
        {
          "internalType": "uint16",
          "name": "pageSize",
          "type": "uint16"
        }
      ],
      "name": "getPaperBooks",
      "outputs": [
        {
          "components": [
            {
              "internalType": "uint256",
              "name": "id",
              "type": "uint256"
            },
            {
              "internalType": "uint48",
              "name": "isbn13",
              "type": "uint48"
            },
            {
              "internalType": "string",
              "name": "cid",
              "type": "string"
            },
            {
              "internalType": "uint256",
              "name": "enrolledAt",
              "type": "uint256"
            },
            {
              "internalType": "address",
              "name": "enrolledBy",
              "type": "address"
            }
          ],
          "internalType": "struct PaperBookBase.PaperBook[]",
          "name": "",
          "type": "tuple[]"
        }
      ],
      "stateMutability": "view",
      "type": "function"
    },
    {
      "inputs": [
        {
          "internalType": "address",
          "name": "account",
          "type": "address"
        }
      ],
      "name": "getPaperBooksCount",
      "outputs": [
        {
          "internalType": "uint256",
          "name": "",
          "type": "uint256"
        }
      ],
      "stateMutability": "view",
      "type": "function"
    },
    {
      "inputs": [
        {
          "internalType": "address",
          "name": "account",
          "type": "address"
        },
        {
          "internalType": "address",
          "name": "operator",
          "type": "address"
        }
      ],
      "name": "isApprovedForAll",
      "outputs": [
        {
          "internalType": "bool",
          "name": "",
          "type": "bool"
        }
      ],
      "stateMutability": "view",
      "type": "function"
    },
    {
      "inputs": [
        {
          "internalType": "uint48",
          "name": "isbn13",
          "type": "uint48"
        },
        {
          "internalType": "string",
          "name": "cid",
          "type": "string"
        }
      ],
      "name": "mint",
      "outputs": [],
      "stateMutability": "nonpayable",
      "type": "function"
    },
    {
      "inputs": [],
      "name": "owner",
      "outputs": [
        {
          "internalType": "address",
          "name": "",
          "type": "address"
        }
      ],
      "stateMutability": "view",
      "type": "function"
    },
    {
      "inputs": [],
      "name": "renounceOwnership",
      "outputs": [],
      "stateMutability": "nonpayable",
      "type": "function"
    },
    {
      "inputs": [
        {
          "internalType": "address",
          "name": "from",
          "type": "address"
        },
        {
          "internalType": "address",
          "name": "to",
          "type": "address"
        },
        {
          "internalType": "uint256[]",
          "name": "ids",
          "type": "uint256[]"
        },
        {
          "internalType": "uint256[]",
          "name": "values",
          "type": "uint256[]"
        },
        {
          "internalType": "bytes",
          "name": "data",
          "type": "bytes"
        }
      ],
      "name": "safeBatchTransferFrom",
      "outputs": [],
      "stateMutability": "nonpayable",
      "type": "function"
    },
    {
      "inputs": [
        {
          "internalType": "address",
          "name": "from",
          "type": "address"
        },
        {
          "internalType": "address",
          "name": "to",
          "type": "address"
        },
        {
          "internalType": "uint256",
          "name": "id",
          "type": "uint256"
        },
        {
          "internalType": "uint256",
          "name": "value",
          "type": "uint256"
        },
        {
          "internalType": "bytes",
          "name": "data",
          "type": "bytes"
        }
      ],
      "name": "safeTransferFrom",
      "outputs": [],
      "stateMutability": "nonpayable",
      "type": "function"
    },
    {
      "inputs": [
        {
          "internalType": "address",
          "name": "operator",
          "type": "address"
        },
        {
          "internalType": "bool",
          "name": "approved",
          "type": "bool"
        }
      ],
      "name": "setApprovalForAll",
      "outputs": [],
      "stateMutability": "nonpayable",
      "type": "function"
    },
    {
      "inputs": [
        {
          "internalType": "string",
          "name": "newuri",
          "type": "string"
        }
      ],
      "name": "setURI",
      "outputs": [],
      "stateMutability": "nonpayable",
      "type": "function"
    },
    {
      "inputs": [
        {
          "internalType": "bytes4",
          "name": "interfaceId",
          "type": "bytes4"
        }
      ],
      "name": "supportsInterface",
      "outputs": [
        {
          "internalType": "bool",
          "name": "",
          "type": "bool"
        }
      ],
      "stateMutability": "view",
      "type": "function"
    },
    {
      "inputs": [
        {
          "internalType": "address",
          "name": "newOwner",
          "type": "address"
        }
      ],
      "name": "transferOwnership",
      "outputs": [],
      "stateMutability": "nonpayable",
      "type": "function"
    },
    {
      "inputs": [
        {
          "internalType": "uint256",
          "name": "",
          "type": "uint256"
        }
      ],
      "name": "uri",
      "outputs": [
        {
          "internalType": "string",
          "name": "",
          "type": "string"
        }
      ],
      "stateMutability": "view",
      "type": "function"
    }
  ],
  "bytecode": "0x60806040523480156200001157600080fd5b506040516200447f3803806200447f8339818101604052810190620000379190620003ad565b81816200004a81620000da60201b60201c565b50600073ffffffffffffffffffffffffffffffffffffffff168173ffffffffffffffffffffffffffffffffffffffff1603620000c05760006040517f1e4fbdf7000000000000000000000000000000000000000000000000000000008152600401620000b7919062000424565b60405180910390fd5b620000d181620000ef60201b60201c565b50505062000773565b8060029081620000eb91906200068c565b5050565b6000600360009054906101000a900473ffffffffffffffffffffffffffffffffffffffff16905081600360006101000a81548173ffffffffffffffffffffffffffffffffffffffff021916908373ffffffffffffffffffffffffffffffffffffffff1602179055508173ffffffffffffffffffffffffffffffffffffffff168173ffffffffffffffffffffffffffffffffffffffff167f8be0079c531659141344cd1fd0a4f28419497f9722a3daafe3b4186f6b6457e060405160405180910390a35050565b6000604051905090565b600080fd5b600080fd5b600073ffffffffffffffffffffffffffffffffffffffff82169050919050565b6000620001f682620001c9565b9050919050565b6200020881620001e9565b81146200021457600080fd5b50565b6000815190506200022881620001fd565b92915050565b600080fd5b600080fd5b6000601f19601f8301169050919050565b7f4e487b7100000000000000000000000000000000000000000000000000000000600052604160045260246000fd5b620002838262000238565b810181811067ffffffffffffffff82111715620002a557620002a462000249565b5b80604052505050565b6000620002ba620001b5565b9050620002c8828262000278565b919050565b600067ffffffffffffffff821115620002eb57620002ea62000249565b5b620002f68262000238565b9050602081019050919050565b60005b838110156200032357808201518184015260208101905062000306565b60008484015250505050565b6000620003466200034084620002cd565b620002ae565b90508281526020810184848401111562000365576200036462000233565b5b6200037284828562000303565b509392505050565b600082601f8301126200039257620003916200022e565b5b8151620003a48482602086016200032f565b91505092915050565b60008060408385031215620003c757620003c6620001bf565b5b6000620003d78582860162000217565b925050602083015167ffffffffffffffff811115620003fb57620003fa620001c4565b5b62000409858286016200037a565b9150509250929050565b6200041e81620001e9565b82525050565b60006020820190506200043b600083018462000413565b92915050565b600081519050919050565b7f4e487b7100000000000000000000000000000000000000000000000000000000600052602260045260246000fd5b600060028204905060018216806200049457607f821691505b602082108103620004aa57620004a96200044c565b5b50919050565b60008190508160005260206000209050919050565b60006020601f8301049050919050565b600082821b905092915050565b600060088302620005147fffffffffffffffffffffffffffffffffffffffffffffffffffffffffffffffff82620004d5565b620005208683620004d5565b95508019841693508086168417925050509392505050565b6000819050919050565b6000819050919050565b60006200056d62000567620005618462000538565b62000542565b62000538565b9050919050565b6000819050919050565b62000589836200054c565b620005a1620005988262000574565b848454620004e2565b825550505050565b600090565b620005b8620005a9565b620005c58184846200057e565b505050565b5b81811015620005ed57620005e1600082620005ae565b600181019050620005cb565b5050565b601f8211156200063c576200060681620004b0565b6200061184620004c5565b8101602085101562000621578190505b620006396200063085620004c5565b830182620005ca565b50505b505050565b600082821c905092915050565b6000620006616000198460080262000641565b1980831691505092915050565b60006200067c83836200064e565b9150826002028217905092915050565b620006978262000441565b67ffffffffffffffff811115620006b357620006b262000249565b5b620006bf82546200047b565b620006cc828285620005f1565b600060209050601f831160018114620007045760008415620006ef578287015190505b620006fb85826200066e565b8655506200076b565b601f1984166200071486620004b0565b60005b828110156200073e5784890151825560018201915060208501945060208101905062000717565b868310156200075e57848901516200075a601f8916826200064e565b8355505b6001600288020188555050505b505050505050565b613cfc80620007836000396000f3fe608060405234801561001057600080fd5b506004361061012b5760003560e01c8063715018a6116100ad578063c6dd7be511610071578063c6dd7be514610366578063d2cdae4f14610396578063e985e9c5146103c6578063f242432a146103f6578063f2fde38b146104125761012b565b8063715018a6146102d45780638da5cb5b146102de5780639aa4d218146102fc5780639f3497891461032c578063a22cb4651461034a5761012b565b80634b03f1f2116100f45780634b03f1f2146101f85780634e1273f4146102145780634e72abfc146102445780636d6b1570146102745780636dded4a1146102a45761012b565b8062fdd58e1461013057806301ffc9a71461016057806302fe5305146101905780630e89341c146101ac5780632eb2c2d6146101dc575b600080fd5b61014a600480360381019061014591906126d6565b61042e565b6040516101579190612725565b60405180910390f35b61017a60048036038101906101759190612798565b610488565b60405161018791906127e0565b60405180910390f35b6101aa60048036038101906101a59190612941565b61056a565b005b6101c660048036038101906101c1919061298a565b61057e565b6040516101d39190612a36565b60405180910390f35b6101f660048036038101906101f19190612bc1565b610612565b005b610212600480360381019061020d9190612cce565b6106ba565b005b61022e60048036038101906102299190612ded565b610aff565b60405161023b9190612f23565b60405180910390f35b61025e60048036038101906102599190612fd5565b610c0e565b60405161026b91906130e6565b60405180910390f35b61028e60048036038101906102899190612fd5565b610e53565b60405161029b9190613299565b60405180910390f35b6102be60048036038101906102b991906132bb565b6111c7565b6040516102cb9190612725565b60405180910390f35b6102dc611213565b005b6102e6611227565b6040516102f391906132f7565b60405180910390f35b6103166004803603810190610311919061298a565b611251565b6040516103239190613388565b60405180910390f35b6103346113b5565b6040516103419190613299565b60405180910390f35b610364600480360381019061035f91906133d6565b61153c565b005b610380600480360381019061037b91906132bb565b611552565b60405161038d9190612725565b60405180910390f35b6103b060048036038101906103ab9190613416565b6115a1565b6040516103bd9190612725565b60405180910390f35b6103e060048036038101906103db9190613456565b611608565b6040516103ed91906127e0565b60405180910390f35b610410600480360381019061040b9190613496565b61169c565b005b61042c600480360381019061042791906132bb565b611744565b005b600080600083815260200190815260200160002060008473ffffffffffffffffffffffffffffffffffffffff1673ffffffffffffffffffffffffffffffffffffffff16815260200190815260200160002054905092915050565b60007fd9b67a26000000000000000000000000000000000000000000000000000000007bffffffffffffffffffffffffffffffffffffffffffffffffffffffff1916827bffffffffffffffffffffffffffffffffffffffffffffffffffffffff1916148061055357507f0e89341c000000000000000000000000000000000000000000000000000000007bffffffffffffffffffffffffffffffffffffffffffffffffffffffff1916827bffffffffffffffffffffffffffffffffffffffffffffffffffffffff1916145b806105635750610562826117ca565b5b9050919050565b610572611834565b61057b816118bb565b50565b60606002805461058d9061355c565b80601f01602080910402602001604051908101604052809291908181526020018280546105b99061355c565b80156106065780601f106105db57610100808354040283529160200191610606565b820191906000526020600020905b8154815290600101906020018083116105e957829003601f168201915b50505050509050919050565b600061061c6118ce565b90508073ffffffffffffffffffffffffffffffffffffffff168673ffffffffffffffffffffffffffffffffffffffff1614158015610661575061065f8682611608565b155b156106a55780866040517fe237d92200000000000000000000000000000000000000000000000000000000815260040161069c92919061358d565b60405180910390fd5b6106b286868686866118d6565b505050505050565b64e8d4a510008265ffffffffffff1611610709576040517f08c379a000000000000000000000000000000000000000000000000000000000815260040161070090613602565b60405180910390fd5b601f81511161074d576040517f08c379a00000000000000000000000000000000000000000000000000000000081526004016107449061366e565b60405180910390fd5b600060045490506000339050600042905060006040518060a001604052808581526020018765ffffffffffff1681526020018681526020018381526020018473ffffffffffffffffffffffffffffffffffffffff16815250905060058190806001815401808255809150506001900390600052602060002090600502016000909190919091506000820151816000015560208201518160010160006101000a81548165ffffffffffff021916908365ffffffffffff160217905550604082015181600201908161081d919061383a565b506060820151816003015560808201518160040160006101000a81548173ffffffffffffffffffffffffffffffffffffffff021916908373ffffffffffffffffffffffffffffffffffffffff1602179055505050600860003373ffffffffffffffffffffffffffffffffffffffff1673ffffffffffffffffffffffffffffffffffffffff16815260200190815260200160002060010160008765ffffffffffff16815260200190815260200160002060009054906101000a900460ff166109e557600860003373ffffffffffffffffffffffffffffffffffffffff1673ffffffffffffffffffffffffffffffffffffffff1681526020019081526020016000206000018690806001815401808255809150506001900390600052602060002090600591828204019190066006029091909190916101000a81548165ffffffffffff021916908365ffffffffffff1602179055506001600860003373ffffffffffffffffffffffffffffffffffffffff1673ffffffffffffffffffffffffffffffffffffffff16815260200190815260200160002060010160008865ffffffffffff16815260200190815260200160002060006101000a81548160ff0219169083151502179055505b600760003373ffffffffffffffffffffffffffffffffffffffff1673ffffffffffffffffffffffffffffffffffffffff16815260200190815260200160002084908060018154018082558091505060019003906000526020600020016000909190919091505560046000815480929190610a5e9061393b565b91905055506001600660003373ffffffffffffffffffffffffffffffffffffffff1673ffffffffffffffffffffffffffffffffffffffff16815260200190815260200160002060008865ffffffffffff1665ffffffffffff1681526020019081526020016000206000828254610ad49190613983565b92505081905550610af733856001604051806020016040528060008152506119ce565b505050505050565b60608151835114610b4b57815183516040517f5b059991000000000000000000000000000000000000000000000000000000008152600401610b429291906139b7565b60405180910390fd5b6000835167ffffffffffffffff811115610b6857610b67612816565b5b604051908082528060200260200182016040528015610b965781602001602082028036833780820191505090505b50905060005b8451811015610c0357610bd3610bbb8287611a6790919063ffffffff16565b610bce8387611a7b90919063ffffffff16565b61042e565b828281518110610be657610be56139e0565b5b60200260200101818152505080610bfc9061393b565b9050610b9c565b508091505092915050565b6060600080600860008773ffffffffffffffffffffffffffffffffffffffff1673ffffffffffffffffffffffffffffffffffffffff1681526020019081526020016000206000018054905090506000857dffffffffffffffffffffffffffffffffffffffffffffffffffffffffffff1603610c8c5760009150610cbf565b8361ffff1685610c9c9190613a0f565b7dffffffffffffffffffffffffffffffffffffffffffffffffffffffffffff1691505b818111610d01576040517f08c379a0000000000000000000000000000000000000000000000000000000008152600401610cf890613a9d565b60405180910390fd5b6000610d1c8561ffff1684610d169190613983565b83611a8f565b905060008382610d2c9190613abd565b67ffffffffffffffff811115610d4557610d44612816565b5b604051908082528060200260200182016040528015610d735781602001602082028036833780820191505090505b50905060008490505b82811015610e4457600860008a73ffffffffffffffffffffffffffffffffffffffff1673ffffffffffffffffffffffffffffffffffffffff1681526020019081526020016000206000018181548110610dd857610dd76139e0565b5b90600052602060002090600591828204019190066006029054906101000a900465ffffffffffff16828281518110610e1357610e126139e0565b5b602002602001019065ffffffffffff16908165ffffffffffff16815250508080610e3c9061393b565b915050610d7c565b50809450505050509392505050565b6060600080600760008773ffffffffffffffffffffffffffffffffffffffff1673ffffffffffffffffffffffffffffffffffffffff1681526020019081526020016000208054905090506000857dffffffffffffffffffffffffffffffffffffffffffffffffffffffffffff1603610ece5760009150610f01565b8361ffff1685610ede9190613a0f565b7dffffffffffffffffffffffffffffffffffffffffffffffffffffffffffff1691505b818111610f43576040517f08c379a0000000000000000000000000000000000000000000000000000000008152600401610f3a90613a9d565b60405180910390fd5b6000610f5e8561ffff1684610f589190613983565b83611a8f565b905060008382610f6e9190613abd565b67ffffffffffffffff811115610f8757610f86612816565b5b604051908082528060200260200182016040528015610fc057816020015b610fad6125e1565b815260200190600190039081610fa55790505b50905060008490505b828110156111b8576000600760008b73ffffffffffffffffffffffffffffffffffffffff1673ffffffffffffffffffffffffffffffffffffffff1681526020019081526020016000208281548110611024576110236139e0565b5b9060005260206000200154905060058181548110611045576110446139e0565b5b90600052602060002090600502016040518060a0016040529081600082015481526020016001820160009054906101000a900465ffffffffffff1665ffffffffffff1665ffffffffffff1681526020016002820180546110a49061355c565b80601f01602080910402602001604051908101604052809291908181526020018280546110d09061355c565b801561111d5780601f106110f25761010080835404028352916020019161111d565b820191906000526020600020905b81548152906001019060200180831161110057829003601f168201915b50505050508152602001600382015481526020016004820160009054906101000a900473ffffffffffffffffffffffffffffffffffffffff1673ffffffffffffffffffffffffffffffffffffffff1673ffffffffffffffffffffffffffffffffffffffff1681525050838381518110611199576111986139e0565b5b60200260200101819052505080806111b09061393b565b915050610fc9565b50809450505050509392505050565b6000600760008373ffffffffffffffffffffffffffffffffffffffff1673ffffffffffffffffffffffffffffffffffffffff168152602001908152602001600020805490509050919050565b61121b611834565b6112256000611aa8565b565b6000600360009054906101000a900473ffffffffffffffffffffffffffffffffffffffff16905090565b6112596125e1565b6005828154811061126d5761126c6139e0565b5b90600052602060002090600502016040518060a0016040529081600082015481526020016001820160009054906101000a900465ffffffffffff1665ffffffffffff1665ffffffffffff1681526020016002820180546112cc9061355c565b80601f01602080910402602001604051908101604052809291908181526020018280546112f89061355c565b80156113455780601f1061131a57610100808354040283529160200191611345565b820191906000526020600020905b81548152906001019060200180831161132857829003601f168201915b50505050508152602001600382015481526020016004820160009054906101000a900473ffffffffffffffffffffffffffffffffffffffff1673ffffffffffffffffffffffffffffffffffffffff1673ffffffffffffffffffffffffffffffffffffffff16815250509050919050565b60606005805480602002602001604051908101604052809291908181526020016000905b8282101561153357838290600052602060002090600502016040518060a0016040529081600082015481526020016001820160009054906101000a900465ffffffffffff1665ffffffffffff1665ffffffffffff1681526020016002820180546114429061355c565b80601f016020809104026020016040519081016040528092919081815260200182805461146e9061355c565b80156114bb5780601f10611490576101008083540402835291602001916114bb565b820191906000526020600020905b81548152906001019060200180831161149e57829003601f168201915b50505050508152602001600382015481526020016004820160009054906101000a900473ffffffffffffffffffffffffffffffffffffffff1673ffffffffffffffffffffffffffffffffffffffff1673ffffffffffffffffffffffffffffffffffffffff1681525050815260200190600101906113d9565b50505050905090565b61154e6115476118ce565b8383611b6e565b5050565b6000600860008373ffffffffffffffffffffffffffffffffffffffff1673ffffffffffffffffffffffffffffffffffffffff168152602001908152602001600020600001805490509050919050565b6000600660008473ffffffffffffffffffffffffffffffffffffffff1673ffffffffffffffffffffffffffffffffffffffff16815260200190815260200160002060008361ffff1665ffffffffffff16815260200190815260200160002054905092915050565b6000600160008473ffffffffffffffffffffffffffffffffffffffff1673ffffffffffffffffffffffffffffffffffffffff16815260200190815260200160002060008373ffffffffffffffffffffffffffffffffffffffff1673ffffffffffffffffffffffffffffffffffffffff16815260200190815260200160002060009054906101000a900460ff16905092915050565b60006116a66118ce565b90508073ffffffffffffffffffffffffffffffffffffffff168673ffffffffffffffffffffffffffffffffffffffff16141580156116eb57506116e98682611608565b155b1561172f5780866040517fe237d92200000000000000000000000000000000000000000000000000000000815260040161172692919061358d565b60405180910390fd5b61173c8686868686611cde565b505050505050565b61174c611834565b600073ffffffffffffffffffffffffffffffffffffffff168173ffffffffffffffffffffffffffffffffffffffff16036117be5760006040517f1e4fbdf70000000000000000000000000000000000000000000000000000000081526004016117b591906132f7565b60405180910390fd5b6117c781611aa8565b50565b60007f01ffc9a7000000000000000000000000000000000000000000000000000000007bffffffffffffffffffffffffffffffffffffffffffffffffffffffff1916827bffffffffffffffffffffffffffffffffffffffffffffffffffffffff1916149050919050565b61183c6118ce565b73ffffffffffffffffffffffffffffffffffffffff1661185a611227565b73ffffffffffffffffffffffffffffffffffffffff16146118b95761187d6118ce565b6040517f118cdaa70000000000000000000000000000000000000000000000000000000081526004016118b091906132f7565b60405180910390fd5b565b80600290816118ca919061383a565b5050565b600033905090565b600073ffffffffffffffffffffffffffffffffffffffff168473ffffffffffffffffffffffffffffffffffffffff16036119485760006040517f57f447ce00000000000000000000000000000000000000000000000000000000815260040161193f91906132f7565b60405180910390fd5b600073ffffffffffffffffffffffffffffffffffffffff168573ffffffffffffffffffffffffffffffffffffffff16036119ba5760006040517f01a835140000000000000000000000000000000000000000000000000000000081526004016119b191906132f7565b60405180910390fd5b6119c78585858585611de9565b5050505050565b600073ffffffffffffffffffffffffffffffffffffffff168473ffffffffffffffffffffffffffffffffffffffff1603611a405760006040517f57f447ce000000000000000000000000000000000000000000000000000000008152600401611a3791906132f7565b60405180910390fd5b600080611a4d8585611e9b565b91509150611a5f600087848487611de9565b505050505050565b600060208202602084010151905092915050565b600060208202602084010151905092915050565b6000818310611a9e5781611aa0565b825b905092915050565b6000600360009054906101000a900473ffffffffffffffffffffffffffffffffffffffff16905081600360006101000a81548173ffffffffffffffffffffffffffffffffffffffff021916908373ffffffffffffffffffffffffffffffffffffffff1602179055508173ffffffffffffffffffffffffffffffffffffffff168173ffffffffffffffffffffffffffffffffffffffff167f8be0079c531659141344cd1fd0a4f28419497f9722a3daafe3b4186f6b6457e060405160405180910390a35050565b600073ffffffffffffffffffffffffffffffffffffffff168273ffffffffffffffffffffffffffffffffffffffff1603611be05760006040517fced3e100000000000000000000000000000000000000000000000000000000008152600401611bd791906132f7565b60405180910390fd5b80600160008573ffffffffffffffffffffffffffffffffffffffff1673ffffffffffffffffffffffffffffffffffffffff16815260200190815260200160002060008473ffffffffffffffffffffffffffffffffffffffff1673ffffffffffffffffffffffffffffffffffffffff16815260200190815260200160002060006101000a81548160ff0219169083151502179055508173ffffffffffffffffffffffffffffffffffffffff168373ffffffffffffffffffffffffffffffffffffffff167f17307eab39ab6107e8899845ad3d59bd9653f200f220920489ca2b5937696c3183604051611cd191906127e0565b60405180910390a3505050565b600073ffffffffffffffffffffffffffffffffffffffff168473ffffffffffffffffffffffffffffffffffffffff1603611d505760006040517f57f447ce000000000000000000000000000000000000000000000000000000008152600401611d4791906132f7565b60405180910390fd5b600073ffffffffffffffffffffffffffffffffffffffff168573ffffffffffffffffffffffffffffffffffffffff1603611dc25760006040517f01a83514000000000000000000000000000000000000000000000000000000008152600401611db991906132f7565b60405180910390fd5b600080611dcf8585611e9b565b91509150611de08787848487611de9565b50505050505050565b611df585858585611ecb565b600073ffffffffffffffffffffffffffffffffffffffff168473ffffffffffffffffffffffffffffffffffffffff1614611e94576000611e336118ce565b90506001845103611e83576000611e54600086611a7b90919063ffffffff16565b90506000611e6c600086611a7b90919063ffffffff16565b9050611e7c838989858589612279565b5050611e92565b611e9181878787878761242d565b5b505b5050505050565b60608060405191506001825283602083015260408201905060018152826020820152604081016040529250929050565b8051825114611f1557815181516040517f5b059991000000000000000000000000000000000000000000000000000000008152600401611f0c9291906139b7565b60405180910390fd5b6000611f1f6118ce565b905060005b8351811015612134576000611f428286611a7b90919063ffffffff16565b90506000611f598386611a7b90919063ffffffff16565b9050600073ffffffffffffffffffffffffffffffffffffffff168873ffffffffffffffffffffffffffffffffffffffff161461208657600080600084815260200190815260200160002060008a73ffffffffffffffffffffffffffffffffffffffff1673ffffffffffffffffffffffffffffffffffffffff1681526020019081526020016000205490508181101561202e57888183856040517f03dee4c50000000000000000000000000000000000000000000000000000000081526004016120259493929190613af1565b60405180910390fd5b81810360008085815260200190815260200160002060008b73ffffffffffffffffffffffffffffffffffffffff1673ffffffffffffffffffffffffffffffffffffffff16815260200190815260200160002081905550505b600073ffffffffffffffffffffffffffffffffffffffff168773ffffffffffffffffffffffffffffffffffffffff1614612121578060008084815260200190815260200160002060008973ffffffffffffffffffffffffffffffffffffffff1673ffffffffffffffffffffffffffffffffffffffff16815260200190815260200160002060008282546121199190613983565b925050819055505b50508061212d9061393b565b9050611f24565b5060018351036121f3576000612154600085611a7b90919063ffffffff16565b9050600061216c600085611a7b90919063ffffffff16565b90508573ffffffffffffffffffffffffffffffffffffffff168773ffffffffffffffffffffffffffffffffffffffff168473ffffffffffffffffffffffffffffffffffffffff167fc3d58168c5ae7397731d063d5bbf3d657854427343f4c083240f7aacaa2d0f6285856040516121e49291906139b7565b60405180910390a45050612272565b8373ffffffffffffffffffffffffffffffffffffffff168573ffffffffffffffffffffffffffffffffffffffff168273ffffffffffffffffffffffffffffffffffffffff167f4a39dc06d4c0dbc64b70af90fd698a233a518aa5d07e595d983b8c0526c8f7fb8686604051612269929190613b36565b60405180910390a45b5050505050565b60008473ffffffffffffffffffffffffffffffffffffffff163b1115612425578373ffffffffffffffffffffffffffffffffffffffff1663f23a6e6187878686866040518663ffffffff1660e01b81526004016122da959493929190613bc2565b6020604051808303816000875af192505050801561231657506040513d601f19601f820116820180604052508101906123139190613c31565b60015b61239a573d8060008114612346576040519150601f19603f3d011682016040523d82523d6000602084013e61234b565b606091505b50600081510361239257846040517f57f447ce00000000000000000000000000000000000000000000000000000000815260040161238991906132f7565b60405180910390fd5b805181602001fd5b63f23a6e6160e01b7bffffffffffffffffffffffffffffffffffffffffffffffffffffffff1916817bffffffffffffffffffffffffffffffffffffffffffffffffffffffff19161461242357846040517f57f447ce00000000000000000000000000000000000000000000000000000000815260040161241a91906132f7565b60405180910390fd5b505b505050505050565b60008473ffffffffffffffffffffffffffffffffffffffff163b11156125d9578373ffffffffffffffffffffffffffffffffffffffff1663bc197c8187878686866040518663ffffffff1660e01b815260040161248e959493929190613c5e565b6020604051808303816000875af19250505080156124ca57506040513d601f19601f820116820180604052508101906124c79190613c31565b60015b61254e573d80600081146124fa576040519150601f19603f3d011682016040523d82523d6000602084013e6124ff565b606091505b50600081510361254657846040517f57f447ce00000000000000000000000000000000000000000000000000000000815260040161253d91906132f7565b60405180910390fd5b805181602001fd5b63bc197c8160e01b7bffffffffffffffffffffffffffffffffffffffffffffffffffffffff1916817bffffffffffffffffffffffffffffffffffffffffffffffffffffffff1916146125d757846040517f57f447ce0000000000000000000000000000000000000000000000000000000081526004016125ce91906132f7565b60405180910390fd5b505b505050505050565b6040518060a0016040528060008152602001600065ffffffffffff1681526020016060815260200160008152602001600073ffffffffffffffffffffffffffffffffffffffff1681525090565b6000604051905090565b600080fd5b600080fd5b600073ffffffffffffffffffffffffffffffffffffffff82169050919050565b600061266d82612642565b9050919050565b61267d81612662565b811461268857600080fd5b50565b60008135905061269a81612674565b92915050565b6000819050919050565b6126b3816126a0565b81146126be57600080fd5b50565b6000813590506126d0816126aa565b92915050565b600080604083850312156126ed576126ec612638565b5b60006126fb8582860161268b565b925050602061270c858286016126c1565b9150509250929050565b61271f816126a0565b82525050565b600060208201905061273a6000830184612716565b92915050565b60007fffffffff0000000000000000000000000000000000000000000000000000000082169050919050565b61277581612740565b811461278057600080fd5b50565b6000813590506127928161276c565b92915050565b6000602082840312156127ae576127ad612638565b5b60006127bc84828501612783565b91505092915050565b60008115159050919050565b6127da816127c5565b82525050565b60006020820190506127f560008301846127d1565b92915050565b600080fd5b600080fd5b6000601f19601f8301169050919050565b7f4e487b7100000000000000000000000000000000000000000000000000000000600052604160045260246000fd5b61284e82612805565b810181811067ffffffffffffffff8211171561286d5761286c612816565b5b80604052505050565b600061288061262e565b905061288c8282612845565b919050565b600067ffffffffffffffff8211156128ac576128ab612816565b5b6128b582612805565b9050602081019050919050565b82818337600083830152505050565b60006128e46128df84612891565b612876565b905082815260208101848484011115612900576128ff612800565b5b61290b8482856128c2565b509392505050565b600082601f830112612928576129276127fb565b5b81356129388482602086016128d1565b91505092915050565b60006020828403121561295757612956612638565b5b600082013567ffffffffffffffff8111156129755761297461263d565b5b61298184828501612913565b91505092915050565b6000602082840312156129a05761299f612638565b5b60006129ae848285016126c1565b91505092915050565b600081519050919050565b600082825260208201905092915050565b60005b838110156129f15780820151818401526020810190506129d6565b60008484015250505050565b6000612a08826129b7565b612a1281856129c2565b9350612a228185602086016129d3565b612a2b81612805565b840191505092915050565b60006020820190508181036000830152612a5081846129fd565b905092915050565b600067ffffffffffffffff821115612a7357612a72612816565b5b602082029050602081019050919050565b600080fd5b6000612a9c612a9784612a58565b612876565b90508083825260208201905060208402830185811115612abf57612abe612a84565b5b835b81811015612ae85780612ad488826126c1565b845260208401935050602081019050612ac1565b5050509392505050565b600082601f830112612b0757612b066127fb565b5b8135612b17848260208601612a89565b91505092915050565b600067ffffffffffffffff821115612b3b57612b3a612816565b5b612b4482612805565b9050602081019050919050565b6000612b64612b5f84612b20565b612876565b905082815260208101848484011115612b8057612b7f612800565b5b612b8b8482856128c2565b509392505050565b600082601f830112612ba857612ba76127fb565b5b8135612bb8848260208601612b51565b91505092915050565b600080600080600060a08688031215612bdd57612bdc612638565b5b6000612beb8882890161268b565b9550506020612bfc8882890161268b565b945050604086013567ffffffffffffffff811115612c1d57612c1c61263d565b5b612c2988828901612af2565b935050606086013567ffffffffffffffff811115612c4a57612c4961263d565b5b612c5688828901612af2565b925050608086013567ffffffffffffffff811115612c7757612c7661263d565b5b612c8388828901612b93565b9150509295509295909350565b600065ffffffffffff82169050919050565b612cab81612c90565b8114612cb657600080fd5b50565b600081359050612cc881612ca2565b92915050565b60008060408385031215612ce557612ce4612638565b5b6000612cf385828601612cb9565b925050602083013567ffffffffffffffff811115612d1457612d1361263d565b5b612d2085828601612913565b9150509250929050565b600067ffffffffffffffff821115612d4557612d44612816565b5b602082029050602081019050919050565b6000612d69612d6484612d2a565b612876565b90508083825260208201905060208402830185811115612d8c57612d8b612a84565b5b835b81811015612db55780612da1888261268b565b845260208401935050602081019050612d8e565b5050509392505050565b600082601f830112612dd457612dd36127fb565b5b8135612de4848260208601612d56565b91505092915050565b60008060408385031215612e0457612e03612638565b5b600083013567ffffffffffffffff811115612e2257612e2161263d565b5b612e2e85828601612dbf565b925050602083013567ffffffffffffffff811115612e4f57612e4e61263d565b5b612e5b85828601612af2565b9150509250929050565b600081519050919050565b600082825260208201905092915050565b6000819050602082019050919050565b612e9a816126a0565b82525050565b6000612eac8383612e91565b60208301905092915050565b6000602082019050919050565b6000612ed082612e65565b612eda8185612e70565b9350612ee583612e81565b8060005b83811015612f16578151612efd8882612ea0565b9750612f0883612eb8565b925050600181019050612ee9565b5085935050505092915050565b60006020820190508181036000830152612f3d8184612ec5565b905092915050565b60007dffffffffffffffffffffffffffffffffffffffffffffffffffffffffffff82169050919050565b612f7881612f45565b8114612f8357600080fd5b50565b600081359050612f9581612f6f565b92915050565b600061ffff82169050919050565b612fb281612f9b565b8114612fbd57600080fd5b50565b600081359050612fcf81612fa9565b92915050565b600080600060608486031215612fee57612fed612638565b5b6000612ffc8682870161268b565b935050602061300d86828701612f86565b925050604061301e86828701612fc0565b9150509250925092565b600081519050919050565b600082825260208201905092915050565b6000819050602082019050919050565b61305d81612c90565b82525050565b600061306f8383613054565b60208301905092915050565b6000602082019050919050565b600061309382613028565b61309d8185613033565b93506130a883613044565b8060005b838110156130d95781516130c08882613063565b97506130cb8361307b565b9250506001810190506130ac565b5085935050505092915050565b600060208201905081810360008301526131008184613088565b905092915050565b600081519050919050565b600082825260208201905092915050565b6000819050602082019050919050565b600082825260208201905092915050565b6000613150826129b7565b61315a8185613134565b935061316a8185602086016129d3565b61317381612805565b840191505092915050565b61318781612662565b82525050565b600060a0830160008301516131a56000860182612e91565b5060208301516131b86020860182613054565b50604083015184820360408601526131d08282613145565b91505060608301516131e56060860182612e91565b5060808301516131f8608086018261317e565b508091505092915050565b600061320f838361318d565b905092915050565b6000602082019050919050565b600061322f82613108565b6132398185613113565b93508360208202850161324b85613124565b8060005b8581101561328757848403895281516132688582613203565b945061327383613217565b925060208a0199505060018101905061324f565b50829750879550505050505092915050565b600060208201905081810360008301526132b38184613224565b905092915050565b6000602082840312156132d1576132d0612638565b5b60006132df8482850161268b565b91505092915050565b6132f181612662565b82525050565b600060208201905061330c60008301846132e8565b92915050565b600060a08301600083015161332a6000860182612e91565b50602083015161333d6020860182613054565b50604083015184820360408601526133558282613145565b915050606083015161336a6060860182612e91565b50608083015161337d608086018261317e565b508091505092915050565b600060208201905081810360008301526133a28184613312565b905092915050565b6133b3816127c5565b81146133be57600080fd5b50565b6000813590506133d0816133aa565b92915050565b600080604083850312156133ed576133ec612638565b5b60006133fb8582860161268b565b925050602061340c858286016133c1565b9150509250929050565b6000806040838503121561342d5761342c612638565b5b600061343b8582860161268b565b925050602061344c85828601612fc0565b9150509250929050565b6000806040838503121561346d5761346c612638565b5b600061347b8582860161268b565b925050602061348c8582860161268b565b9150509250929050565b600080600080600060a086880312156134b2576134b1612638565b5b60006134c08882890161268b565b95505060206134d18882890161268b565b94505060406134e2888289016126c1565b93505060606134f3888289016126c1565b925050608086013567ffffffffffffffff8111156135145761351361263d565b5b61352088828901612b93565b9150509295509295909350565b7f4e487b7100000000000000000000000000000000000000000000000000000000600052602260045260246000fd5b6000600282049050600182168061357457607f821691505b6020821081036135875761358661352d565b5b50919050565b60006040820190506135a260008301856132e8565b6135af60208301846132e8565b9392505050565b7f4953424e3133206e6f742076616c696421000000000000000000000000000000600082015250565b60006135ec6011836129c2565b91506135f7826135b6565b602082019050919050565b6000602082019050818103600083015261361b816135df565b9050919050565b7f434944206e6f742076616c696421000000000000000000000000000000000000600082015250565b6000613658600e836129c2565b915061366382613622565b602082019050919050565b600060208201905081810360008301526136878161364b565b9050919050565b60008190508160005260206000209050919050565b60006020601f8301049050919050565b600082821b905092915050565b6000600883026136f07fffffffffffffffffffffffffffffffffffffffffffffffffffffffffffffffff826136b3565b6136fa86836136b3565b95508019841693508086168417925050509392505050565b6000819050919050565b600061373761373261372d846126a0565b613712565b6126a0565b9050919050565b6000819050919050565b6137518361371c565b61376561375d8261373e565b8484546136c0565b825550505050565b600090565b61377a61376d565b613785818484613748565b505050565b5b818110156137a95761379e600082613772565b60018101905061378b565b5050565b601f8211156137ee576137bf8161368e565b6137c8846136a3565b810160208510156137d7578190505b6137eb6137e3856136a3565b83018261378a565b50505b505050565b600082821c905092915050565b6000613811600019846008026137f3565b1980831691505092915050565b600061382a8383613800565b9150826002028217905092915050565b613843826129b7565b67ffffffffffffffff81111561385c5761385b612816565b5b613866825461355c565b6138718282856137ad565b600060209050601f8311600181146138a45760008415613892578287015190505b61389c858261381e565b865550613904565b601f1984166138b28661368e565b60005b828110156138da578489015182556001820191506020850194506020810190506138b5565b868310156138f757848901516138f3601f891682613800565b8355505b6001600288020188555050505b505050505050565b7f4e487b7100000000000000000000000000000000000000000000000000000000600052601160045260246000fd5b6000613946826126a0565b91507fffffffffffffffffffffffffffffffffffffffffffffffffffffffffffffffff82036139785761397761390c565b5b600182019050919050565b600061398e826126a0565b9150613999836126a0565b92508282019050808211156139b1576139b061390c565b5b92915050565b60006040820190506139cc6000830185612716565b6139d96020830184612716565b9392505050565b7f4e487b7100000000000000000000000000000000000000000000000000000000600052603260045260246000fd5b6000613a1a82612f45565b9150613a2583612f45565b9250828202613a3381612f45565b91508282048414831517613a4a57613a4961390c565b5b5092915050565b7f506167652f5061676553697a6520746f6f206269670000000000000000000000600082015250565b6000613a876015836129c2565b9150613a9282613a51565b602082019050919050565b60006020820190508181036000830152613ab681613a7a565b9050919050565b6000613ac8826126a0565b9150613ad3836126a0565b9250828203905081811115613aeb57613aea61390c565b5b92915050565b6000608082019050613b0660008301876132e8565b613b136020830186612716565b613b206040830185612716565b613b2d6060830184612716565b95945050505050565b60006040820190508181036000830152613b508185612ec5565b90508181036020830152613b648184612ec5565b90509392505050565b600081519050919050565b600082825260208201905092915050565b6000613b9482613b6d565b613b9e8185613b78565b9350613bae8185602086016129d3565b613bb781612805565b840191505092915050565b600060a082019050613bd760008301886132e8565b613be460208301876132e8565b613bf16040830186612716565b613bfe6060830185612716565b8181036080830152613c108184613b89565b90509695505050505050565b600081519050613c2b8161276c565b92915050565b600060208284031215613c4757613c46612638565b5b6000613c5584828501613c1c565b91505092915050565b600060a082019050613c7360008301886132e8565b613c8060208301876132e8565b8181036040830152613c928186612ec5565b90508181036060830152613ca68185612ec5565b90508181036080830152613cba8184613b89565b9050969550505050505056fea26469706673582212201500e0aa4b9fa1861f2da39887afab6fd25bd20499f6c4c106d426a755a0fa8964736f6c63430008140033",
  "linkReferences": {},
  "deployedLinkReferences": {}
}